0029875850999991931010112004-34583-058317FM-12+002599999V0201401N002619999999N9999999N9+02391+99999101021ADDGF107991999999999999999999
0035875850999991931010212004-34583-058317FM-12+002599999V0200501N002619999999N9999999N9+02611+99999101281ADDGF107991999999999999999999MW1111
0029875850999991931010312004-34583-058317FM-12+002599999V0203601N002619999999N9999999N9+02391+99999101231ADDGF107991999999999999999999
0029875850999991931010412004-34583-058317FM-12+002599999V0209991C000019999999N9999999N9+02501+99999100711ADDGF107991999999999999999999
0029875850999991931010512004-34583-058317FM-12+002599999V0209991C000019999999N9999999N9+02721+99999100351ADDGF107991999999999999999999
0029875850999991931010612004-34583-058317FM-12+002599999V0201401N009319999999N9999999N9+01611+99999101541ADDGF107991999999999999999999
0029875850999991931010712004-34583-058317FM-12+002599999V0201401N002619999999N9999999N9+01781+99999102021ADDGF102991999999999999999999
0029875850999991931010812004-34583-058317FM-12+002599999V0201401N002619999999N9999999N9+02221+99999101761ADDGF107991999999999999999999
0029875850999991931010912004-34583-058317FM-12+002599999V0200501N002619999999N9999999N9+02281+99999101751ADDGF100991999999999999999999
0029875850999991931011012004-34583-058317FM-12+002599999V0203201N002619999999N9999999N9+02501+99999101521ADDGF100991999999999999999999
0029875850999991931011112004-34583-058317FM-12+002599999V0203201N002619999999N9999999N9+02611+99999101441ADDGF107991999999999999999999
0029875850999991931011212004-34583-058317FM-12+002599999V0203201N002619999999N9999999N9+02391+99999101361ADDGF107991999999999999999999
0029875850999991931011312004-34583-058317FM-12+002599999V0203601N002619999999N9999999N9+02781+99999101441ADDGF100991999999999999999999
0029875850999991931011412004-34583-058317FM-12+002599999V0200501N002619999999N9999999N9+02391+99999101141ADDGF107991999999999999999999
0029875850999991931011512004-34583-058317FM-12+002599999V0202301N002619999999N9999999N9+02281+99999100681ADDGF107991999999999999999999
0029875850999991931011612004-34583-058317FM-12+002599999V0200501N002619999999N9999999N9+02501+99999101241ADDGF107991999999999999999999
0029875850999991931011712004-34583-058317FM-12+002599999V0203601N009319999999N9999999N9+02281+99999100761ADDGF107991999999999999999999
0029875850999991931011912004-34583-058317FM-12+002599999V0200501N002619999999N9999999N9+02721+99999101101ADDGF102991999999999999999999
0029875850999991931012012004-34583-058317FM-12+002599999V0203601N002619999999N9999999N9+02611+99999100711ADDGF107991999999999999999999
0029875850999991931012112004-34583-058317FM-12+002599999V0202301N002619999999N9999999N9+02001+99999100661ADDGF107991999999999999999999
0029875850999991931012212004-34583-058317FM-12+002599999V0201401N002619999999N9999999N9+02001+99999100561ADDGF107991999999999999999999
0029875850999991931012312004-34583-058317FM-12+002599999V0201801N002619999999N9999999N9+02221+99999100671ADDGF102991999999999999999999
0029875850999991931012412004-34583-058317FM-12+002599999V0201401N002619999999N9999999N9+02221+99999100671ADDGF102991999999999999999999
0029875850999991931012512004-34583-058317FM-12+002599999V0200501N002619999999N9999999N9+02281+99999100701ADDGF107991999999999999999999
0029875850999991931012612004-34583-058317FM-12+002599999V0202701N002619999999N9999999N9+01781+99999100321ADDGF102991999999999999999999
0029875850999991931012712004-34583-058317FM-12+002599999V0201801N009319999999N9999999N9+02001+99999101181ADDGF100991999999999999999999
0029875850999991931012812004-34583-058317FM-12+002599999V0203601N009319999999N9999999N9+02281+99999101481ADDGF100991999999999999999999
0029875850999991931012912004-34583-058317FM-12+002599999V0200501N002619999999N9999999N9+02391+99999101031ADDGF104991999999999999999999
0029875850999991931013012004-34583-058317FM-12+002599999V0201401N002619999999N9999999N9+02001+99999101871ADDGF100991999999999999999999
0029875850999991931013112004-34583-058317FM-12+002599999V0203601N009319999999N9999999N9+02111+99999101581ADDGF100991999999999999999999
0029875850999991931020112004-34583-058317FM-12+002599999V0203601N002619999999N9999999N9+02721+99999100861ADDGF102991999999999999999999
0029875850999991931020212004-34583-058317FM-12+002599999V0203201N002619999999N9999999N9+02781+99999100871ADDGF100991999999999999999999
0029875850999991931020312004-34583-058317FM-12+002599999V0203201N002619999999N9999999N9+02391+99999100781ADDGF107991999999999999999999
0029875850999991931020412004-34583-058317FM-12+002599999V0200901N009319999999N9999999N9+02391+99999101281ADDGF107991999999999999999999
0029875850999991931020512004-34583-058317FM-12+002599999V0200501N002619999999N9999999N9+02391+99999101311ADDGF107991999999999999999999
0029875850999991931020612004-34583-058317FM-12+002599999V0200501N002619999999N9999999N9+02501+99999101341ADDGF104991999999999999999999
0029875850999991931020712004-34583-058317FM-12+002599999V0200501N002619999999N9999999N9+02391+99999101121ADDGF102991999999999999999999
0029875850999991931020812004-34583-058317FM-12+002599999V0200501N002619999999N9999999N9+02611+99999100761ADDGF102991999999999999999999
0029875850999991931020912004-34583-058317FM-12+002599999V0200501N002619999999N9999999N9+02391+99999100741ADDGF104991999999999999999999
0029875850999991931021012004-34583-058317FM-12+002599999V0201801N002619999999N9999999N9+02001+99999101481ADDGF102991999999999999999999
0029875850999991931021112004-34583-058317FM-12+002599999V0202301N002619999999N9999999N9+02111+99999101751ADDGF102991999999999999999999
0029875850999991931021212004-34583-058317FM-12+002599999V0209991C000019999999N9999999N9+01891+99999101911ADDGF107991999999999999999999
0029875850999991931021312004-34583-058317FM-12+002599999V0200501N002619999999N9999999N9+02281+99999102081ADDGF102991999999999999999999
0029875850999991931021412004-34583-058317FM-12+002599999V0200501N009319999999N9999999N9+02221+99999101941ADDGF102991999999999999999999
0029875850999991931021512004-34583-058317FM-12+002599999V0200501N002619999999N9999999N9+02391+99999101441ADDGF107991999999999999999999
0029875850999991931021612004-34583-058317FM-12+002599999V0209991C000019999999N9999999N9+02501+99999101261ADDGF107991999999999999999999
0029875850999991931021712004-34583-058317FM-12+002599999V0200901N002619999999N9999999N9+02221+99999101111ADDGF107991999999999999999999
0029875850999991931021812004-34583-058317FM-12+002599999V0201401N002619999999N9999999N9+02391+99999100991ADDGF102991999999999999999999
0029875850999991931021912004-34583-058317FM-12+002599999V0202301N002619999999N9999999N9+02111+99999100481ADDGF107991999999999999999999
0029875850999991931022012004-34583-058317FM-12+002599999V0201401N002619999999N9999999N9+01611+99999101561ADDGF100991999999999999999999
0029875850999991931022112004-34583-058317FM-12+002599999V0203201N009319999999N9999999N9+01891+99999102241ADDGF102991999999999999999999
0029875850999991931022212004-34583-058317FM-12+002599999V0203601N002619999999N9999999N9+02221+99999101801ADDGF100991999999999999999999
0029875850999991931022312004-34583-058317FM-12+002599999V0203201N009319999999N9999999N9+02501+99999101231ADDGF102991999999999999999999
0029875850999991931022412004-34583-058317FM-12+002599999V0209991C000019999999N9999999N9+02501+99999100961ADDGF104991999999999999999999
0029875850999991931022512004-34583-058317FM-12+002599999V0203201N002619999999N9999999N9+02391+99999100671ADDGF102991999999999999999999
0029875850999991931022612004-34583-058317FM-12+002599999V0200901N002619999999N9999999N9+02501+99999101021ADDGF107991999999999999999999
0029875850999991931022712004-34583-058317FM-12+002599999V0203601N002619999999N9999999N9+02611+99999100831ADDGF100991999999999999999999
0029875850999991931022812004-34583-058317FM-12+002599999V0203201N002619999999N9999999N9+02781+99999101041ADDGF100991999999999999999999
0029875850999991931030112004-34583-058317FM-12+002599999V0203601N002619999999N9999999N9+03001+99999101361ADDGF107991999999999999999999
0029875850999991931030212004-34583-058317FM-12+002599999V0200501N002619999999N9999999N9+03221+99999100991ADDGF102991999999999999999999
0029875850999991931030312004-34583-058317FM-12+002599999V0201401N002619999999N9999999N9+02391+99999101591ADDGF107991999999999999999999
0029875850999991931030412004-34583-058317FM-12+002599999V0200501N002619999999N9999999N9+02781+99999101431ADDGF102991999999999999999999
0029875850999991931030512004-34583-058317FM-12+002599999V0203601N002619999999N9999999N9+02781+99999101201ADDGF102991999999999999999999
0029875850999991931030612004-34583-058317FM-12+002599999V0202301N002619999999N9999999N9+02781+99999100751ADDGF107991999999999999999999
0029875850999991931030712004-34583-058317FM-12+002599999V0201401N002619999999N9999999N9+01781+99999101141ADDGF100991999999999999999999
0029875850999991931030812004-34583-058317FM-12+002599999V0202301N002619999999N9999999N9+01281+99999102151ADDGF107991999999999999999999
0029875850999991931030912004-34583-058317FM-12+002599999V0201401N002619999999N9999999N9+01391+99999102511ADDGF102991999999999999999999
0000875850999991931031112004-34583-058317FM-12+002599999V0203601N002619999999N9999999N9+01891+99999102321
0029875850999991931031212004-34583-058317FM-12+002599999V0203601N002619999999N9999999N9+02111+99999101981ADDGF107991999999999999999999
0029875850999991931031312004-34583-058317FM-12+002599999V0203201N009319999999N9999999N9+02001+99999101801ADDGF100991999999999999999999
0029875850999991931031412004-34583-058317FM-12+002599999V0203601N002619999999N9999999N9+02281+99999101741ADDGF100991999999999999999999
0029875850999991931031512004-34583-058317FM-12+002599999V0200501N002619999999N9999999N9+02281+99999101321ADDGF100991999999999999999999
0029875850999991931031612004-34583-058317FM-12+002599999V0203201N002619999999N9999999N9+02391+99999101081ADDGF104991999999999999999999
0029875850999991931031712004-34583-058317FM-12+002599999V0200901N002619999999N9999999N9+02001+99999101111ADDGF107991999999999999999999
0029875850999991931031812004-34583-058317FM-12+002599999V0201801N002619999999N9999999N9+02111+99999101341ADDGF107991999999999999999999
0029875850999991931031912004-34583-058317FM-12+002599999V0201401N002619999999N9999999N9+01501+99999101911ADDGF107991999999999999999999
0029875850999991931032012004-34583-058317FM-12+002599999V0200501N002619999999N9999999N9+02001+99999101541ADDGF107991999999999999999999
0029875850999991931032112004-34583-058317FM-12+002599999V0202301N002619999999N9999999N9+01111+99999101991ADDGF107991999999999999999999
0029875850999991931032212004-34583-058317FM-12+002599999V0203201N002619999999N9999999N9+01721+99999101511ADDGF102991999999999999999999
0029875850999991931032312004-34583-058317FM-12+002599999V0200501N002619999999N9999999N9+01501+99999100961ADDGF107991999999999999999999
0000875850999991931032412004-34583-058317FM-12+002599999V0203201N002619999999N9999999N9+01391+99999100821
0029875850999991931032512004-34583-058317FM-12+002599999V0203201N002619999999N9999999N9+01611+99999101221ADDGF102991999999999999999999
0029875850999991931032612004-34583-058317FM-12+002599999V0203601N002619999999N9999999N9+02111+99999101541ADDGF102991999999999999999999
0029875850999991931032712004-34583-058317FM-12+002599999V0209991C000019999999N9999999N9+02111+99999101721ADDGF107991999999999999999999
0029875850999991931032812004-34583-058317FM-12+002599999V0200501N002619999999N9999999N9+02111+99999101701ADDGF107991999999999999999999
0029875850999991931032912004-34583-058317FM-12+002599999V0203201N002619999999N9999999N9+02221+99999101501ADDGF104991999999999999999999
0029875850999991931033012004-34583-058317FM-12+002599999V0209991C000019999999N9999999N9+02281+99999101191ADDGF100991999999999999999999
0029875850999991931033112004-34583-058317FM-12+002599999V0201801N002619999999N9999999N9+01501+99999101711ADDGF107991999999999999999999
0029875850999991931040112004-34583-058317FM-12+002599999V0201801N002619999999N9999999N9+01111+99999102231ADDGF100991999999999999999999
0029875850999991931040212004-34583-058317FM-12+002599999V0201401N002619999999N9999999N9+01281+99999102281ADDGF100991999999999999999999
0000875850999991931040312004-34583-058317FM-12+002599999V0200501N002619999999N9999999N9+01891+99999101591
0029875850999991931040412004-34583-058317FM-12+002599999V0200501N002619999999N9999999N9+02001+99999102561ADDGF105991999999999999999999
0029875850999991931040512004-34583-058317FM-12+002599999V0203601N002619999999N9999999N9+02001+99999102041ADDGF107991999999999999999999
0029875850999991931040612004-34583-058317FM-12+002599999V0201401N002619999999N9999999N9+01781+99999102191ADDGF104991999999999999999999
0029875850999991931040712004-34583-058317FM-12+002599999V0200501N002619999999N9999999N9+02111+99999101821ADDGF105991999999999999999999
0029875850999991931040812004-34583-058317FM-12+002599999V0202301N002619999999N9999999N9+01611+99999101551ADDGF107991999999999999999999
0029875850999991931041112004-34583-058317FM-12+002599999V0202301N002619999999N9999999N9+01221+99999101361ADDGF107991999999999999999999
0029875850999991931041212004-34583-058317FM-12+002599999V0202301N002619999999N9999999N9+00721+99999102141ADDGF107991999999999999999999
0029875850999991931041312004-34583-058317FM-12+002599999V0200501N002619999999N9999999N9+01501+99999102191ADDGF107991999999999999999999
0029875850999991931041412004-34583-058317FM-12+002599999V0200501N002619999999N9999999N9+01611+99999101791ADDGF107991999999999999999999
0029875850999991931041612004-34583-058317FM-12+002599999V0202301N002619999999N9999999N9+01221+99999101881ADDGF107991999999999999999999
0029875850999991931041712004-34583-058317FM-12+002599999V0202301N002619999999N9999999N9+01111+99999102191ADDGF102991999999999999999999
0029875850999991931041812004-34583-058317FM-12+002599999V0201801N002619999999N9999999N9+01001+99999101941ADDGF102991999999999999999999
0029875850999991931041912004-34583-058317FM-12+002599999V0200501N002619999999N9999999N9+01391+99999101621ADDGF102991999999999999999999
0029875850999991931042012004-34583-058317FM-12+002599999V0200501N002619999999N9999999N9+01611+99999101081ADDGF107991999999999999999999
0029875850999991931042112004-34583-058317FM-12+002599999V0203201N002619999999N9999999N9+01281+99999100711ADDGF107991999999999999999999
0029875850999991931042212004-34583-058317FM-12+002599999V0203201N002619999999N9999999N9+01391+99999101501ADDGF108991999999999999999999
0029875850999991931042312004-34583-058317FM-12+002599999V0202301N002619999999N9999999N9+01281+99999102301ADDGF100991999999999999999999
0029875850999991931042412004-34583-058317FM-12+002599999V0203201N002619999999N9999999N9+01611+99999101671ADDGF102991999999999999999999
0029875850999991931042512004-34583-058317FM-12+002599999V02099999999999999999N9999999N9+01611+99999101631ADDGF107991999999999999999999
0029875850999991931042612004-34583-058317FM-12+002599999V0201401N002619999999N9999999N9+01391+99999101741ADDGF104991999999999999999999
0029875850999991931042712004-34583-058317FM-12+002599999V0200501N009319999999N9999999N9+01501+99999101221ADDGF107991999999999999999999
0029875850999991931042812004-34583-058317FM-12+002599999V0202301N002619999999N9999999N9+01111+99999101511ADDGF100991999999999999999999
0029875850999991931042912004-34583-058317FM-12+002599999V0201401N002619999999N9999999N9+01221+99999101111ADDGF107991999999999999999999
0029875850999991931043012004-34583-058317FM-12+002599999V0201401N002619999999N9999999N9+01221+99999101351ADDGF107991999999999999999999
0029875850999991931050112004-34583-058317FM-12+002599999V0201401N002619999999N9999999N9+01111+99999101241ADDGF107991999999999999999999
0029875850999991931050212004-34583-058317FM-12+002599999V0201801N002619999999N9999999N9+00721+99999102161ADDGF102991999999999999999999
0029875850999991931050312004-34583-058317FM-12+002599999V0202701N002619999999N9999999N9+00781+99999101621ADDGF100991999999999999999999
0000875850999991931050412004-34583-058317FM-12+002599999V0202301N002619999999N9999999N9+00501+99999101781
0029875850999991931050512004-34583-058317FM-12+002599999V0202301N002619999999N9999999N9+00391+99999101681ADDGF100991999999999999999999
0029875850999991931050612004-34583-058317FM-12+002599999V0209991C000019999999N9999999N9+00721+99999101941ADDGF102991999999999999999999
0029875850999991931050712004-34583-058317FM-12+002599999V0203601N002619999999N9999999N9+01221+99999102081ADDGF100991999999999999999999
0029875850999991931050812004-34583-058317FM-12+002599999V0203201N009319999999N9999999N9+01111+99999102001ADDGF107991999999999999999999
0029875850999991931050912004-34583-058317FM-12+002599999V0203601N019019999999N9999999N9+01281+99999101661ADDGF107991999999999999999999
0029875850999991931051112004-34583-058317FM-12+002599999V0200501N002619999999N9999999N9+01001+99999102101ADDGF107991999999999999999999
0029875850999991931051212004-34583-058317FM-12+002599999V0201401N002619999999N9999999N9+00781+99999102421ADDGF107991999999999999999999
0029875850999991931051312004-34583-058317FM-12+002599999V0201401N002619999999N9999999N9+00501+99999102801ADDGF100991999999999999999999
0029875850999991931051412004-34583-058317FM-12+002599999V0201401N002619999999N9999999N9+00501+99999102941ADDGF107991999999999999999999
0029875850999991931051512004-34583-058317FM-12+002599999V0209991C000019999999N9999999N9+00221+99999103111ADDGF102991999999999999999999
0029875850999991931051612004-34583-058317FM-12+002599999V0209991C000019999999N9999999N9+00221+99999102981ADDGF102991999999999999999999
0029875850999991931051712004-34583-058317FM-12+002599999V0209991C000019999999N9999999N9+00391+99999102741ADDGF107991999999999999999999
0000875850999991931051812004-34583-058317FM-12+002599999V0203201N002619999999N9999999N9+00611+99999102381
0029875850999991931051912004-34583-058317FM-12+002599999V0209991C000019999999N9999999N9+00501+99999101641ADDGF100991999999999999999999
0029875850999991931052012004-34583-058317FM-12+002599999V0201801N002619999999N9999999N9+00721+99999101621ADDGF102991999999999999999999
0029875850999991931052112004-34583-058317FM-12+002599999V0203201N002619999999N9999999N9+00391+99999101631ADDGF104991999999999999999999
0029875850999991931052212004-34583-058317FM-12+002599999V0203201N002619999999N9999999N9+01111+99999101631ADDGF107991999999999999999999
0029875850999991931052312004-34583-058317FM-12+002599999V0202301N002619999999N9999999N9+01111+99999101241ADDGF107991999999999999999999
0029875850999991931052412004-34583-058317FM-12+002599999V0201801N002619999999N9999999N9+00501+99999102311ADDGF102991999999999999999999
0029875850999991931052512004-34583-058317FM-12+002599999V0209991C000019999999N9999999N9+00391+99999103221ADDGF100991999999999999999999
0029875850999991931052612004-34583-058317FM-12+002599999V0200501N002619999999N9999999N9+00781+99999103121ADDGF102991999999999999999999
0029875850999991931052712004-34583-058317FM-12+002599999V0203601N002619999999N9999999N9+01111+99999102801ADDGF107991999999999999999999
0029875850999991931052812004-34583-058317FM-12+002599999V0200501N002619999999N9999999N9+01221+99999102221ADDGF104991999999999999999999
0029875850999991931052912004-34583-058317FM-12+002599999V0203201N002619999999N9999999N9+01501+99999101421ADDGF107991999999999999999999
0029875850999991931053012004-34583-058317FM-12+002599999V0201401N002619999999N9999999N9+01391+99999101911ADDGF102991999999999999999999
0029875850999991931060112004-34583-058317FM-12+002599999V0201401N002619999999N9999999N9+00501+99999103021ADDGF107991999999999999999999
0029875850999991931060212004-34583-058317FM-12+002599999V0200901N002619999999N9999999N9+00891+99999102901ADDGF102991999999999999999999
0029875850999991931060312004-34583-058317FM-12+002599999V0203601N002619999999N9999999N9+01001+99999999999ADDGF107991999999999999999999
0029875850999991931060512004-34583-058317FM-12+002599999V0202301N002619999999N9999999N9+01221+99999101521ADDGF107991999999999999999999
0029875850999991931060612004-34583-058317FM-12+002599999V0201401N002619999999N9999999N9+00781+99999102321ADDGF107991999999999999999999
0029875850999991931060712004-34583-058317FM-12+002599999V0201401N002619999999N9999999N9+00391+99999103191ADDGF107991999999999999999999
0029875850999991931060812004-34583-058317FM-12+002599999V0200501N019019999999N9999999N9+00391+99999103191ADDGF100991999999999999999999
0029875850999991931060912004-34583-058317FM-12+002599999V0209991C000019999999N9999999N9+00001+99999103241ADDGF101991999999999999999999
0029875850999991931061012004-34583-058317FM-12+002599999V0209991C000019999999N9999999N9+00221+99999102861ADDGF102991999999999999999999
0029875850999991931061112004-34583-058317FM-12+002599999V0203201N002619999999N9999999N9+01001+99999101781ADDGF102991999999999999999999
0029875850999991931061212004-34583-058317FM-12+002599999V0201801N009319999999N9999999N9+00721+99999101671ADDGF102991999999999999999999
0029875850999991931061312004-34583-058317FM-12+002599999V0201801N002619999999N9999999N9+00391+99999103031ADDGF107991999999999999999999
0029875850999991931061512004-34583-058317FM-12+002599999V0209991C000019999999N9999999N9+00001+99999103041ADDGF102991999999999999999999
0029875850999991931061612004-34583-058317FM-12+002599999V0209991C000019999999N9999999N9+00001+99999102671ADDGF100991999999999999999999
0029875850999991931061712004-34583-058317FM-12+002599999V0209991C000019999999N9999999N9+00001+99999102321ADDGF107991999999999999999999
0029875850999991931061812004-34583-058317FM-12+002599999V0209991C000019999999N9999999N9+00611+99999102151ADDGF102991999999999999999999
0029875850999991931061912004-34583-058317FM-12+002599999V0202701N002619999999N9999999N9+00221+99999102381ADDGF102991999999999999999999
0029875850999991931062012004-34583-058317FM-12+002599999V0203201N002619999999N9999999N9+00721+99999102151ADDGF102991999999999999999999
0029875850999991931062112004-34583-058317FM-12+002599999V0201401N002619999999N9999999N9+01001+99999101061ADDGF107991999999999999999999
0029875850999991931062212004-34583-058317FM-12+002599999V0201801N009319999999N9999999N9+00781+99999101101ADDGF107991999999999999999999
0029875850999991931062312004-34583-058317FM-12+002599999V0200501N002619999999N9999999N9+00281+99999101921ADDGF102991999999999999999999
0029875850999991931062412004-34583-058317FM-12+002599999V0203201N002619999999N9999999N9+00891+99999101661ADDGF107991999999999999999999
0029875850999991931062512004-34583-058317FM-12+002599999V0203601N002619999999N9999999N9+01111+99999100631ADDGF102991999999999999999999
0029875850999991931062612004-34583-058317FM-12+002599999V0202301N002619999999N9999999N9+00721+99999101061ADDGF107991999999999999999999
0029875850999991931062712004-34583-058317FM-12+002599999V0202701N002619999999N9999999N9+00001+99999102441ADDGF100991999999999999999999
0029875850999991931062812004-34583-058317FM-12+002599999V0209991C000019999999N9999999N9+00001+99999102681ADDGF102991999999999999999999
0029875850999991931062912004-34583-058317FM-12+002599999V0203201N009319999999N9999999N9+00391+99999102261ADDGF100991999999999999999999
0029875850999991931063012004-34583-058317FM-12+002599999V0203601N002619999999N9999999N9+00611+99999101351ADDGF102991999999999999999999
0000875850999991931070112004-34583-058317FM-12+002599999V0203601N002619999999N9999999N9+01001+99999100831
0029875850999991931070212004-34583-058317FM-12+002599999V0209991C000019999999N9999999N9+00221+99999101841ADDGF102991999999999999999999
0029875850999991931070312004-34583-058317FM-12+002599999V0201401N002619999999N9999999N9+00391+99999102301ADDGF107991999999999999999999
0035875850999991931070412004-34583-058317FM-12+002599999V0209991C000019999999N9999999N9+00221+99999102681ADDGF100991999999999999999999MW1111
0029875850999991931070512004-34583-058317FM-12+002599999V0203201N002619999999N9999999N9+00221+99999102661ADDGF100991999999999999999999
0029875850999991931070712004-34583-058317FM-12+002599999V0209991C000019999999N9999999N9+00611+99999101791ADDGF107991999999999999999999
0029875850999991931070812004-34583-058317FM-12+002599999V0209991C000019999999N9999999N9+00111+99999101721ADDGF102991999999999999999999
0029875850999991931071012004-34583-058317FM-12+002599999V0202301N002619999999N9999999N9+00611+99999101661ADDGF100991999999999999999999
0029875850999991931071112004-34583-058317FM-12+002599999V0209991C000019999999N9999999N9+00111+99999102441ADDGF107991999999999999999999
0029875850999991931071212004-34583-058317FM-12+002599999V0200501N002619999999N9999999N9+00721+99999102041ADDGF102991999999999999999999
0029875850999991931071312004-34583-058317FM-12+002599999V0209991C000019999999N9999999N9+00721+99999102471ADDGF102991999999999999999999
0029875850999991931071412004-34583-058317FM-12+002599999V0200501N002619999999N9999999N9+01281+99999101671ADDGF107991999999999999999999
0000875850999991931071512004-34583-058317FM-12+002599999V02099999999999999999N9999999N9+01781+99999101031
0029875850999991931071612004-34583-058317FM-12+002599999V0201401N002619999999N9999999N9+01281+99999101711ADDGF102991999999999999999999
0029875850999991931071712004-34583-058317FM-12+002599999V0201401N002619999999N9999999N9+01501+99999100901ADDGF107991999999999999999999
0029875850999991931071812004-34583-058317FM-12+002599999V0202701N002619999999N9999999N9+01111+99999101431ADDGF107991999999999999999999
0029875850999991931071912004-34583-058317FM-12+002599999V0200501N002619999999N9999999N9+00781+99999101621ADDGF101991999999999999999999
0029875850999991931072012004-34583-058317FM-12+002599999V0203201N002619999999N9999999N9+01781+99999101021ADDGF107991999999999999999999
0029875850999991931072112004-34583-058317FM-12+002599999V0201401N002619999999N9999999N9+01221+99999102301ADDGF107991999999999999999999
0029875850999991931072212004-34583-058317FM-12+002599999V0209991C000019999999N9999999N9+01281+99999100831ADDGF107991999999999999999999
0029875850999991931072312004-34583-058317FM-12+002599999V0201801N002619999999N9999999N9+00891+99999101311ADDGF107991999999999999999999
0029875850999991931072412004-34583-058317FM-12+002599999V0209991C000019999999N9999999N9+00001+99999102201ADDGF100991999999999999999999
0029875850999991931072512004-34583-058317FM-12+002599999V0202701N002619999999N9999999N9+00221+99999102181ADDGF102991999999999999999999
0029875850999991931072612004-34583-058317FM-12+002599999V0209991C000019999999N9999999N9+00391+99999102081ADDGF107991999999999999999999
0029875850999991931072712004-34583-058317FM-12+002599999V0209991C000019999999N9999999N9-00111+99999102751ADDGF107991999999999999999999
0029875850999991931072812004-34583-058317FM-12+002599999V0209991C000019999999N9999999N9-00111+99999103031ADDGF102991999999999999999999
0029875850999991931072912004-34583-058317FM-12+002599999V0202301N002619999999N9999999N9+00281+99999103381ADDGF107991999999999999999999
0029875850999991931073012004-34583-058317FM-12+002599999V0201801N002619999999N9999999N9+00001+99999103751ADDGF102991999999999999999999
0029875850999991931073112004-34583-058317FM-12+002599999V0200501N002619999999N9999999N9+00501+99999103701ADDGF107991999999999999999999
0029875850999991931080112004-34583-058317FM-12+002599999V0200501N002619999999N9999999N9+00891+99999102881ADDGF102991999999999999999999
0029875850999991931080212004-34583-058317FM-12+002599999V0200501N019019999999N9999999N9+01001+99999102801ADDGF107991999999999999999999
0029875850999991931080312004-34583-058317FM-12+002599999V0200501N002619999999N9999999N9+01221+99999101911ADDGF107991999999999999999999
0029875850999991931080412004-34583-058317FM-12+002599999V0200501N002619999999N9999999N9+01281+99999100471ADDGF107991999999999999999999
0029875850999991931080512004-34583-058317FM-12+002599999V0203201N002619999999N9999999N9+00611+99999101561ADDGF100991999999999999999999
0029875850999991931080612004-34583-058317FM-12+002599999V0202301N002619999999N9999999N9+00281+99999102311ADDGF107991999999999999999999
0029875850999991931080712004-34583-058317FM-12+002599999V0202301N002619999999N9999999N9+00391+99999102601ADDGF107991999999999999999999
0029875850999991931080812004-34583-058317FM-12+002599999V0209991C000019999999N9999999N9+00281+99999103081ADDGF100991999999999999999999
0029875850999991931080912004-34583-058317FM-12+002599999V0202301N002619999999N9999999N9+00501+99999103221ADDGF100991999999999999999999
0029875850999991931081012004-34583-058317FM-12+002599999V0200501N002619999999N9999999N9+00781+99999103081ADDGF107991999999999999999999
0029875850999991931081112004-34583-058317FM-12+002599999V0200901N002619999999N9999999N9+00611+99999102981ADDGF108991999999999999999999
0000875850999991931081212004-34583-058317FM-12+002599999V0200501N002619999999N9999999N9+00781+99999102361
0029875850999991931081312004-34583-058317FM-12+002599999V0200501N002619999999N9999999N9+01001+99999101231ADDGF107991999999999999999999
0000875850999991931081412004-34583-058317FM-12+002599999V0201401N002619999999N9999999N9+00891+99999101141
0000875850999991931081512004-34583-058317FM-12+002599999V0209991C000019999999N9999999N9+00781+99999101791
0029875850999991931081712004-34583-058317FM-12+002599999V0202301N002619999999N9999999N9+01391+99999100941ADDGF107991999999999999999999
0029875850999991931081812004-34583-058317FM-12+002599999V0202301N002619999999N9999999N9+00721+99999103001ADDGF107991999999999999999999
0029875850999991931081912004-34583-058317FM-12+002599999V0200901N002619999999N9999999N9+01001+99999102821ADDGF107991999999999999999999
0029875850999991931082012004-34583-058317FM-12+002599999V0200501N002619999999N9999999N9+01221+99999102001ADDGF101991999999999999999999
0029875850999991931082112004-34583-058317FM-12+002599999V0209991C000019999999N9999999N9+01281+99999101621ADDGF104991999999999999999999
0029875850999991931082212004-34583-058317FM-12+002599999V0201401N002619999999N9999999N9+01501+99999101781ADDGF107991999999999999999999
0029875850999991931082312004-34583-058317FM-12+002599999V0200501N019019999999N9999999N9+01221+99999101981ADDGF107991999999999999999999
0000875850999991931082412004-34583-058317FM-12+002599999V0201401N002619999999N9999999N9+01501+99999101841
0029875850999991931082512004-34583-058317FM-12+002599999V0201401N002619999999N9999999N9+01391+99999101681ADDGF107991999999999999999999
0029875850999991931082612004-34583-058317FM-12+002599999V0203201N002619999999N9999999N9+01391+99999100061ADDGF108991999999999999999999
0029875850999991931082712004-34583-058317FM-12+002599999V0202701N002619999999N9999999N9+01111+99999101141ADDGF101991999999999999999999
0029875850999991931082812004-34583-058317FM-12+002599999V0203601N009319999999N9999999N9+01391+99999100641ADDGF104991999999999999999999
0029875850999991931082912004-34583-058317FM-12+002599999V0202301N002619999999N9999999N9+00721+99999102161ADDGF107991999999999999999999
0029875850999991931083012004-34583-058317FM-12+002599999V0209991C000019999999N9999999N9+00501+99999103241ADDGF101991999999999999999999
0029875850999991931083112004-34583-058317FM-12+002599999V0203201N002619999999N9999999N9+00891+99999102911ADDGF100991999999999999999999
0029875850999991931090112004-34583-058317FM-12+002599999V0203601N002619999999N9999999N9+01221+99999102541ADDGF100991999999999999999999
0029875850999991931090212004-34583-058317FM-12+002599999V0200501N002619999999N9999999N9+01501+99999102111ADDGF102991999999999999999999
0029875850999991931090312004-34583-058317FM-12+002599999V0201401N002619999999N9999999N9+01001+99999101681ADDGF100991999999999999999999
0029875850999991931090412004-34583-058317FM-12+002599999V0202301N002619999999N9999999N9+00721+99999102311ADDGF107991999999999999999999
0029875850999991931090512004-34583-058317FM-12+002599999V0202301N002619999999N9999999N9+00391+99999102681ADDGF102991999999999999999999
0029875850999991931090612004-34583-058317FM-12+002599999V0203201N002619999999N9999999N9+00611+99999102221ADDGF107991999999999999999999
0029875850999991931090712004-34583-058317FM-12+002599999V0203201N002619999999N9999999N9+01221+99999101761ADDGF102991999999999999999999
0029875850999991931090812004-34583-058317FM-12+002599999V0201401N002619999999N9999999N9+01501+99999101201ADDGF104991999999999999999999
0029875850999991931090912004-34583-058317FM-12+002599999V0201401N002619999999N9999999N9+01721+99999100391ADDGF107991999999999999999999
0035875850999991931091012004-34583-058317FM-12+002599999V0201401N009319999999N9999999N9+00721+99999101721ADDGF108991999999999999999999MW1401
0029875850999991931091112004-34583-058317FM-12+002599999V0201401N002619999999N9999999N9+00391+99999102721ADDGF100991999999999999999999
0029875850999991931091212004-34583-058317FM-12+002599999V0209991C000019999999N9999999N9+00721+99999102121ADDGF102991999999999999999999
0029875850999991931091312004-34583-058317FM-12+002599999V0202301N002619999999N9999999N9+00891+99999101961ADDGF102991999999999999999999
0029875850999991931091412004-34583-058317FM-12+002599999V0201401N002619999999N9999999N9+00781+99999102671ADDGF107991999999999999999999
0029875850999991931091512004-34583-058317FM-12+002599999V0203201N002619999999N9999999N9+00891+99999102981ADDGF107991999999999999999999
0029875850999991931091612004-34583-058317FM-12+002599999V0201401N002619999999N9999999N9+00781+99999102981ADDGF107991999999999999999999
0029875850999991931091712004-34583-058317FM-12+002599999V0201801N002619999999N9999999N9+00721+99999103181ADDGF107991999999999999999999
0029875850999991931091812004-34583-058317FM-12+002599999V0201401N002619999999N9999999N9+00611+99999103041ADDGF107991999999999999999999
0029875850999991931091912004-34583-058317FM-12+002599999V0201401N002619999999N9999999N9+00891+99999102751ADDGF107991999999999999999999
0029875850999991931092012004-34583-058317FM-12+002599999V0201801N002619999999N9999999N9+00891+99999102951ADDGF100991999999999999999999
0029875850999991931092112004-34583-058317FM-12+002599999V0203601N002619999999N9999999N9+01221+99999103031ADDGF107991999999999999999999
0029875850999991931092212004-34583-058317FM-12+002599999V0200501N002619999999N9999999N9+01281+99999103191ADDGF100991999999999999999999
0029875850999991931092312004-34583-058317FM-12+002599999V0203601N002619999999N9999999N9+01391+99999102721ADDGF102991999999999999999999
0029875850999991931092412004-34583-058317FM-12+002599999V0209991C000019999999N9999999N9+01781+99999102901ADDGF102991999999999999999999
0029875850999991931092512004-34583-058317FM-12+002599999V0200901N002619999999N9999999N9+01611+99999102511ADDGF104991999999999999999999
0029875850999991931092612004-34583-058317FM-12+002599999V0201401N002619999999N9999999N9+01611+99999102151ADDGF107991999999999999999999
0029875850999991931092712004-34583-058317FM-12+002599999V0203601N002619999999N9999999N9+01281+99999101201ADDGF101991999999999999999999
0000875850999991931092812004-34583-058317FM-12+002599999V0209991C000019999999N9999999N9+01391+99999101741
0029875850999991931092912004-34583-058317FM-12+002599999V0201401N002619999999N9999999N9+01611+99999101901ADDGF107991999999999999999999
0029875850999991931093012004-34583-058317FM-12+002599999V0200501N002619999999N9999999N9+01611+99999102301ADDGF107991999999999999999999
0014875850999991931100112004-34583-058317FM-12+002599999V0200501N002619999999N9999999N9+01501+99999101621ADDAA124001091
0029875850999991931100212004-34583-058317FM-12+002599999V0209991C000019999999N9999999N9+01281+99999101311ADDGF101991999999999999999999
0029875850999991931100312004-34583-058317FM-12+002599999V0201401N002619999999N9999999N9+01391+99999101201ADDGF107991999999999999999999
0029875850999991931100412004-34583-058317FM-12+002599999V0209991C000019999999N9999999N9+01611+99999101201ADDGF107991999999999999999999
0029875850999991931100512004-34583-058317FM-12+002599999V0203601N002619999999N9999999N9+01611+99999102071ADDGF107991999999999999999999
0029875850999991931100612004-34583-058317FM-12+002599999V0200901N002619999999N9999999N9+01611+99999102241ADDGF107991999999999999999999
0029875850999991931100712004-34583-058317FM-12+002599999V0203201N002619999999N9999999N9+01611+99999101381ADDGF101991999999999999999999
0029875850999991931100812004-34583-058317FM-12+002599999V0201401N002619999999N9999999N9+01781+99999102141ADDGF100991999999999999999999
0029875850999991931100912004-34583-058317FM-12+002599999V0201801N002619999999N9999999N9+01501+99999102271ADDGF102991999999999999999999
0029875850999991931101012004-34583-058317FM-12+002599999V0201401N002619999999N9999999N9+01281+99999102551ADDGF107991999999999999999999
0029875850999991931101112004-34583-058317FM-12+002599999V0200501N002619999999N9999999N9+01391+99999102541ADDGF107991999999999999999999
0029875850999991931101212004-34583-058317FM-12+002599999V0200501N002619999999N9999999N9+01611+99999101921ADDGF107991999999999999999999
0029875850999991931101312004-34583-058317FM-12+002599999V0202301N002619999999N9999999N9+01281+99999101421ADDGF107991999999999999999999
0000875850999991931101412004-34583-058317FM-12+002599999V0200701N999999999999N9999999N9+99999+99999095061
0029875850999991931101512004-34583-058317FM-12+002599999V0203201N002619999999N9999999N9+01781+99999101481ADDGF102991999999999999999999
0029875850999991931101612004-34583-058317FM-12+002599999V0203201N002619999999N9999999N9+02001+99999101111ADDGF100991999999999999999999
0029875850999991931101712004-34583-058317FM-12+002599999V0201401N002619999999N9999999N9+01281+99999101921ADDGF107991999999999999999999
0029875850999991931101812004-34583-058317FM-12+002599999V0201401N002619999999N9999999N9+01501+99999101671ADDGF107991999999999999999999
0029875850999991931101912004-34583-058317FM-12+002599999V0202301N002619999999N9999999N9+01501+99999102321ADDGF100991999999999999999999
0029875850999991931102012004-34583-058317FM-12+002599999V0200901N002619999999N9999999N9+01221+99999103111ADDGF100991999999999999999999
0029875850999991931102112004-34583-058317FM-12+002599999V0203601N002619999999N9999999N9+01391+99999102401ADDGF102991999999999999999999
0029875850999991931102212004-34583-058317FM-12+002599999V0203601N002619999999N9999999N9+01891+99999101391ADDGF107991999999999999999999
0029875850999991931102312004-34583-058317FM-12+002599999V0201401N002619999999N9999999N9+01891+99999101401ADDGF102991999999999999999999
0000875850999991931102412004-34583-058317FM-12+002599999V0201401N002619999999N9999999N9+01721+99999101381
0029875850999991931102512004-34583-058317FM-12+002599999V0202301N009319999999N9999999N9+01611+99999101721ADDGF100991999999999999999999
0029875850999991931102612004-34583-058317FM-12+002599999V0203601N002619999999N9999999N9+02281+99999101801ADDGF102991999999999999999999
0029875850999991931102712004-34583-058317FM-12+002599999V0203601N002619999999N9999999N9+02111+99999101241ADDGF107991999999999999999999
0029875850999991931102812004-34583-058317FM-12+002599999V0200901N002619999999N9999999N9+02111+99999101101ADDGF107991999999999999999999
0000875850999991931102912004-34583-058317FM-12+002599999V0200501N002619999999N9999999N9+02001+99999101181
0029875850999991931103012004-34583-058317FM-12+002599999V0209991C000019999999N9999999N9+02611+99999101261ADDGF100991999999999999999999
0029875850999991931103112004-34583-058317FM-12+002599999V0209991C000019999999N9999999N9+02611+99999100841ADDGF107991999999999999999999
0029875850999991931110112004-34583-058317FM-12+002599999V0201401N002619999999N9999999N9+01781+99999101221ADDGF107991999999999999999999
0029875850999991931110212004-34583-058317FM-12+002599999V0203201N002619999999N9999999N9+01721+99999100921ADDGF102991999999999999999999
0029875850999991931110312004-34583-058317FM-12+002599999V0203201N002619999999N9999999N9+02111+99999100281ADDGF104991999999999999999999
0000875850999991931110412004-34583-058317FM-12+002599999V0201401N002619999999N9999999N9+01501+99999101321
0029875850999991931110512004-34583-058317FM-12+002599999V0203201N002619999999N9999999N9+01721+99999101671ADDGF102991999999999999999999
0029875850999991931110612004-34583-058317FM-12+002599999V0200501N002619999999N9999999N9+02111+99999101761ADDGF107991999999999999999999
0029875850999991931110712004-34583-058317FM-12+002599999V0202301N002619999999N9999999N9+01721+99999100671ADDGF107991999999999999999999
0040875850999991931110812004-34583-058317FM-12+002599999V0201401N009319999999N9999999N9+01001+99999101361ADDAA124004091GF107991999999999999999999
0029875850999991931110912004-34583-058317FM-12+002599999V0202301N002619999999N9999999N9+01001+99999102511ADDGF107991999999999999999999
0029875850999991931111012004-34583-058317FM-12+002599999V0203201N002619999999N9999999N9+01391+99999102601ADDGF107991999999999999999999
0029875850999991931111112004-34583-058317FM-12+002599999V0203201N002619999999N9999999N9+01721+99999102181ADDGF100991999999999999999999
0029875850999991931111212004-34583-058317FM-12+002599999V0200501N002619999999N9999999N9+02001+99999101461ADDGF102991999999999999999999
0029875850999991931111312004-34583-058317FM-12+002599999V0200501N002619999999N9999999N9+02221+99999100761ADDGF107991999999999999999999
0029875850999991931111412004-34583-058317FM-12+002599999V0203201N002619999999N9999999N9+02001+99999099941ADDGF107991999999999999999999
0029875850999991931111512004-34583-058317FM-12+002599999V0201801N009319999999N9999999N9+01221+99999100081ADDGF100991999999999999999999
0029875850999991931111612004-34583-058317FM-12+002599999V0209991C000019999999N9999999N9+01611+99999100751ADDGF100991999999999999999999
0029875850999991931111712004-34583-058317FM-12+002599999V0203601N002619999999N9999999N9+02221+99999100641ADDGF107991999999999999999999
0029875850999991931111812004-34583-058317FM-12+002599999V0202301N002619999999N9999999N9+01611+99999101381ADDGF100991999999999999999999
0029875850999991931111912004-34583-058317FM-12+002599999V0202301N002619999999N9999999N9+01501+99999101801ADDGF100991999999999999999999
0035875850999991931112012004-34583-058317FM-12+002599999V0201401N002619999999N9999999N9+01391+99999102431ADDGF100991999999999999999999MW1111
0029875850999991931112112004-34583-058317FM-12+002599999V0200501N002619999999N9999999N9+01501+99999102361ADDGF107991999999999999999999
0029875850999991931112212004-34583-058317FM-12+002599999V0203601N002619999999N9999999N9+01611+99999101461ADDGF107991999999999999999999
0029875850999991931112312004-34583-058317FM-12+002599999V0203201N002619999999N9999999N9+02001+99999101221ADDGF107991999999999999999999
0029875850999991931112412004-34583-058317FM-12+002599999V0202301N002619999999N9999999N9+02001+99999101341ADDGF100991999999999999999999
0029875850999991931112512004-34583-058317FM-12+002599999V0200901N002619999999N9999999N9+01891+99999102041ADDGF102991999999999999999999
0029875850999991931112612004-34583-058317FM-12+002599999V0203201N002619999999N9999999N9+01781+99999101671ADDGF100991999999999999999999
0029875850999991931112712004-34583-058317FM-12+002599999V0203601N002619999999N9999999N9+02281+99999101741ADDGF102991999999999999999999
0029875850999991931112812004-34583-058317FM-12+002599999V0203601N002619999999N9999999N9+02501+99999101421ADDGF100991999999999999999999
0029875850999991931112912004-34583-058317FM-12+002599999V0203601N009319999999N9999999N9+02391+99999101031ADDGF107991999999999999999999
0029875850999991931113012004-34583-058317FM-12+002599999V0201801N002619999999N9999999N9+01891+99999100901ADDGF107991999999999999999999
0029875850999991931120112004-34583-058317FM-12+002599999V0201401N002619999999N9999999N9+01891+99999101801ADDGF102991999999999999999999
0029875850999991931120212004-34583-058317FM-12+002599999V0200501N002619999999N9999999N9+01721+99999101741ADDGF107991999999999999999999
0029875850999991931120312004-34583-058317FM-12+002599999V0203201N002619999999N9999999N9+02221+99999100961ADDGF107991999999999999999999
0029875850999991931120412004-34583-058317FM-12+002599999V0201401N002619999999N9999999N9+01611+99999101581ADDGF107991999999999999999999
0029875850999991931120512004-34583-058317FM-12+002599999V0201401N002619999999N9999999N9+01721+99999101881ADDGF107991999999999999999999
0029875850999991931120612004-34583-058317FM-12+002599999V0203201N002619999999N9999999N9+02001+99999101541ADDGF102991999999999999999999
0029875850999991931120712004-34583-058317FM-12+002599999V0203201N002619999999N9999999N9+02001+99999101561ADDGF107991999999999999999999
0029875850999991931120812004-34583-058317FM-12+002599999V0203201N002619999999N9999999N9+02391+99999101431ADDGF107991999999999999999999
0029875850999991931120912004-34583-058317FM-12+002599999V0202301N002619999999N9999999N9+02281+99999101081ADDGF107991999999999999999999
0029875850999991931121012004-34583-058317FM-12+002599999V0201401N002619999999N9999999N9+01781+99999101701ADDGF107991999999999999999999
0029875850999991931121112004-34583-058317FM-12+002599999V0203601N002619999999N9999999N9+01781+99999101241ADDGF107991999999999999999999
0029875850999991931121212004-34583-058317FM-12+002599999V0200201N002619999999N9999999N9+02391+99999100641ADDGF107991999999999999999999
0029875850999991931121312004-34583-058317FM-12+002599999V0202301N002619999999N9999999N9+02111+99999101461ADDGF100991999999999999999999
0029875850999991931121412004-34583-058317FM-12+002599999V0203201N002619999999N9999999N9+02391+99999101441ADDGF102991999999999999999999
0035875850999991931121512004-34583-058317FM-12+002599999V0203201N002619999999N9999999N9+02721+99999101121ADDGF102991999999999999999999MW1111
0029875850999991931121612004-34583-058317FM-12+002599999V0203201N002619999999N9999999N9+02891+99999100841ADDGF100991999999999999999999
0029875850999991931121712004-34583-058317FM-12+002599999V0200501N002619999999N9999999N9+02891+99999100981ADDGF100991999999999999999999
0029875850999991931121812004-34583-058317FM-12+002599999V0200901N002619999999N9999999N9+02001+99999101991ADDGF107991999999999999999999
0029875850999991931121912004-34583-058317FM-12+002599999V0200501N002619999999N9999999N9+01891+99999101631ADDGF107991999999999999999999
0029875850999991931122012004-34583-058317FM-12+002599999V0201401N002619999999N9999999N9+01891+99999100761ADDGF107991999999999999999999
0029875850999991931122112004-34583-058317FM-12+002599999V0201401N002619999999N9999999N9+01781+99999101751ADDGF100991999999999999999999
0029875850999991931122212004-34583-058317FM-12+002599999V0203601N002619999999N9999999N9+02001+99999100981ADDGF107991999999999999999999
0029875850999991931122312004-34583-058317FM-12+002599999V0201401N002619999999N9999999N9+02111+99999100711ADDGF107991999999999999999999
0029875850999991931122412004-34583-058317FM-12+002599999V0201401N002619999999N9999999N9+01781+99999101641ADDGF104991999999999999999999
0029875850999991931122512004-34583-058317FM-12+002599999V0203601N002619999999N9999999N9+02111+99999101561ADDGF104991999999999999999999
0029875850999991931122612004-34583-058317FM-12+002599999V0209991C000019999999N9999999N9+02001+99999101391ADDGF107991999999999999999999
0029875850999991931122712004-34583-058317FM-12+002599999V0203201N002619999999N9999999N9+02391+99999101271ADDGF102991999999999999999999
0029875850999991931122812004-34583-058317FM-12+002599999V0201401N002619999999N9999999N9+02111+99999101561ADDGF100991999999999999999999
0000875850999991931122912004-34583-058317FM-12+002599999V0203201N002619999999N9999999N9+02111+99999101081
0029875850999991931123012004-34583-058317FM-12+002599999V0201401N002619999999N9999999N9+01781+99999101461ADDGF107991999999999999999999
0029875850999991931123112004-34583-058317FM-12+002599999V0203601N002619999999N9999999N9+02111+99999101501ADDGF104991999999999999999999
