0028990061999991931010100004+62000-033000SAO  +00004YA  V02099999999999999999N0000001N1+01851+01461999999ADDMW1001EQDQ01+104673APOSP 
0024990061999991931010101004+62000-033000SAO  +00004YA  V02099999999999999999N0000001N1+01801+01521999999ADDMA1999999101861MW1001
0024990061999991931010102004+62000-033000SAO  +00004YA  V02099999999999999999N0000001N1+01801+01521999999ADDMA1999999101861MW1001
0024990061999991931010103004+62000-033000SAO  +00004YA  V02099999999999999999N0000001N1+01801+01521999999ADDMA1999999101791MW1001
0024990061999991931010104004+62000-033000SAO  +00004YA  V02099999999999999999N0000001N1+01801+01521999999ADDMA1999999101791MW1001
0024990061999991931010105004+62000-033000SAO  +00004YA  V02099999999999999999N0000001N1+01801+01521999999ADDMA1999999101731MW1001
0024990061999991931010106004+62000-033000SAO  +00004YA  V02099999999999999999N0000001N1+01801+01521999999ADDMA1999999101691MW1001
0024990061999991931010107004+62000-033000SAO  +00004YA  V02099999999999999999N0000001N1+01801+01571999999ADDMA1999999101731MW1001
0024990061999991931010108004+62000-033000SAO  +00004YA  V02099999999999999999N0000001N1+01801+01571999999ADDMA1999999101761MW1001
0024990061999991931010109004+62000-033000SAO  +00004YA  V02099999999999999999N0000001N1+01851+01571999999ADDMA1999999101791MW1001
0024990061999991931010110004+62000-033000SAO  +00004YA  V02099999999999999999N0000001N1+01911+01571999999ADDMA1999999101901MW1001
0024990061999991931010111004+62000-033000SAO  +00004YA  V02099999999999999999N0000001N1+01961+01631999999ADDMA1999999101901MW1001
0024990061999991931010112004+62000-033000SAO  +00004YA  V02099999999999999999N0000001N1+02071+01691999999ADDMA1999999101901MW1001
0024990061999991931010113004+62000-033000SAO  +00004YA  V02099999999999999999N0000001N1+02131+01691999999ADDMA1999999101791MW1001
0024990061999991931010114004+62000-033000SAO  +00004YA  V02099999999999999999N0000001N1+02181+01691999999ADDMA1999999101691MW1001
0024990061999991931010115004+62000-033000SAO  +00004YA  V02099999999999999999N0000001N1+02071+01741999999ADDMA1999999101631MW1001
0024990061999991931010116004+62000-033000SAO  +00004YA  V02099999999999999999N0000001N1+02131+01741999999ADDMA1999999101631MW1001
0024990061999991931010117004+62000-033000SAO  +00004YA  V02099999999999999999N0000001N1+02181+01691999999ADDMA1999999101631MW1001
0024990061999991931010118004+62000-033000SAO  +00004YA  V02099999999999999999N0000001N1+02071+01741999999ADDMA1999999101691MW1001
0024990061999991931010119004+62000-033000SAO  +00004YA  V02099999999999999999N0000001N1+02021+01741999999ADDMA1999999101691MW1001
0024990061999991931010120004+62000-033000SAO  +00004YA  V02099999999999999999N0000001N1+02021+01691999999ADDMA1999999101761MW1001
0024990061999991931010121004+62000-033000SAO  +00004YA  V02099999999999999999N0000001N1+02021+01691999999ADDMA1999999101761MW1001
0024990061999991931010122004+62000-033000SAO  +00004YA  V02099999999999999999N0000001N1+02021+01691999999ADDMA1999999101791MW1001
0024990061999991931010123004+62000-033000SAO  +00004YA  V02099999999999999999N0000001N1+01961+01691999999ADDMA1999999101791MW1001
0024990061999991931010200004+62000-033000SAO  +00004YA  V02099999999999999999N0000001N1+01961+01741999999ADDMA1999999101731MW1001
0024990061999991931010201004+62000-033000SAO  +00004YA  V02099999999999999999N0000001N1+01911+01741999999ADDMA1999999101731MW1001
0024990061999991931010202004+62000-033000SAO  +00004YA  V02099999999999999999N0000001N1+01911+01741999999ADDMA1999999101691MW1001
0024990061999991931010203004+62000-033000SAO  +00004YA  V02099999999999999999N0000001N1+01851+01741999999ADDMA1999999101631MW1001
0024990061999991931010204004+62000-033000SAO  +00004YA  V02099999999999999999N0000001N1+01851+01741999999ADDMA1999999101591MW1001
0024990061999991931010205004+62000-033000SAO  +00004YA  V02099999999999999999N0000001N1+01851+01691999999ADDMA1999999101561MW1001
0024990061999991931010206004+62000-033000SAO  +00004YA  V02099999999999999999N0000001N1+01851+01691999999ADDMA1999999101561MW1001
0024990061999991931010207004+62000-033000SAO  +00004YA  V02099999999999999999N0000001N1+01851+01741999999ADDMA1999999101591MW1001
0024990061999991931010208004+62000-033000SAO  +00004YA  V02099999999999999999N0000001N1+01851+01691999999ADDMA1999999101631MW1001
0024990061999991931010209004+62000-033000SAO  +00004YA  V02099999999999999999N0000001N1+01911+01741999999ADDMA1999999101691MW1001
0024990061999991931010210004+62000-033000SAO  +00004YA  V02099999999999999999N0000001N1+02021+01741999999ADDMA1999999101761MW1001
0024990061999991931010211004+62000-033000SAO  +00004YA  V02099999999999999999N0000001N1+02071+01801999999ADDMA1999999101761MW1001
0024990061999991931010212004+62000-033000SAO  +00004YA  V02099999999999999999N0000001N1+02181+01801999999ADDMA1999999101731MW1001
0024990061999991931010213004+62000-033000SAO  +00004YA  V02099999999999999999N0000001N1+02181+01801999999ADDMA1999999101661MW1001
0024990061999991931010214004+62000-033000SAO  +00004YA  V02099999999999999999N0000001N1+02181+01741999999ADDMA1999999101561MW1001
0024990061999991931010215004+62000-033000SAO  +00004YA  V02099999999999999999N0000001N1+02131+01741999999ADDMA1999999101491MW1001
0024990061999991931010216004+62000-033000SAO  +00004YA  V02099999999999999999N0000001N1+02131+01741999999ADDMA1999999101461MW1001
0024990061999991931010217004+62000-033000SAO  +00004YA  V02099999999999999999N0000001N1+02131+01741999999ADDMA1999999101461MW1001
0024990061999991931010218004+62000-033000SAO  +00004YA  V02099999999999999999N0000001N1+02131+01741999999ADDMA1999999101491MW1001
0024990061999991931010219004+62000-033000SAO  +00004YA  V02099999999999999999N0000001N1+02071+01691999999ADDMA1999999101521MW1001
0024990061999991931010220004+62000-033000SAO  +00004YA  V02099999999999999999N0000001N1+02021+01741999999ADDMA1999999101561MW1001
0024990061999991931010221004+62000-033000SAO  +00004YA  V02099999999999999999N0000001N1+02021+01741999999ADDMA1999999101591MW1001
0024990061999991931010222004+62000-033000SAO  +00004YA  V02099999999999999999N0000001N1+02021+01741999999ADDMA1999999101631MW1001
0024990061999991931010223004+62000-033000SAO  +00004YA  V02099999999999999999N0000001N1+01961+01801999999ADDMA1999999101631MW1001
0024990061999991931010300004+62000-033000SAO  +00004YA  V02099999999999999999N0000001N1+01961+01741999999ADDMA1999999101661MW1001
0024990061999991931010301004+62000-033000SAO  +00004YA  V02099999999999999999N0000001N1+01911+01741999999ADDMA1999999101661MW1001
0024990061999991931010302004+62000-033000SAO  +00004YA  V02099999999999999999N0000001N1+01801+01691999999ADDMA1999999101661MW1001
0024990061999991931010303004+62000-033000SAO  +00004YA  V02099999999999999999N0000001N1+01801+01691999999ADDMA1999999101631MW1001
0024990061999991931010304004+62000-033000SAO  +00004YA  V02099999999999999999N0000001N1+01801+01631999999ADDMA1999999101561MW1001
0024990061999991931010305004+62000-033000SAO  +00004YA  V02099999999999999999N0000001N1+01801+01631999999ADDMA1999999101521MW1001
0024990061999991931010306004+62000-033000SAO  +00004YA  V02099999999999999999N0000001N1+01801+01631999999ADDMA1999999101521MW1001
0024990061999991931010307004+62000-033000SAO  +00004YA  V02099999999999999999N0000001N1+01851+01691999999ADDMA1999999101561MW1001
0024990061999991931010308004+62000-033000SAO  +00004YA  V02099999999999999999N0000001N1+01851+01691999999ADDMA1999999101631MW1001
0024990061999991931010309004+62000-033000SAO  +00004YA  V02099999999999999999N0000001N1+01851+01631999999ADDMA1999999101661MW1001
0024990061999991931010310004+62000-033000SAO  +00004YA  V02099999999999999999N0000001N1+01911+01691999999ADDMA1999999101731MW1001
0024990061999991931010311004+62000-033000SAO  +00004YA  V02099999999999999999N0000001N1+02071+01741999999ADDMA1999999101731MW1001
0024990061999991931010312004+62000-033000SAO  +00004YA  V02099999999999999999N0000001N1+02131+01741999999ADDMA1999999101691MW1001
0024990061999991931010313004+62000-033000SAO  +00004YA  V02099999999999999999N0000001N1+02131+01691999999ADDMA1999999101591MW1001
0024990061999991931010314004+62000-033000SAO  +00004YA  V02099999999999999999N0000001N1+02071+01691999999ADDMA1999999101491MW1001
0024990061999991931010315004+62000-033000SAO  +00004YA  V02099999999999999999N0000001N1+02131+01691999999ADDMA1999999101421MW1001
0024990061999991931010316004+62000-033000SAO  +00004YA  V02099999999999999999N0000001N1+02071+01691999999ADDMA1999999101391MW1001
0024990061999991931010317004+62000-033000SAO  +00004YA  V02099999999999999999N0000001N1+02071+01691999999ADDMA1999999101421MW1001
0024990061999991931010318004+62000-033000SAO  +00004YA  V02099999999999999999N0000001N1+02021+01691999999ADDMA1999999101391MW1001
0024990061999991931010319004+62000-033000SAO  +00004YA  V02099999999999999999N0000001N1+01911+01691999999ADDMA1999999101421MW1001
0024990061999991931010320004+62000-033000SAO  +00004YA  V02099999999999999999N0000001N1+01911+01691999999ADDMA1999999101421MW1001
0024990061999991931010321004+62000-033000SAO  +00004YA  V02099999999999999999N0000001N1+01911+01741999999ADDMA1999999101521MW1001
0024990061999991931010322004+62000-033000SAO  +00004YA  V02099999999999999999N0000001N1+01911+01691999999ADDMA1999999101561MW1001
0024990061999991931010323004+62000-033000SAO  +00004YA  V02099999999999999999N0000001N1+01911+01741999999ADDMA1999999101631MW1001
0024990061999991931010400004+62000-033000SAO  +00004YA  V02099999999999999999N0000001N1+01911+01691999999ADDMA1999999101591MW1001
0024990061999991931010401004+62000-033000SAO  +00004YA  V02099999999999999999N0000001N1+01851+01691999999ADDMA1999999101521MW1001
0024990061999991931010402004+62000-033000SAO  +00004YA  V02099999999999999999N0000001N1+01851+01631999999ADDMA1999999101491MW1001
0024990061999991931010403004+62000-033000SAO  +00004YA  V02099999999999999999N0000001N1+01801+01631999999ADDMA1999999101461MW1001
0024990061999991931010404004+62000-033000SAO  +00004YA  V02099999999999999999N0000001N1+01801+99999999999ADDMA1999999101421MW1001
0024990061999991931010405004+62000-033000SAO  +00004YA  V02099999999999999999N0000001N1+01801+01631999999ADDMA1999999101421MW1001
0024990061999991931010406004+62000-033000SAO  +00004YA  V02099999999999999999N0000001N1+01801+01631999999ADDMA1999999101391MW1001
0024990061999991931010407004+62000-033000SAO  +00004YA  V02099999999999999999N0000001N1+01801+01631999999ADDMA1999999101391MW1001
0024990061999991931010408004+62000-033000SAO  +00004YA  V02099999999999999999N0000001N1+01801+01631999999ADDMA1999999101421MW1001
0024990061999991931010409004+62000-033000SAO  +00004YA  V02099999999999999999N0000001N1+01911+01691999999ADDMA1999999101461MW1001
0024990061999991931010410004+62000-033000SAO  +00004YA  V02099999999999999999N0000001N1+02181+01741999999ADDMA1999999101561MW1001
0024990061999991931010411004+62000-033000SAO  +00004YA  V02099999999999999999N0000001N1+02351+01801999999ADDMA1999999101561MW1001
0024990061999991931010412004+62000-033000SAO  +00004YA  V02099999999999999999N0000001N1+02411+01851999999ADDMA1999999101491MW1001
0024990061999991931010413004+62000-033000SAO  +00004YA  V02099999999999999999N0000001N1+02411+01801999999ADDMA1999999101421MW1001
0024990061999991931010414004+62000-033000SAO  +00004YA  V02099999999999999999N0000001N1+02411+01851999999ADDMA1999999101321MW1001
0024990061999991931010415004+62000-033000SAO  +00004YA  V02099999999999999999N0000001N1+02351+01851999999ADDMA1999999101221MW1001
0024990061999991931010416004+62000-033000SAO  +00004YA  V02099999999999999999N0000001N1+02411+01851999999ADDMA1999999101151MW1001
0024990061999991931010417004+62000-033000SAO  +00004YA  V02099999999999999999N0000001N1+02301+01851999999ADDMA1999999101151MW1001
0024990061999991931010418004+62000-033000SAO  +00004YA  V02099999999999999999N0000001N1+02241+01801999999ADDMA1999999101191MW1001
0024990061999991931010419004+62000-033000SAO  +00004YA  V02099999999999999999N0000001N1+02181+01801999999ADDMA1999999101191MW1001
0024990061999991931010420004+62000-033000SAO  +00004YA  V02099999999999999999N0000001N1+02131+01801999999ADDMA1999999101221MW1001
0024990061999991931010421004+62000-033000SAO  +00004YA  V02099999999999999999N0000001N1+02131+01801999999ADDMA1999999101251MW1001
0024990061999991931010422004+62000-033000SAO  +00004YA  V02099999999999999999N0000001N1+02071+01851999999ADDMA1999999101291MW1001
0024990061999991931010423004+62000-033000SAO  +00004YA  V02099999999999999999N0000001N1+02021+01911999999ADDMA1999999101291MW1001
0024990061999991931010500004+62000-033000SAO  +00004YA  V02099999999999999999N0000001N1+02021+01911999999ADDMA1999999101251MW1001
0024990061999991931010501004+62000-033000SAO  +00004YA  V02099999999999999999N0000001N1+02021+01911999999ADDMA1999999101251MW1001
0024990061999991931010502004+62000-033000SAO  +00004YA  V02099999999999999999N0000001N1+02021+01911999999ADDMA1999999101221MW1001
0024990061999991931010503004+62000-033000SAO  +00004YA  V02099999999999999999N0000001N1+02021+01911999999ADDMA1999999101151MW1001
0024990061999991931010504004+62000-033000SAO  +00004YA  V02099999999999999999N0000001N1+02021+01911999999ADDMA1999999101081MW1001
0024990061999991931010505004+62000-033000SAO  +00004YA  V02099999999999999999N0000001N1+02021+01911999999ADDMA1999999101051MW1001
0024990061999991931010506004+62000-033000SAO  +00004YA  V02099999999999999999N0000001N1+02021+01911999999ADDMA1999999101021MW1001
0024990061999991931010507004+62000-033000SAO  +00004YA  V02099999999999999999N0000001N1+02021+01911999999ADDMA1999999101051MW1001
0024990061999991931010508004+62000-033000SAO  +00004YA  V02099999999999999999N0000001N1+02021+01911999999ADDMA1999999101081MW1001
0024990061999991931010509004+62000-033000SAO  +00004YA  V02099999999999999999N0000001N1+02071+01911999999ADDMA1999999101121MW1001
0024990061999991931010510004+62000-033000SAO  +00004YA  V02099999999999999999N0000001N1+02131+01961999999ADDMA1999999101151MW1001
0024990061999991931010511004+62000-033000SAO  +00004YA  V02099999999999999999N0000001N1+02181+01961999999ADDMA1999999101221MW1001
0024990061999991931010512004+62000-033000SAO  +00004YA  V02099999999999999999N0000001N1+02131+02021999999ADDMA1999999101191MW1001
0024990061999991931010513004+62000-033000SAO  +00004YA  V02099999999999999999N0000001N1+02181+02021999999ADDMA1999999101121MW1001
0024990061999991931010514004+62000-033000SAO  +00004YA  V02099999999999999999N0000001N1+02241+02071999999ADDMA1999999100981MW1001
0024990061999991931010515004+62000-033000SAO  +00004YA  V02099999999999999999N0000001N1+02301+02071999999ADDMA1999999100881MW1001
0009990061999991931010516004+62000-033000SAO  +00004YA  V02099999999999999999N0000001N1+02181+02021999999ADDMW1001
0024990061999991931010517004+62000-033000SAO  +00004YA  V02099999999999999999N0000001N1+02181+02071999999ADDMA1999999100851MW1001
0024990061999991931010518004+62000-033000SAO  +00004YA  V02099999999999999999N0000001N1+02131+02071999999ADDMA1999999100881MW1001
0024990061999991931010519004+62000-033000SAO  +00004YA  V02099999999999999999N0000001N1+02071+02071999999ADDMA1999999100911MW1001
0024990061999991931010520004+62000-033000SAO  +00004YA  V02099999999999999999N0000001N1+02071+02021999999ADDMA1999999100951MW1001
0024990061999991931010521004+62000-033000SAO  +00004YA  V02099999999999999999N0000001N1+02071+01961999999ADDMA1999999101021MW1001
0024990061999991931010522004+62000-033000SAO  +00004YA  V02099999999999999999N0000001N1+02021+01961999999ADDMA1999999101021MW1001
0024990061999991931010523004+62000-033000SAO  +00004YA  V02099999999999999999N0000001N1+02021+01961999999ADDMA1999999100981MW1001
0024990061999991931010600004+62000-033000SAO  +00004YA  V02099999999999999999N0000001N1+02021+01961999999ADDMA1999999100981MW1001
0024990061999991931010601004+62000-033000SAO  +00004YA  V02099999999999999999N0000001N1+02021+01961999999ADDMA1999999100981MW1001
0024990061999991931010602004+62000-033000SAO  +00004YA  V02099999999999999999N0000001N1+02071+01961999999ADDMA1999999100951MW1001
0024990061999991931010603004+62000-033000SAO  +00004YA  V02099999999999999999N0000001N1+02071+01961999999ADDMA1999999100951MW1001
0024990061999991931010604004+62000-033000SAO  +00004YA  V02099999999999999999N0000001N1+02071+01961999999ADDMA1999999100911MW1001
0024990061999991931010605004+62000-033000SAO  +00004YA  V02099999999999999999N0000001N1+02071+01961999999ADDMA1999999100911MW1001
0024990061999991931010606004+62000-033000SAO  +00004YA  V02099999999999999999N0000001N1+02071+02021999999ADDMA1999999100881MW1001
0024990061999991931010607004+62000-033000SAO  +00004YA  V02099999999999999999N0000001N1+02071+02021999999ADDMA1999999100951MW1001
0024990061999991931010608004+62000-033000SAO  +00004YA  V02099999999999999999N0000001N1+02131+02071999999ADDMA1999999101021MW1001
0024990061999991931010609004+62000-033000SAO  +00004YA  V02099999999999999999N0000001N1+02181+02071999999ADDMA1999999101081MW1001
0024990061999991931010610004+62000-033000SAO  +00004YA  V02099999999999999999N0000001N1+02241+02071999999ADDMA1999999101151MW1001
0024990061999991931010611004+62000-033000SAO  +00004YA  V02099999999999999999N0000001N1+02241+02071999999ADDMA1999999101191MW1001
0024990061999991931010612004+62000-033000SAO  +00004YA  V02099999999999999999N0000001N1+02351+02131999999ADDMA1999999101151MW1001
0024990061999991931010613004+62000-033000SAO  +00004YA  V02099999999999999999N0000001N1+02411+02131999999ADDMA1999999101051MW1001
0024990061999991931010614004+62000-033000SAO  +00004YA  V02099999999999999999N0000001N1+02521+02131999999ADDMA1999999100951MW1001
0024990061999991931010615004+62000-033000SAO  +00004YA  V02099999999999999999N0000001N1+02571+02131999999ADDMA1999999100851MW1001
0024990061999991931010616004+62000-033000SAO  +00004YA  V02099999999999999999N0000001N1+02571+02131999999ADDMA1999999100811MW1001
0024990061999991931010617004+62000-033000SAO  +00004YA  V02099999999999999999N0000001N1+02521+02071999999ADDMA1999999100811MW1001
0024990061999991931010618004+62000-033000SAO  +00004YA  V02099999999999999999N0000001N1+02411+02071999999ADDMA1999999100881MW1001
0024990061999991931010619004+62000-033000SAO  +00004YA  V02099999999999999999N0000001N1+02301+02071999999ADDMA1999999100911MW1001
0024990061999991931010620004+62000-033000SAO  +00004YA  V02099999999999999999N0000001N1+02301+02071999999ADDMA1999999100911MW1001
0024990061999991931010621004+62000-033000SAO  +00004YA  V02099999999999999999N0000001N1+02241+02071999999ADDMA1999999100981MW1001
0024990061999991931010622004+62000-033000SAO  +00004YA  V02099999999999999999N0000001N1+02131+02021999999ADDMA1999999101021MW1001
0024990061999991931010623004+62000-033000SAO  +00004YA  V02099999999999999999N0000001N1+02071+01961999999ADDMA1999999101081MW1001
0024990061999991931010700004+62000-033000SAO  +00004YA  V02099999999999999999N0000001N1+02071+01961999999ADDMA1999999101081MW1001
0024990061999991931010701004+62000-033000SAO  +00004YA  V02099999999999999999N0000001N1+02071+01911999999ADDMA1999999101121MW1001
0043990061999991931010702004+62000-033000SAO  +00004YA  V02099999999999999999N0000001N1+99999+99999999999ADDMA1999999101151MW1001EQDQ01+025953ATOT  
0024990061999991931010703004+62000-033000SAO  +00004YA  V02099999999999999999N0000001N1+02071+01911999999ADDMA1999999101081MW1001
0024990061999991931010704004+62000-033000SAO  +00004YA  V02099999999999999999N0000001N1+02071+01911999999ADDMA1999999101051MW1001
0024990061999991931010705004+62000-033000SAO  +00004YA  V02099999999999999999N0000001N1+02071+01911999999ADDMA1999999101021MW1001
0024990061999991931010706004+62000-033000SAO  +00004YA  V02099999999999999999N0000001N1+02071+01911999999ADDMA1999999101051MW1001
0024990061999991931010707004+62000-033000SAO  +00004YA  V02099999999999999999N0000001N1+02131+01801999999ADDMA1999999101121MW1001
0024990061999991931010708004+62000-033000SAO  +00004YA  V02099999999999999999N0000001N1+02071+01741999999ADDMA1999999101221MW1001
0024990061999991931010709004+62000-033000SAO  +00004YA  V02099999999999999999N0000001N1+02021+01691999999ADDMA1999999101321MW1001
0024990061999991931010710004+62000-033000SAO  +00004YA  V02099999999999999999N0000001N1+02021+01631999999ADDMA1999999101461MW1001
0024990061999991931010711004+62000-033000SAO  +00004YA  V02099999999999999999N0000001N1+02021+01631999999ADDMA1999999101491MW1001
0024990061999991931010712004+62000-033000SAO  +00004YA  V02099999999999999999N0000001N1+02131+01631999999ADDMA1999999101461MW1001
0024990061999991931010713004+62000-033000SAO  +00004YA  V02099999999999999999N0000001N1+02181+01461999999ADDMA1999999101391MW1001
0024990061999991931010714004+62000-033000SAO  +00004YA  V02099999999999999999N0000001N1+02241+01521999999ADDMA1999999101291MW1001
0024990061999991931010715004+62000-033000SAO  +00004YA  V02099999999999999999N0000001N1+02301+01571999999ADDMA1999999101221MW1001
0024990061999991931010716004+62000-033000SAO  +00004YA  V02099999999999999999N0000001N1+02181+01571999999ADDMA1999999101191MW1001
0024990061999991931010717004+62000-033000SAO  +00004YA  V02099999999999999999N0000001N1+02181+01631999999ADDMA1999999101221MW1001
0024990061999991931010718004+62000-033000SAO  +00004YA  V02099999999999999999N0000001N1+02071+01631999999ADDMA1999999101251MW1001
0024990061999991931010719004+62000-033000SAO  +00004YA  V02099999999999999999N0000001N1+01911+01571999999ADDMA1999999101251MW1001
0024990061999991931010720004+62000-033000SAO  +00004YA  V02099999999999999999N0000001N1+01851+01691999999ADDMA1999999101321MW1001
0024990061999991931010721004+62000-033000SAO  +00004YA  V02099999999999999999N0000001N1+01851+01691999999ADDMA1999999101351MW1001
0024990061999991931010722004+62000-033000SAO  +00004YA  V02099999999999999999N0000001N1+01851+01691999999ADDMA1999999101391MW1001
0024990061999991931010723004+62000-033000SAO  +00004YA  V02099999999999999999N0000001N1+01911+01631999999ADDMA1999999101391MW1001
0024990061999991931010800004+62000-033000SAO  +00004YA  V02099999999999999999N0000001N1+01911+01631999999ADDMA1999999101421MW1001
0024990061999991931010801004+62000-033000SAO  +00004YA  V02099999999999999999N0000001N1+01851+01691999999ADDMA1999999101421MW1001
0024990061999991931010802004+62000-033000SAO  +00004YA  V02099999999999999999N0000001N1+01801+01691999999ADDMA1999999101391MW1001
0024990061999991931010803004+62000-033000SAO  +00004YA  V02099999999999999999N0000001N1+01741+01631999999ADDMA1999999101391MW1001
0024990061999991931010804004+62000-033000SAO  +00004YA  V02099999999999999999N0000001N1+01741+01571999999ADDMA1999999101351MW1001
0024990061999991931010805004+62000-033000SAO  +00004YA  V02099999999999999999N0000001N1+01691+01521999999ADDMA1999999101351MW1001
0024990061999991931010806004+62000-033000SAO  +00004YA  V02099999999999999999N0000001N1+01691+01411999999ADDMA1999999101391MW1001
0024990061999991931010807004+62000-033000SAO  +00004YA  V02099999999999999999N0000001N1+01631+01351999999ADDMA1999999101421MW1001
0024990061999991931010808004+62000-033000SAO  +00004YA  V02099999999999999999N0000001N1+01691+01411999999ADDMA1999999101461MW1001
0024990061999991931010809004+62000-033000SAO  +00004YA  V02099999999999999999N0000001N1+01691+01351999999ADDMA1999999101561MW1001
0024990061999991931010810004+62000-033000SAO  +00004YA  V02099999999999999999N0000001N1+01851+01411999999ADDMA1999999101661MW1001
0024990061999991931010811004+62000-033000SAO  +00004YA  V02099999999999999999N0000001N1+01911+01461999999ADDMA1999999101661MW1001
0024990061999991931010812004+62000-033000SAO  +00004YA  V02099999999999999999N0000001N1+01961+01521999999ADDMA1999999101591MW1001
0024990061999991931010813004+62000-033000SAO  +00004YA  V02099999999999999999N0000001N1+02071+01461999999ADDMA1999999101491MW1001
0024990061999991931010814004+62000-033000SAO  +00004YA  V02099999999999999999N0000001N1+02071+01521999999ADDMA1999999101391MW1001
0024990061999991931010815004+62000-033000SAO  +00004YA  V02099999999999999999N0000001N1+01961+01461999999ADDMA1999999101321MW1001
0024990061999991931010816004+62000-033000SAO  +00004YA  V02099999999999999999N0000001N1+01911+01461999999ADDMA1999999101291MW1001
0024990061999991931010817004+62000-033000SAO  +00004YA  V02099999999999999999N0000001N1+01851+01411999999ADDMA1999999101321MW1001
0024990061999991931010818004+62000-033000SAO  +00004YA  V02099999999999999999N0000001N1+01851+01411999999ADDMA1999999101391MW1001
0024990061999991931010819004+62000-033000SAO  +00004YA  V02099999999999999999N0000001N1+01851+01411999999ADDMA1999999101421MW1001
0024990061999991931010820004+62000-033000SAO  +00004YA  V02099999999999999999N0000001N1+01851+01521999999ADDMA1999999101461MW1001
0024990061999991931010821004+62000-033000SAO  +00004YA  V02099999999999999999N0000001N1+01801+01411999999ADDMA1999999101491MW1001
0024990061999991931010822004+62000-033000SAO  +00004YA  V02099999999999999999N0000001N1+01801+01461999999ADDMA1999999101491MW1001
0024990061999991931010823004+62000-033000SAO  +00004YA  V02099999999999999999N0000001N1+01851+01461999999ADDMA1999999101491MW1001
0024990061999991931010900004+62000-033000SAO  +00004YA  V02099999999999999999N0000001N1+01801+01411999999ADDMA1999999101521MW1001
0024990061999991931010901004+62000-033000SAO  +00004YA  V02099999999999999999N0000001N1+01801+01351999999ADDMA1999999101521MW1001
0024990061999991931010902004+62000-033000SAO  +00004YA  V02099999999999999999N0000001N1+01741+01351999999ADDMA1999999101491MW1001
0024990061999991931010903004+62000-033000SAO  +00004YA  V02099999999999999999N0000001N1+01741+01351999999ADDMA1999999101491MW1001
0024990061999991931010904004+62000-033000SAO  +00004YA  V02099999999999999999N0000001N1+01631+01301999999ADDMA1999999101461MW1001
0024990061999991931010905004+62000-033000SAO  +00004YA  V02099999999999999999N0000001N1+01631+01301999999ADDMA1999999101491MW1001
0024990061999991931010906004+62000-033000SAO  +00004YA  V02099999999999999999N0000001N1+01631+01301999999ADDMA1999999101491MW1001
0024990061999991931010907004+62000-033000SAO  +00004YA  V02099999999999999999N0000001N1+01571+01241999999ADDMA1999999101631MW1001
0024990061999991931010908004+62000-033000SAO  +00004YA  V02099999999999999999N0000001N1+01571+01191999999ADDMA1999999101731MW1001
0024990061999991931010909004+62000-033000SAO  +00004YA  V02099999999999999999N0000001N1+01521+01131999999ADDMA1999999101791MW1001
0024990061999991931010910004+62000-033000SAO  +00004YA  V02099999999999999999N0000001N1+01461+01021999999ADDMA1999999101861MW1001
0024990061999991931010911004+62000-033000SAO  +00004YA  V02099999999999999999N0000001N1+01631+01131999999ADDMA1999999101931MW1001
0024990061999991931010912004+62000-033000SAO  +00004YA  V02099999999999999999N0000001N1+01741+01131999999ADDMA1999999101931MW1001
0024990061999991931010913004+62000-033000SAO  +00004YA  V02099999999999999999N0000001N1+01741+01071999999ADDMA1999999101831MW1001
0024990061999991931010914004+62000-033000SAO  +00004YA  V02099999999999999999N0000001N1+01631+01021999999ADDMA1999999101861MW1001
0024990061999991931010915004+62000-033000SAO  +00004YA  V02099999999999999999N0000001N1+01411+00801999999ADDMA1999999101861MW1001
0024990061999991931010916004+62000-033000SAO  +00004YA  V02099999999999999999N0000001N1+01191+00631999999ADDMA1999999101961MW1001
0024990061999991931010917004+62000-033000SAO  +00004YA  V02099999999999999999N0000001N1+00961+00581999999ADDMA1999999102071MW1001
0024990061999991931010918004+62000-033000SAO  +00004YA  V02099999999999999999N0000001N1+00911+00521999999ADDMA1999999102171MW1001
0024990061999991931010919004+62000-033000SAO  +00004YA  V02099999999999999999N0000001N1+00961+00351999999ADDMA1999999102201MW1001
0024990061999991931010920004+62000-033000SAO  +00004YA  V02099999999999999999N0000001N1+00911+00301999999ADDMA1999999102341MW1001
0024990061999991931010921004+62000-033000SAO  +00004YA  V02099999999999999999N0000001N1+00911+00241999999ADDMA1999999102441MW1001
0024990061999991931010922004+62000-033000SAO  +00004YA  V02099999999999999999N0000001N1+00851+00191999999ADDMA1999999102471MW1001
0024990061999991931010923004+62000-033000SAO  +00004YA  V02099999999999999999N0000001N1+00801-00151999999ADDMA1999999102571MW1001
0024990061999991931011000004+62000-033000SAO  +00004YA  V02099999999999999999N0000001N1+00801-00091999999ADDMA1999999102571MW1001
0024990061999991931011001004+62000-033000SAO  +00004YA  V02099999999999999999N0000001N1+00801-00091999999ADDMA1999999102541MW1001
0024990061999991931011002004+62000-033000SAO  +00004YA  V02099999999999999999N0000001N1+00741-00261999999ADDMA1999999102571MW1001
0024990061999991931011003004+62000-033000SAO  +00004YA  V02099999999999999999N0000001N1+00691-00261999999ADDMA1999999102541MW1001
0024990061999991931011004004+62000-033000SAO  +00004YA  V02099999999999999999N0000001N1+00631-00261999999ADDMA1999999102541MW1001
0024990061999991931011005004+62000-033000SAO  +00004YA  V02099999999999999999N0000001N1+00631-00261999999ADDMA1999999102471MW1001
0024990061999991931011006004+62000-033000SAO  +00004YA  V02099999999999999999N0000001N1+00631-00311999999ADDMA1999999102511MW1001
0024990061999991931011007004+62000-033000SAO  +00004YA  V02099999999999999999N0000001N1+00581-00311999999ADDMA1999999102541MW1001
0024990061999991931011008004+62000-033000SAO  +00004YA  V02099999999999999999N0000001N1+00521-00371999999ADDMA1999999102611MW1001
0024990061999991931011009004+62000-033000SAO  +00004YA  V02099999999999999999N0000001N1+00521-00371999999ADDMA1999999102641MW1001
0024990061999991931011010004+62000-033000SAO  +00004YA  V02099999999999999999N0000001N1+00691-00261999999ADDMA1999999102741MW1001
0024990061999991931011011004+62000-033000SAO  +00004YA  V02099999999999999999N0000001N1+00851-00481999999ADDMA1999999102781MW1001
0024990061999991931011012004+62000-033000SAO  +00004YA  V02099999999999999999N0000001N1+01021-00421999999ADDMA1999999102681MW1001
0024990061999991931011013004+62000-033000SAO  +00004YA  V02099999999999999999N0000001N1+01071-00311999999ADDMA1999999102541MW1001
0024990061999991931011014004+62000-033000SAO  +00004YA  V02099999999999999999N0000001N1+01191-00371999999ADDMA1999999102401MW1001
0024990061999991931011015004+62000-033000SAO  +00004YA  V02099999999999999999N0000001N1+01191-00531999999ADDMA1999999102371MW1001
0024990061999991931011016004+62000-033000SAO  +00004YA  V02099999999999999999N0000001N1+01191-00531999999ADDMA1999999102341MW1001
0024990061999991931011017004+62000-033000SAO  +00004YA  V02099999999999999999N0000001N1+01191-00371999999ADDMA1999999102371MW1001
0024990061999991931011018004+62000-033000SAO  +00004YA  V02099999999999999999N0000001N1+01191-00371999999ADDMA1999999102401MW1001
0024990061999991931011019004+62000-033000SAO  +00004YA  V02099999999999999999N0000001N1+01131-00371999999ADDMA1999999102401MW1001
0024990061999991931011020004+62000-033000SAO  +00004YA  V02099999999999999999N0000001N1+01021-00371999999ADDMA1999999102441MW1001
0024990061999991931011021004+62000-033000SAO  +00004YA  V02099999999999999999N0000001N1+01021-00311999999ADDMA1999999102471MW1001
0024990061999991931011022004+62000-033000SAO  +00004YA  V02099999999999999999N0000001N1+00961-00261999999ADDMA1999999102441MW1001
0024990061999991931011023004+62000-033000SAO  +00004YA  V02099999999999999999N0000001N1+00961-00261999999ADDMA1999999102441MW1001
0024990061999991931011100004+62000-033000SAO  +00004YA  V02099999999999999999N0000001N1+00961-00311999999ADDMA1999999102441MW1001
0024990061999991931011101004+62000-033000SAO  +00004YA  V02099999999999999999N0000001N1+01021-00311999999ADDMA1999999102401MW1001
0024990061999991931011102004+62000-033000SAO  +00004YA  V02099999999999999999N0000001N1+00911-00041999999ADDMA1999999102341MW1001
0024990061999991931011103004+62000-033000SAO  +00004YA  V02099999999999999999N0000001N1+00911-00041999999ADDMA1999999102371MW1001
0024990061999991931011104004+62000-033000SAO  +00004YA  V02099999999999999999N0000001N1+00961+00081999999ADDMA1999999102341MW1001
0024990061999991931011105004+62000-033000SAO  +00004YA  V02099999999999999999N0000001N1+00911+00021999999ADDMA1999999102301MW1001
0024990061999991931011106004+62000-033000SAO  +00004YA  V02099999999999999999N0000001N1+00961+00081999999ADDMA1999999102301MW1001
0024990061999991931011107004+62000-033000SAO  +00004YA  V02099999999999999999N0000001N1+00911+00191999999ADDMA1999999102371MW1001
0024990061999991931011108004+62000-033000SAO  +00004YA  V02099999999999999999N0000001N1+00911+00191999999ADDMA1999999102401MW1001
0024990061999991931011109004+62000-033000SAO  +00004YA  V02099999999999999999N0000001N1+00961+00191999999ADDMA1999999102401MW1001
0024990061999991931011110004+62000-033000SAO  +00004YA  V02099999999999999999N0000001N1+01191+00301999999ADDMA1999999102471MW1001
0024990061999991931011111004+62000-033000SAO  +00004YA  V02099999999999999999N0000001N1+01241+00351999999ADDMA1999999102471MW1001
0024990061999991931011112004+62000-033000SAO  +00004YA  V02099999999999999999N0000001N1+01301+00351999999ADDMA1999999102401MW1001
0024990061999991931011113004+62000-033000SAO  +00004YA  V02099999999999999999N0000001N1+01301+00411999999ADDMA1999999102301MW1001
0024990061999991931011114004+62000-033000SAO  +00004YA  V02099999999999999999N0000001N1+01351+00411999999ADDMA1999999102171MW1001
0024990061999991931011115004+62000-033000SAO  +00004YA  V02099999999999999999N0000001N1+01351+00461999999ADDMA1999999102101MW1001
0024990061999991931011116004+62000-033000SAO  +00004YA  V02099999999999999999N0000001N1+01301+00461999999ADDMA1999999102031MW1001
0024990061999991931011117004+62000-033000SAO  +00004YA  V02099999999999999999N0000001N1+01351+00581999999ADDMA1999999102071MW1001
0024990061999991931011118004+62000-033000SAO  +00004YA  V02099999999999999999N0000001N1+01301+00581999999ADDMA1999999102101MW1001
0024990061999991931011119004+62000-033000SAO  +00004YA  V02099999999999999999N0000001N1+01301+00581999999ADDMA1999999102101MW1001
0024990061999991931011120004+62000-033000SAO  +00004YA  V02099999999999999999N0000001N1+01351+00631999999ADDMA1999999102131MW1001
0024990061999991931011121004+62000-033000SAO  +00004YA  V02099999999999999999N0000001N1+01351+00691999999ADDMA1999999102171MW1001
0024990061999991931011122004+62000-033000SAO  +00004YA  V02099999999999999999N0000001N1+01411+00691999999ADDMA1999999102171MW1001
0024990061999991931011123004+62000-033000SAO  +00004YA  V02099999999999999999N0000001N1+01411+00741999999ADDMA1999999102201MW1001
0024990061999991931011200004+62000-033000SAO  +00004YA  V02099999999999999999N0000001N1+01411+00741999999ADDMA1999999102201MW1001
0024990061999991931011201004+62000-033000SAO  +00004YA  V02099999999999999999N0000001N1+01411+00801999999ADDMA1999999102241MW1001
0024990061999991931011202004+62000-033000SAO  +00004YA  V02099999999999999999N0000001N1+01411+00801999999ADDMA1999999102241MW1001
0024990061999991931011203004+62000-033000SAO  +00004YA  V02099999999999999999N0000001N1+01411+00801999999ADDMA1999999102201MW1001
0024990061999991931011204004+62000-033000SAO  +00004YA  V02099999999999999999N0000001N1+01351+00801999999ADDMA1999999102201MW1001
0024990061999991931011205004+62000-033000SAO  +00004YA  V02099999999999999999N0000001N1+01301+00741999999ADDMA1999999102201MW1001
0024990061999991931011206004+62000-033000SAO  +00004YA  V02099999999999999999N0000001N1+01241+00691999999ADDMA1999999102201MW1001
0024990061999991931011207004+62000-033000SAO  +00004YA  V02099999999999999999N0000001N1+01191+00631999999ADDMA1999999102241MW1001
0024990061999991931011208004+62000-033000SAO  +00004YA  V02099999999999999999N0000001N1+01071+00581999999ADDMA1999999102341MW1001
0024990061999991931011209004+62000-033000SAO  +00004YA  V02099999999999999999N0000001N1+01021+00521999999ADDMA1999999102441MW1001
0024990061999991931011210004+62000-033000SAO  +00004YA  V02099999999999999999N0000001N1+01021+00351999999ADDMA1999999102511MW1001
0024990061999991931011211004+62000-033000SAO  +00004YA  V02099999999999999999N0000001N1+01021+00351999999ADDMA1999999102541MW1001
0024990061999991931011212004+62000-033000SAO  +00004YA  V02099999999999999999N0000001N1+01241+00461999999ADDMA1999999102401MW1001
0024990061999991931011213004+62000-033000SAO  +00004YA  V02099999999999999999N0000001N1+01241+00461999999ADDMA1999999102341MW1001
0024990061999991931011214004+62000-033000SAO  +00004YA  V02099999999999999999N0000001N1+01351+00521999999ADDMA1999999102201MW1001
0024990061999991931011215004+62000-033000SAO  +00004YA  V02099999999999999999N0000001N1+01411+00521999999ADDMA1999999102131MW1001
0024990061999991931011216004+62000-033000SAO  +00004YA  V02099999999999999999N0000001N1+01411+00521999999ADDMA1999999102071MW1001
0024990061999991931011217004+62000-033000SAO  +00004YA  V02099999999999999999N0000001N1+01411+00521999999ADDMA1999999102071MW1001
0024990061999991931011218004+62000-033000SAO  +00004YA  V02099999999999999999N0000001N1+01351+00461999999ADDMA1999999102131MW1001
0024990061999991931011219004+62000-033000SAO  +00004YA  V02099999999999999999N0000001N1+01241+00301999999ADDMA1999999102241MW1001
0024990061999991931011220004+62000-033000SAO  +00004YA  V02099999999999999999N0000001N1+01131+00241999999ADDMA1999999102301MW1001
0024990061999991931011221004+62000-033000SAO  +00004YA  V02099999999999999999N0000001N1+01071+00191999999ADDMA1999999102341MW1001
0024990061999991931011222004+62000-033000SAO  +00004YA  V02099999999999999999N0000001N1+01021+00241999999ADDMA1999999102371MW1001
0024990061999991931011223004+62000-033000SAO  +00004YA  V02099999999999999999N0000001N1+01071+00241999999ADDMA1999999102441MW1001
0024990061999991931011300004+62000-033000SAO  +00004YA  V02099999999999999999N0000001N1+01071+00241999999ADDMA1999999102471MW1001
0024990061999991931011301004+62000-033000SAO  +00004YA  V02099999999999999999N0000001N1+01021+00191999999ADDMA1999999102511MW1001
0024990061999991931011302004+62000-033000SAO  +00004YA  V02099999999999999999N0000001N1+00911+00301999999ADDMA1999999102541MW1001
0024990061999991931011303004+62000-033000SAO  +00004YA  V02099999999999999999N0000001N1+00911+00301999999ADDMA1999999102511MW1001
0024990061999991931011304004+62000-033000SAO  +00004YA  V02099999999999999999N0000001N1+00851+00301999999ADDMA1999999102511MW1001
0024990061999991931011305004+62000-033000SAO  +00004YA  V02099999999999999999N0000001N1+00741+00191999999ADDMA1999999102511MW1001
0024990061999991931011306004+62000-033000SAO  +00004YA  V02099999999999999999N0000001N1+00741+00131999999ADDMA1999999102611MW1001
0024990061999991931011307004+62000-033000SAO  +00004YA  V02099999999999999999N0000001N1+00691+00021999999ADDMA1999999102681MW1001
0024990061999991931011308004+62000-033000SAO  +00004YA  V02099999999999999999N0000001N1+00631+00021999999ADDMA1999999102741MW1001
0024990061999991931011309004+62000-033000SAO  +00004YA  V02099999999999999999N0000001N1+00631+00021999999ADDMA1999999102841MW1001
0024990061999991931011310004+62000-033000SAO  +00004YA  V02099999999999999999N0000001N1+00741+00081999999ADDMA1999999102951MW1001
0024990061999991931011311004+62000-033000SAO  +00004YA  V02099999999999999999N0000001N1+00911+00081999999ADDMA1999999102911MW1001
0024990061999991931011312004+62000-033000SAO  +00004YA  V02099999999999999999N0000001N1+01021+00081999999ADDMA1999999102811MW1001
0024990061999991931011313004+62000-033000SAO  +00004YA  V02099999999999999999N0000001N1+00961+00081999999ADDMA1999999102711MW1001
0024990061999991931011314004+62000-033000SAO  +00004YA  V02099999999999999999N0000001N1+01021+00131999999ADDMA1999999102611MW1001
0024990061999991931011315004+62000-033000SAO  +00004YA  V02099999999999999999N0000001N1+01021+00081999999ADDMA1999999102471MW1001
0024990061999991931011316004+62000-033000SAO  +00004YA  V02099999999999999999N0000001N1+01131+00081999999ADDMA1999999102401MW1001
0024990061999991931011317004+62000-033000SAO  +00004YA  V02099999999999999999N0000001N1+01131+00021999999ADDMA1999999102441MW1001
0024990061999991931011318004+62000-033000SAO  +00004YA  V02099999999999999999N0000001N1+01071+00081999999ADDMA1999999102541MW1001
0024990061999991931011319004+62000-033000SAO  +00004YA  V02099999999999999999N0000001N1+01021-00041999999ADDMA1999999102571MW1001
0024990061999991931011320004+62000-033000SAO  +00004YA  V02099999999999999999N0000001N1+00961-00091999999ADDMA1999999102641MW1001
0024990061999991931011321004+62000-033000SAO  +00004YA  V02099999999999999999N0000001N1+00851-00201999999ADDMA1999999102681MW1001
0024990061999991931011322004+62000-033000SAO  +00004YA  V02099999999999999999N0000001N1+00801-00371999999ADDMA1999999102681MW1001
0024990061999991931011323004+62000-033000SAO  +00004YA  V02099999999999999999N0000001N1+00741-00311999999ADDMA1999999102711MW1001
0024990061999991931011400004+62000-033000SAO  +00004YA  V02099999999999999999N0000001N1+00691-00371999999ADDMA1999999102741MW1001
0024990061999991931011401004+62000-033000SAO  +00004YA  V02099999999999999999N0000001N1+00631-00261999999ADDMA1999999102741MW1001
0024990061999991931011402004+62000-033000SAO  +00004YA  V02099999999999999999N0000001N1+00631-00261999999ADDMA1999999102741MW1001
0024990061999991931011403004+62000-033000SAO  +00004YA  V02099999999999999999N0000001N1+00691-00261999999ADDMA1999999102711MW1001
0024990061999991931011404004+62000-033000SAO  +00004YA  V02099999999999999999N0000001N1+00691-00261999999ADDMA1999999102641MW1001
0024990061999991931011405004+62000-033000SAO  +00004YA  V02099999999999999999N0000001N1+00631-00261999999ADDMA1999999102611MW1001
0024990061999991931011406004+62000-033000SAO  +00004YA  V02099999999999999999N0000001N1+00631-00261999999ADDMA1999999102611MW1001
0024990061999991931011407004+62000-033000SAO  +00004YA  V02099999999999999999N0000001N1+00581-00261999999ADDMA1999999102641MW1001
0024990061999991931011408004+62000-033000SAO  +00004YA  V02099999999999999999N0000001N1+00581-00201999999ADDMA1999999102711MW1001
0024990061999991931011409004+62000-033000SAO  +00004YA  V02099999999999999999N0000001N1+00741-00261999999ADDMA1999999102741MW1001
0024990061999991931011410004+62000-033000SAO  +00004YA  V02099999999999999999N0000001N1+00911-00201999999ADDMA1999999102811MW1001
0024990061999991931011411004+62000-033000SAO  +00004YA  V02099999999999999999N0000001N1+01021-00151999999ADDMA1999999102781MW1001
0024990061999991931011412004+62000-033000SAO  +00004YA  V02099999999999999999N0000001N1+01131-00041999999ADDMA1999999102681MW1001
0024990061999991931011413004+62000-033000SAO  +00004YA  V02099999999999999999N0000001N1+01241-00041999999ADDMA1999999102511MW1001
0024990061999991931011414004+62000-033000SAO  +00004YA  V02099999999999999999N0000001N1+01351-00041999999ADDMA1999999102341MW1001
0024990061999991931011415004+62000-033000SAO  +00004YA  V02099999999999999999N0000001N1+01351-00091999999ADDMA1999999102271MW1001
0024990061999991931011416004+62000-033000SAO  +00004YA  V02099999999999999999N0000001N1+01301-00151999999ADDMA1999999102201MW1001
0024990061999991931011417004+62000-033000SAO  +00004YA  V02099999999999999999N0000001N1+01241-00261999999ADDMA1999999102201MW1001
0024990061999991931011418004+62000-033000SAO  +00004YA  V02099999999999999999N0000001N1+01241-00091999999ADDMA1999999102271MW1001
0024990061999991931011419004+62000-033000SAO  +00004YA  V02099999999999999999N0000001N1+01191+00241999999ADDMA1999999102301MW1001
0024990061999991931011420004+62000-033000SAO  +00004YA  V02099999999999999999N0000001N1+01131+00241999999ADDMA1999999102341MW1001
0024990061999991931011421004+62000-033000SAO  +00004YA  V02099999999999999999N0000001N1+01131+00351999999ADDMA1999999102341MW1001
0024990061999991931011422004+62000-033000SAO  +00004YA  V02099999999999999999N0000001N1+01071+00351999999ADDMA1999999102401MW1001
0024990061999991931011423004+62000-033000SAO  +00004YA  V02099999999999999999N0000001N1+01071+00301999999ADDMA1999999102401MW1001
0024990061999991931011500004+62000-033000SAO  +00004YA  V02099999999999999999N0000001N1+01071+00241999999ADDMA1999999102371MW1001
0024990061999991931011501004+62000-033000SAO  +00004YA  V02099999999999999999N0000001N1+01131+00241999999ADDMA1999999102371MW1001
0024990061999991931011502004+62000-033000SAO  +00004YA  V02099999999999999999N0000001N1+01191+00241999999ADDMA1999999102341MW1001
0024990061999991931011503004+62000-033000SAO  +00004YA  V02099999999999999999N0000001N1+01191+00351999999ADDMA1999999102341MW1001
0024990061999991931011504004+62000-033000SAO  +00004YA  V02099999999999999999N0000001N1+01191+00351999999ADDMA1999999102301MW1001
0024990061999991931011505004+62000-033000SAO  +00004YA  V02099999999999999999N0000001N1+01191+00411999999ADDMA1999999102271MW1001
0024990061999991931011506004+62000-033000SAO  +00004YA  V02099999999999999999N0000001N1+01131+00461999999ADDMA1999999102241MW1001
0024990061999991931011507004+62000-033000SAO  +00004YA  V02099999999999999999N0000001N1+01071+00411999999ADDMA1999999102241MW1001
0024990061999991931011508004+62000-033000SAO  +00004YA  V02099999999999999999N0000001N1+01021-00091999999ADDMA1999999102301MW1001
0024990061999991931011509004+62000-033000SAO  +00004YA  V02099999999999999999N0000001N1+01131+00081999999ADDMA1999999102371MW1001
0024990061999991931011510004+62000-033000SAO  +00004YA  V02099999999999999999N0000001N1+01351+00131999999ADDMA1999999102441MW1001
0024990061999991931011511004+62000-033000SAO  +00004YA  V02099999999999999999N0000001N1+01461-00041999999ADDMA1999999102401MW1001
0024990061999991931011512004+62000-033000SAO  +00004YA  V02099999999999999999N0000001N1+01571-00041999999ADDMA1999999102341MW1001
0024990061999991931011513004+62000-033000SAO  +00004YA  V02099999999999999999N0000001N1+01691+00021999999ADDMA1999999102201MW1001
0024990061999991931011514004+62000-033000SAO  +00004YA  V02099999999999999999N0000001N1+01741+00081999999ADDMA1999999102071MW1001
0024990061999991931011515004+62000-033000SAO  +00004YA  V02099999999999999999N0000001N1+01741+00411999999ADDMA1999999101961MW1001
0024990061999991931011516004+62000-033000SAO  +00004YA  V02099999999999999999N0000001N1+01741+00521999999ADDMA1999999101931MW1001
0024990061999991931011517004+62000-033000SAO  +00004YA  V02099999999999999999N0000001N1+01691+00631999999ADDMA1999999101931MW1001
0024990061999991931011518004+62000-033000SAO  +00004YA  V02099999999999999999N0000001N1+01631+00581999999ADDMA1999999101961MW1001
0024990061999991931011519004+62000-033000SAO  +00004YA  V02099999999999999999N0000001N1+01521+00461999999ADDMA1999999102001MW1001
0024990061999991931011520004+62000-033000SAO  +00004YA  V02099999999999999999N0000001N1+01411+00521999999ADDMA1999999102031MW1001
0024990061999991931011521004+62000-033000SAO  +00004YA  V02099999999999999999N0000001N1+01411+00461999999ADDMA1999999102071MW1001
0024990061999991931011522004+62000-033000SAO  +00004YA  V02099999999999999999N0000001N1+01351+00581999999ADDMA1999999102071MW1001
0024990061999991931011523004+62000-033000SAO  +00004YA  V02099999999999999999N0000001N1+01301+00631999999ADDMA1999999102071MW1001
0024990061999991931011600004+62000-033000SAO  +00004YA  V02099999999999999999N0000001N1+01301+00631999999ADDMA1999999102071MW1001
0024990061999991931011601004+62000-033000SAO  +00004YA  V02099999999999999999N0000001N1+01301+00631999999ADDMA1999999102031MW1001
0024990061999991931011602004+62000-033000SAO  +00004YA  V02099999999999999999N0000001N1+01301+00631999999ADDMA1999999102031MW1001
0024990061999991931011603004+62000-033000SAO  +00004YA  V02099999999999999999N0000001N1+01301+00691999999ADDMA1999999102001MW1001
0024990061999991931011604004+62000-033000SAO  +00004YA  V02099999999999999999N0000001N1+01301+00851999999ADDMA1999999101931MW1001
0024990061999991931011605004+62000-033000SAO  +00004YA  V02099999999999999999N0000001N1+01351+00911999999ADDMA1999999101931MW1001
0024990061999991931011606004+62000-033000SAO  +00004YA  V02099999999999999999N0000001N1+01301+01021999999ADDMA1999999101931MW1001
0024990061999991931011607004+62000-033000SAO  +00004YA  V02099999999999999999N0000001N1+01351+01021999999ADDMA1999999101931MW1001
0024990061999991931011608004+62000-033000SAO  +00004YA  V02099999999999999999N0000001N1+01351+00961999999ADDMA1999999101961MW1001
0024990061999991931011609004+62000-033000SAO  +00004YA  V02099999999999999999N0000001N1+01411+00961999999ADDMA1999999102031MW1001
0024990061999991931011610004+62000-033000SAO  +00004YA  V02099999999999999999N0000001N1+01521+01021999999ADDMA1999999102071MW1001
0024990061999991931011611004+62000-033000SAO  +00004YA  V02099999999999999999N0000001N1+01571+00961999999ADDMA1999999102101MW1001
0024990061999991931011612004+62000-033000SAO  +00004YA  V02099999999999999999N0000001N1+01691+01021999999ADDMA1999999102031MW1001
0024990061999991931011613004+62000-033000SAO  +00004YA  V02099999999999999999N0000001N1+01631+00961999999ADDMA1999999101931MW1001
0024990061999991931011614004+62000-033000SAO  +00004YA  V02099999999999999999N0000001N1+01741+00851999999ADDMA1999999101791MW1001
0024990061999991931011615004+62000-033000SAO  +00004YA  V02099999999999999999N0000001N1+01741+00521999999ADDMA1999999101691MW1001
0024990061999991931011616004+62000-033000SAO  +00004YA  V02099999999999999999N0000001N1+01801+00521999999ADDMA1999999101661MW1001
0024990061999991931011617004+62000-033000SAO  +00004YA  V02099999999999999999N0000001N1+01691+00801999999ADDMA1999999101631MW1001
0024990061999991931011618004+62000-033000SAO  +00004YA  V02099999999999999999N0000001N1+01631+01021999999ADDMA1999999101691MW1001
0024990061999991931011619004+62000-033000SAO  +00004YA  V02099999999999999999N0000001N1+01571+01021999999ADDMA1999999101731MW1001
0024990061999991931011620004+62000-033000SAO  +00004YA  V02099999999999999999N0000001N1+01571+01071999999ADDMA1999999101731MW1001
0024990061999991931011621004+62000-033000SAO  +00004YA  V02099999999999999999N0000001N1+01521+01071999999ADDMA1999999101731MW1001
0024990061999991931011622004+62000-033000SAO  +00004YA  V02099999999999999999N0000001N1+01571+00961999999ADDMA1999999101731MW1001
0024990061999991931011623004+62000-033000SAO  +00004YA  V02099999999999999999N0000001N1+01571+01021999999ADDMA1999999101731MW1001
0024990061999991931011700004+62000-033000SAO  +00004YA  V02099999999999999999N0000001N1+01631+00911999999ADDMA1999999101731MW1001
0024990061999991931011701004+62000-033000SAO  +00004YA  V02099999999999999999N0000001N1+01691+00851999999ADDMA1999999101731MW1001
0024990061999991931011702004+62000-033000SAO  +00004YA  V02099999999999999999N0000001N1+01691+00851999999ADDMA1999999101731MW1001
0024990061999991931011703004+62000-033000SAO  +00004YA  V02099999999999999999N0000001N1+01631+01131999999ADDMA1999999101691MW1001
0024990061999991931011704004+62000-033000SAO  +00004YA  V02099999999999999999N0000001N1+01571+01131999999ADDMA1999999101631MW1001
0024990061999991931011705004+62000-033000SAO  +00004YA  V02099999999999999999N0000001N1+01631+01021999999ADDMA1999999101661MW1001
0024990061999991931011706004+62000-033000SAO  +00004YA  V02099999999999999999N0000001N1+01631+00961999999ADDMA1999999101631MW1001
0024990061999991931011707004+62000-033000SAO  +00004YA  V02099999999999999999N0000001N1+01631+00911999999ADDMA1999999101691MW1001
0024990061999991931011708004+62000-033000SAO  +00004YA  V02099999999999999999N0000001N1+01631+00961999999ADDMA1999999101761MW1001
0024990061999991931011709004+62000-033000SAO  +00004YA  V02099999999999999999N0000001N1+01631+00911999999ADDMA1999999101791MW1001
0024990061999991931011710004+62000-033000SAO  +00004YA  V02099999999999999999N0000001N1+01851+01021999999ADDMA1999999101831MW1001
0024990061999991931011711004+62000-033000SAO  +00004YA  V02099999999999999999N0000001N1+01911+01191999999ADDMA1999999101831MW1001
0024990061999991931011712004+62000-033000SAO  +00004YA  V02099999999999999999N0000001N1+01911+01191999999ADDMA1999999101831MW1001
0024990061999991931011713004+62000-033000SAO  +00004YA  V02099999999999999999N0000001N1+01961+01241999999ADDMA1999999101731MW1001
0024990061999991931011714004+62000-033000SAO  +00004YA  V02099999999999999999N0000001N1+01851+01241999999ADDMA1999999101591MW1001
0024990061999991931011715004+62000-033000SAO  +00004YA  V02099999999999999999N0000001N1+01801+01241999999ADDMA1999999101491MW1001
0024990061999991931011716004+62000-033000SAO  +00004YA  V02099999999999999999N0000001N1+01801+01301999999ADDMA1999999101461MW1001
0024990061999991931011717004+62000-033000SAO  +00004YA  V02099999999999999999N0000001N1+01741+01301999999ADDMA1999999101491MW1001
0024990061999991931011718004+62000-033000SAO  +00004YA  V02099999999999999999N0000001N1+01691+01351999999ADDMA1999999101521MW1001
0024990061999991931011719004+62000-033000SAO  +00004YA  V02099999999999999999N0000001N1+01631+01351999999ADDMA1999999101591MW1001
0024990061999991931011720004+62000-033000SAO  +00004YA  V02099999999999999999N0000001N1+01631+01351999999ADDMA1999999101631MW1001
0024990061999991931011721004+62000-033000SAO  +00004YA  V02099999999999999999N0000001N1+01571+01351999999ADDMA1999999101661MW1001
0024990061999991931011722004+62000-033000SAO  +00004YA  V02099999999999999999N0000001N1+01571+01411999999ADDMA1999999101661MW1001
0024990061999991931011723004+62000-033000SAO  +00004YA  V02099999999999999999N0000001N1+01571+01351999999ADDMA1999999101661MW1001
0024990061999991931011800004+62000-033000SAO  +00004YA  V02099999999999999999N0000001N1+01571+01301999999ADDMA1999999101691MW1001
0024990061999991931011801004+62000-033000SAO  +00004YA  V02099999999999999999N0000001N1+01571+01301999999ADDMA1999999101691MW1001
0024990061999991931011802004+62000-033000SAO  +00004YA  V02099999999999999999N0000001N1+01521+01241999999ADDMA1999999101761MW1001
0024990061999991931011803004+62000-033000SAO  +00004YA  V02099999999999999999N0000001N1+01631+00911999999ADDMA1999999101761MW1001
0024990061999991931011804004+62000-033000SAO  +00004YA  V02099999999999999999N0000001N1+01631+00581999999ADDMA1999999101731MW1001
0024990061999991931011805004+62000-033000SAO  +00004YA  V02099999999999999999N0000001N1+01631+00411999999ADDMA1999999101731MW1001
0024990061999991931011806004+62000-033000SAO  +00004YA  V02099999999999999999N0000001N1+01461+00351999999ADDMA1999999101761MW1001
0024990061999991931011807004+62000-033000SAO  +00004YA  V02099999999999999999N0000001N1+01411+00351999999ADDMA1999999101791MW1001
0024990061999991931011808004+62000-033000SAO  +00004YA  V02099999999999999999N0000001N1+01411+00301999999ADDMA1999999101831MW1001
0024990061999991931011809004+62000-033000SAO  +00004YA  V02099999999999999999N0000001N1+01461+00411999999ADDMA1999999101901MW1001
0024990061999991931011810004+62000-033000SAO  +00004YA  V02099999999999999999N0000001N1+01521+00411999999ADDMA1999999101961MW1001
0024990061999991931011811004+62000-033000SAO  +00004YA  V02099999999999999999N0000001N1+01631+00411999999ADDMA1999999102031MW1001
0024990061999991931011812004+62000-033000SAO  +00004YA  V02099999999999999999N0000001N1+01801+00411999999ADDMA1999999101961MW1001
0024990061999991931011813004+62000-033000SAO  +00004YA  V02099999999999999999N0000001N1+01911+00461999999ADDMA1999999101861MW1001
0024990061999991931011814004+62000-033000SAO  +00004YA  V02099999999999999999N0000001N1+01851+00411999999ADDMA1999999101761MW1001
0024990061999991931011815004+62000-033000SAO  +00004YA  V02099999999999999999N0000001N1+01911+00411999999ADDMA1999999101691MW1001
0024990061999991931011816004+62000-033000SAO  +00004YA  V02099999999999999999N0000001N1+01911+00351999999ADDMA1999999101661MW1001
0024990061999991931011817004+62000-033000SAO  +00004YA  V02099999999999999999N0000001N1+01851+00351999999ADDMA1999999101691MW1001
0024990061999991931011818004+62000-033000SAO  +00004YA  V02099999999999999999N0000001N1+01851+00301999999ADDMA1999999101731MW1001
0024990061999991931011819004+62000-033000SAO  +00004YA  V02099999999999999999N0000001N1+01741+00241999999ADDMA1999999101791MW1001
0024990061999991931011820004+62000-033000SAO  +00004YA  V02099999999999999999N0000001N1+01691+00241999999ADDMA1999999101831MW1001
0024990061999991931011821004+62000-033000SAO  +00004YA  V02099999999999999999N0000001N1+01691+00191999999ADDMA1999999101901MW1001
0024990061999991931011822004+62000-033000SAO  +00004YA  V02099999999999999999N0000001N1+01631+00191999999ADDMA1999999101901MW1001
0024990061999991931011823004+62000-033000SAO  +00004YA  V02099999999999999999N0000001N1+01571+00131999999ADDMA1999999101861MW1001
0024990061999991931011900004+62000-033000SAO  +00004YA  V02099999999999999999N0000001N1+01571+00191999999ADDMA1999999101861MW1001
0024990061999991931011901004+62000-033000SAO  +00004YA  V02099999999999999999N0000001N1+01461+00351999999ADDMA1999999101861MW1001
0024990061999991931011902004+62000-033000SAO  +00004YA  V02099999999999999999N0000001N1+01461+00411999999ADDMA1999999101861MW1001
0024990061999991931011903004+62000-033000SAO  +00004YA  V02099999999999999999N0000001N1+01461+00411999999ADDMA1999999101901MW1001
0024990061999991931011904004+62000-033000SAO  +00004YA  V02099999999999999999N0000001N1+01411+00351999999ADDMA1999999101861MW1001
0024990061999991931011905004+62000-033000SAO  +00004YA  V02099999999999999999N0000001N1+01301+00241999999ADDMA1999999101831MW1001
0024990061999991931011906004+62000-033000SAO  +00004YA  V02099999999999999999N0000001N1+01301+00351999999ADDMA1999999101831MW1001
0024990061999991931011907004+62000-033000SAO  +00004YA  V02099999999999999999N0000001N1+01301+00301999999ADDMA1999999101861MW1001
0024990061999991931011908004+62000-033000SAO  +00004YA  V02099999999999999999N0000001N1+01301+00351999999ADDMA1999999101901MW1001
0024990061999991931011909004+62000-033000SAO  +00004YA  V02099999999999999999N0000001N1+01411+00411999999ADDMA1999999101961MW1001
0024990061999991931011910004+62000-033000SAO  +00004YA  V02099999999999999999N0000001N1+01571+00581999999ADDMA1999999102071MW1001
0024990061999991931011911004+62000-033000SAO  +00004YA  V02099999999999999999N0000001N1+01631+00631999999ADDMA1999999102101MW1001
0024990061999991931011912004+62000-033000SAO  +00004YA  V02099999999999999999N0000001N1+01691+00631999999ADDMA1999999102031MW1001
0024990061999991931011913004+62000-033000SAO  +00004YA  V02099999999999999999N0000001N1+01691+00691999999ADDMA1999999101931MW1001
0024990061999991931011914004+62000-033000SAO  +00004YA  V02099999999999999999N0000001N1+01801+00581999999ADDMA1999999101791MW1001
0024990061999991931011915004+62000-033000SAO  +00004YA  V02099999999999999999N0000001N1+01851+00301999999ADDMA1999999101731MW1001
0024990061999991931011916004+62000-033000SAO  +00004YA  V02099999999999999999N0000001N1+01801+00081999999ADDMA1999999101661MW1001
0024990061999991931011917004+62000-033000SAO  +00004YA  V02099999999999999999N0000001N1+01741+00191999999ADDMA1999999101631MW1001
0024990061999991931011918004+62000-033000SAO  +00004YA  V02099999999999999999N0000001N1+01691+00301999999ADDMA1999999101631MW1001
0024990061999991931011919004+62000-033000SAO  +00004YA  V02099999999999999999N0000001N1+01571+00301999999ADDMA1999999101661MW1001
0024990061999991931011920004+62000-033000SAO  +00004YA  V02099999999999999999N0000001N1+01521+00521999999ADDMA1999999101661MW1001
0024990061999991931011921004+62000-033000SAO  +00004YA  V02099999999999999999N0000001N1+01521+00801999999ADDMA1999999101691MW1001
0024990061999991931011922004+62000-033000SAO  +00004YA  V02099999999999999999N0000001N1+01571+00961999999ADDMA1999999101691MW1001
0024990061999991931011923004+62000-033000SAO  +00004YA  V02099999999999999999N0000001N1+01571+00911999999ADDMA1999999101661MW1001
0024990061999991931012000004+62000-033000SAO  +00004YA  V02099999999999999999N0000001N1+01571+00961999999ADDMA1999999101631MW1001
0024990061999991931012001004+62000-033000SAO  +00004YA  V02099999999999999999N0000001N1+01571+00961999999ADDMA1999999101631MW1001
0024990061999991931012002004+62000-033000SAO  +00004YA  V02099999999999999999N0000001N1+01571+01191999999ADDMA1999999101661MW1001
0024990061999991931012003004+62000-033000SAO  +00004YA  V02099999999999999999N0000001N1+01571+01191999999ADDMA1999999101591MW1001
0024990061999991931012004004+62000-033000SAO  +00004YA  V02099999999999999999N0000001N1+01521+01131999999ADDMA1999999101561MW1001
0024990061999991931012005004+62000-033000SAO  +00004YA  V02099999999999999999N0000001N1+01461+01071999999ADDMA1999999101561MW1001
0024990061999991931012006004+62000-033000SAO  +00004YA  V02099999999999999999N0000001N1+01461+01071999999ADDMA1999999101521MW1001
0024990061999991931012007004+62000-033000SAO  +00004YA  V02099999999999999999N0000001N1+01461+01071999999ADDMA1999999101521MW1001
0024990061999991931012008004+62000-033000SAO  +00004YA  V02099999999999999999N0000001N1+01461+00851999999ADDMA1999999101591MW1001
0024990061999991931012009004+62000-033000SAO  +00004YA  V02099999999999999999N0000001N1+01521+01021999999ADDMA1999999101631MW1001
0024990061999991931012010004+62000-033000SAO  +00004YA  V02099999999999999999N0000001N1+01521+00961999999ADDMA1999999101661MW1001
0024990061999991931012011004+62000-033000SAO  +00004YA  V02099999999999999999N0000001N1+01571+00961999999ADDMA1999999101731MW1001
0024990061999991931012012004+62000-033000SAO  +00004YA  V02099999999999999999N0000001N1+01631+01021999999ADDMA1999999101661MW1001
0024990061999991931012013004+62000-033000SAO  +00004YA  V02099999999999999999N0000001N1+01741+01021999999ADDMA1999999101561MW1001
0024990061999991931012014004+62000-033000SAO  +00004YA  V02099999999999999999N0000001N1+01741+01131999999ADDMA1999999101461MW1001
0024990061999991931012015004+62000-033000SAO  +00004YA  V02099999999999999999N0000001N1+01741+01191999999ADDMA1999999101391MW1001
0024990061999991931012016004+62000-033000SAO  +00004YA  V02099999999999999999N0000001N1+01741+01191999999ADDMA1999999101321MW1001
0024990061999991931012017004+62000-033000SAO  +00004YA  V02099999999999999999N0000001N1+01801+01191999999ADDMA1999999101351MW1001
0024990061999991931012018004+62000-033000SAO  +00004YA  V02099999999999999999N0000001N1+01691+01191999999ADDMA1999999101391MW1001
0024990061999991931012019004+62000-033000SAO  +00004YA  V02099999999999999999N0000001N1+01631+01071999999ADDMA1999999101391MW1001
0024990061999991931012020004+62000-033000SAO  +00004YA  V02099999999999999999N0000001N1+01631+01131999999ADDMA1999999101391MW1001
0024990061999991931012021004+62000-033000SAO  +00004YA  V02099999999999999999N0000001N1+01631+01131999999ADDMA1999999101421MW1001
0024990061999991931012022004+62000-033000SAO  +00004YA  V02099999999999999999N0000001N1+01631+01131999999ADDMA1999999101491MW1001
0024990061999991931012023004+62000-033000SAO  +00004YA  V02099999999999999999N0000001N1+01631+01191999999ADDMA1999999101461MW1001
0024990061999991931012100004+62000-033000SAO  +00004YA  V02099999999999999999N0000001N1+01631+01241999999ADDMA1999999101421MW1001
0024990061999991931012101004+62000-033000SAO  +00004YA  V02099999999999999999N0000001N1+01631+01241999999ADDMA1999999101421MW1001
0024990061999991931012102004+62000-033000SAO  +00004YA  V02099999999999999999N0000001N1+01691+01411999999ADDMA1999999101491MW1001
0024990061999991931012103004+62000-033000SAO  +00004YA  V02099999999999999999N0000001N1+01691+01411999999ADDMA1999999101461MW1001
0024990061999991931012104004+62000-033000SAO  +00004YA  V02099999999999999999N0000001N1+01741+01461999999ADDMA1999999101461MW1001
0024990061999991931012105004+62000-033000SAO  +00004YA  V02099999999999999999N0000001N1+01741+01461999999ADDMA1999999101461MW1001
0024990061999991931012106004+62000-033000SAO  +00004YA  V02099999999999999999N0000001N1+01801+01461999999ADDMA1999999101421MW1001
0024990061999991931012107004+62000-033000SAO  +00004YA  V02099999999999999999N0000001N1+01801+01461999999ADDMA1999999101461MW1001
0024990061999991931012108004+62000-033000SAO  +00004YA  V02099999999999999999N0000001N1+01801+01461999999ADDMA1999999101491MW1001
0024990061999991931012109004+62000-033000SAO  +00004YA  V02099999999999999999N0000001N1+01851+01411999999ADDMA1999999101521MW1001
0024990061999991931012110004+62000-033000SAO  +00004YA  V02099999999999999999N0000001N1+01851+01351999999ADDMA1999999101561MW1001
0024990061999991931012111004+62000-033000SAO  +00004YA  V02099999999999999999N0000001N1+01851+01461999999ADDMA1999999101591MW1001
0024990061999991931012112004+62000-033000SAO  +00004YA  V02099999999999999999N0000001N1+01911+01461999999ADDMA1999999101561MW1001
0024990061999991931012113004+62000-033000SAO  +00004YA  V02099999999999999999N0000001N1+01851+01521999999ADDMA1999999101461MW1001
0024990061999991931012114004+62000-033000SAO  +00004YA  V02099999999999999999N0000001N1+01851+01461999999ADDMA1999999101351MW1001
0024990061999991931012115004+62000-033000SAO  +00004YA  V02099999999999999999N0000001N1+01801+01411999999ADDMA1999999101291MW1001
0024990061999991931012116004+62000-033000SAO  +00004YA  V02099999999999999999N0000001N1+01741+01411999999ADDMA1999999101291MW1001
0024990061999991931012117004+62000-033000SAO  +00004YA  V02099999999999999999N0000001N1+01741+01411999999ADDMA1999999101321MW1001
0024990061999991931012118004+62000-033000SAO  +00004YA  V02099999999999999999N0000001N1+01741+01351999999ADDMA1999999101351MW1001
0024990061999991931012119004+62000-033000SAO  +00004YA  V02099999999999999999N0000001N1+01691+01411999999ADDMA1999999101391MW1001
0024990061999991931012120004+62000-033000SAO  +00004YA  V02099999999999999999N0000001N1+01691+01411999999ADDMA1999999101391MW1001
0024990061999991931012121004+62000-033000SAO  +00004YA  V02099999999999999999N0000001N1+01691+01461999999ADDMA1999999101421MW1001
0024990061999991931012122004+62000-033000SAO  +00004YA  V02099999999999999999N0000001N1+01741+01411999999ADDMA1999999101421MW1001
0024990061999991931012123004+62000-033000SAO  +00004YA  V02099999999999999999N0000001N1+01801+01411999999ADDMA1999999101391MW1001
0024990061999991931012200004+62000-033000SAO  +00004YA  V02099999999999999999N0000001N1+01801+01411999999ADDMA1999999101391MW1001
0024990061999991931012201004+62000-033000SAO  +00004YA  V02099999999999999999N0000001N1+01801+01411999999ADDMA1999999101351MW1001
0024990061999991931012202004+62000-033000SAO  +00004YA  V02099999999999999999N0000001N1+01741+01461999999ADDMA1999999101351MW1001
0024990061999991931012203004+62000-033000SAO  +00004YA  V02099999999999999999N0000001N1+01741+01521999999ADDMA1999999101351MW1001
0024990061999991931012204004+62000-033000SAO  +00004YA  V02099999999999999999N0000001N1+01691+01521999999ADDMA1999999101351MW1001
0024990061999991931012205004+62000-033000SAO  +00004YA  V02099999999999999999N0000001N1+01691+01571999999ADDMA1999999101321MW1001
0024990061999991931012206004+62000-033000SAO  +00004YA  V02099999999999999999N0000001N1+01691+01571999999ADDMA1999999101321MW1001
0024990061999991931012207004+62000-033000SAO  +00004YA  V02099999999999999999N0000001N1+01691+01571999999ADDMA1999999101351MW1001
0024990061999991931012208004+62000-033000SAO  +00004YA  V02099999999999999999N0000001N1+01741+01571999999ADDMA1999999101421MW1001
0024990061999991931012209004+62000-033000SAO  +00004YA  V02099999999999999999N0000001N1+01801+01631999999ADDMA1999999101461MW1001
0024990061999991931012210004+62000-033000SAO  +00004YA  V02099999999999999999N0000001N1+02021+01631999999ADDMA1999999101561MW1001
0024990061999991931012211004+62000-033000SAO  +00004YA  V02099999999999999999N0000001N1+02021+01631999999ADDMA1999999101631MW1001
0024990061999991931012212004+62000-033000SAO  +00004YA  V02099999999999999999N0000001N1+02181+01691999999ADDMA1999999101591MW1001
0024990061999991931012213004+62000-033000SAO  +00004YA  V02099999999999999999N0000001N1+02071+01691999999ADDMA1999999101521MW1001
0024990061999991931012214004+62000-033000SAO  +00004YA  V02099999999999999999N0000001N1+02131+01691999999ADDMA1999999101391MW1001
0024990061999991931012215004+62000-033000SAO  +00004YA  V02099999999999999999N0000001N1+02181+01691999999ADDMA1999999101291MW1001
0024990061999991931012216004+62000-033000SAO  +00004YA  V02099999999999999999N0000001N1+02131+01691999999ADDMA1999999101251MW1001
0024990061999991931012217004+62000-033000SAO  +00004YA  V02099999999999999999N0000001N1+02071+01691999999ADDMA1999999101291MW1001
0024990061999991931012218004+62000-033000SAO  +00004YA  V02099999999999999999N0000001N1+02021+01691999999ADDMA1999999101321MW1001
0024990061999991931012219004+62000-033000SAO  +00004YA  V02099999999999999999N0000001N1+01961+01691999999ADDMA1999999101351MW1001
0024990061999991931012220004+62000-033000SAO  +00004YA  V02099999999999999999N0000001N1+01961+01691999999ADDMA1999999101391MW1001
0024990061999991931012221004+62000-033000SAO  +00004YA  V02099999999999999999N0000001N1+01961+01691999999ADDMA1999999101421MW1001
0024990061999991931012222004+62000-033000SAO  +00004YA  V02099999999999999999N0000001N1+01961+01691999999ADDMA1999999101461MW1001
0024990061999991931012223004+62000-033000SAO  +00004YA  V02099999999999999999N0000001N1+01961+01741999999ADDMA1999999101491MW1001
0024990061999991931012300004+62000-033000SAO  +00004YA  V02099999999999999999N0000001N1+01961+01741999999ADDMA1999999101391MW1001
0024990061999991931012301004+62000-033000SAO  +00004YA  V02099999999999999999N0000001N1+01911+01741999999ADDMA1999999101391MW1001
0024990061999991931012302004+62000-033000SAO  +00004YA  V02099999999999999999N0000001N1+01851+01691999999ADDMA1999999101391MW1001
0024990061999991931012303004+62000-033000SAO  +00004YA  V02099999999999999999N0000001N1+01851+01691999999ADDMA1999999101391MW1001
0024990061999991931012304004+62000-033000SAO  +00004YA  V02099999999999999999N0000001N1+01851+01691999999ADDMA1999999101391MW1001
0024990061999991931012305004+62000-033000SAO  +00004YA  V02099999999999999999N0000001N1+01851+01691999999ADDMA1999999101391MW1001
0024990061999991931012306004+62000-033000SAO  +00004YA  V02099999999999999999N0000001N1+01851+01691999999ADDMA1999999101391MW1001
0024990061999991931012307004+62000-033000SAO  +00004YA  V02099999999999999999N0000001N1+01851+01691999999ADDMA1999999101461MW1001
0024990061999991931012308004+62000-033000SAO  +00004YA  V02099999999999999999N0000001N1+01851+01691999999ADDMA1999999101491MW1001
0024990061999991931012309004+62000-033000SAO  +00004YA  V02099999999999999999N0000001N1+01961+01741999999ADDMA1999999101521MW1001
0024990061999991931012310004+62000-033000SAO  +00004YA  V02099999999999999999N0000001N1+02181+01741999999ADDMA1999999101561MW1001
0024990061999991931012311004+62000-033000SAO  +00004YA  V02099999999999999999N0000001N1+99999+99999999999ADDMA1999999101591MW1001
0024990061999991931012312004+62000-033000SAO  +00004YA  V02099999999999999999N0000001N1+02301+01741999999ADDMA1999999101591MW1001
0024990061999991931012313004+62000-033000SAO  +00004YA  V02099999999999999999N0000001N1+02241+01801999999ADDMA1999999101561MW1001
0024990061999991931012314004+62000-033000SAO  +00004YA  V02099999999999999999N0000001N1+02301+01741999999ADDMA1999999101421MW1001
0024990061999991931012315004+62000-033000SAO  +00004YA  V02099999999999999999N0000001N1+02241+01741999999ADDMA1999999101351MW1001
0024990061999991931012316004+62000-033000SAO  +00004YA  V02099999999999999999N0000001N1+02241+01741999999ADDMA1999999101321MW1001
0024990061999991931012317004+62000-033000SAO  +00004YA  V02099999999999999999N0000001N1+02131+01741999999ADDMA1999999101321MW1001
0024990061999991931012318004+62000-033000SAO  +00004YA  V02099999999999999999N0000001N1+02131+01741999999ADDMA1999999101321MW1001
0024990061999991931012319004+62000-033000SAO  +00004YA  V02099999999999999999N0000001N1+02071+01801999999ADDMA1999999101391MW1001
0024990061999991931012320004+62000-033000SAO  +00004YA  V02099999999999999999N0000001N1+02021+01741999999ADDMA1999999101421MW1001
0024990061999991931012321004+62000-033000SAO  +00004YA  V02099999999999999999N0000001N1+01911+01741999999ADDMA1999999101491MW1001
0024990061999991931012322004+62000-033000SAO  +00004YA  V02099999999999999999N0000001N1+01911+01801999999ADDMA1999999101491MW1001
0024990061999991931012323004+62000-033000SAO  +00004YA  V02099999999999999999N0000001N1+01801+01801999999ADDMA1999999101561MW1001
0024990061999991931012400004+62000-033000SAO  +00004YA  V02099999999999999999N0000001N1+01801+01741999999ADDMA1999999101591MW1001
0024990061999991931012401004+62000-033000SAO  +00004YA  V02099999999999999999N0000001N1+01741+01631999999ADDMA1999999101631MW1001
0024990061999991931012402004+62000-033000SAO  +00004YA  V02099999999999999999N0000001N1+01691+01571999999ADDMA1999999101661MW1001
0024990061999991931012403004+62000-033000SAO  +00004YA  V02099999999999999999N0000001N1+01691+01571999999ADDMA1999999101631MW1001
0024990061999991931012404004+62000-033000SAO  +00004YA  V02099999999999999999N0000001N1+01691+01521999999ADDMA1999999101591MW1001
0024990061999991931012405004+62000-033000SAO  +00004YA  V02099999999999999999N0000001N1+01691+01521999999ADDMA1999999101591MW1001
0024990061999991931012406004+62000-033000SAO  +00004YA  V02099999999999999999N0000001N1+01691+01521999999ADDMA1999999101591MW1001
0024990061999991931012407004+62000-033000SAO  +00004YA  V02099999999999999999N0000001N1+01691+01461999999ADDMA1999999101591MW1001
0024990061999991931012408004+62000-033000SAO  +00004YA  V02099999999999999999N0000001N1+01631+01461999999ADDMA1999999101631MW1001
0024990061999991931012409004+62000-033000SAO  +00004YA  V02099999999999999999N0000001N1+01691+01461999999ADDMA1999999101731MW1001
0024990061999991931012410004+62000-033000SAO  +00004YA  V02099999999999999999N0000001N1+01691+01461999999ADDMA1999999101761MW1001
0024990061999991931012411004+62000-033000SAO  +00004YA  V02099999999999999999N0000001N1+01741+01411999999ADDMA1999999101731MW1001
0024990061999991931012412004+62000-033000SAO  +00004YA  V02099999999999999999N0000001N1+01851+01411999999ADDMA1999999101691MW1001
0024990061999991931012413004+62000-033000SAO  +00004YA  V02099999999999999999N0000001N1+01851+01411999999ADDMA1999999101561MW1001
0024990061999991931012414004+62000-033000SAO  +00004YA  V02099999999999999999N0000001N1+01741+01411999999ADDMA1999999101461MW1001
0024990061999991931012415004+62000-033000SAO  +00004YA  V02099999999999999999N0000001N1+01691+01411999999ADDMA1999999101351MW1001
0024990061999991931012416004+62000-033000SAO  +00004YA  V02099999999999999999N0000001N1+01691+01411999999ADDMA1999999101351MW1001
0024990061999991931012417004+62000-033000SAO  +00004YA  V02099999999999999999N0000001N1+01741+01351999999ADDMA1999999101321MW1001
0024990061999991931012418004+62000-033000SAO  +00004YA  V02099999999999999999N0000001N1+01691+01461999999ADDMA1999999101421MW1001
0024990061999991931012419004+62000-033000SAO  +00004YA  V02099999999999999999N0000001N1+01691+01411999999ADDMA1999999101461MW1001
0024990061999991931012420004+62000-033000SAO  +00004YA  V02099999999999999999N0000001N1+01691+01461999999ADDMA1999999101421MW1001
0024990061999991931012421004+62000-033000SAO  +00004YA  V02099999999999999999N0000001N1+01691+01461999999ADDMA1999999101461MW1001
0024990061999991931012422004+62000-033000SAO  +00004YA  V02099999999999999999N0000001N1+01691+01461999999ADDMA1999999101491MW1001
0024990061999991931012423004+62000-033000SAO  +00004YA  V02099999999999999999N0000001N1+01691+01461999999ADDMA1999999101521MW1001
0024990061999991931012500004+62000-033000SAO  +00004YA  V02099999999999999999N0000001N1+01631+01461999999ADDMA1999999101521MW1001
0024990061999991931012501004+62000-033000SAO  +00004YA  V02099999999999999999N0000001N1+01631+01461999999ADDMA1999999101461MW1001
0024990061999991931012502004+62000-033000SAO  +00004YA  V02099999999999999999N0000001N1+01691+01461999999ADDMA1999999101421MW1001
0024990061999991931012503004+62000-033000SAO  +00004YA  V02099999999999999999N0000001N1+01691+01461999999ADDMA1999999101421MW1001
0024990061999991931012504004+62000-033000SAO  +00004YA  V02099999999999999999N0000001N1+01691+01461999999ADDMA1999999101391MW1001
0024990061999991931012505004+62000-033000SAO  +00004YA  V02099999999999999999N0000001N1+01691+01521999999ADDMA1999999101321MW1001
0024990061999991931012506004+62000-033000SAO  +00004YA  V02099999999999999999N0000001N1+01691+01521999999ADDMA1999999101291MW1001
0024990061999991931012507004+62000-033000SAO  +00004YA  V02099999999999999999N0000001N1+01801+01521999999ADDMA1999999101321MW1001
0024990061999991931012508004+62000-033000SAO  +00004YA  V02099999999999999999N0000001N1+01741+01571999999ADDMA1999999101391MW1001
0024990061999991931012509004+62000-033000SAO  +00004YA  V02099999999999999999N0000001N1+01801+01631999999ADDMA1999999101351MW1001
0024990061999991931012510004+62000-033000SAO  +00004YA  V02099999999999999999N0000001N1+01801+01631999999ADDMA1999999101421MW1001
0024990061999991931012511004+62000-033000SAO  +00004YA  V02099999999999999999N0000001N1+01801+01631999999ADDMA1999999101461MW1001
0024990061999991931012512004+62000-033000SAO  +00004YA  V02099999999999999999N0000001N1+01741+01631999999ADDMA1999999101421MW1001
0024990061999991931012513004+62000-033000SAO  +00004YA  V02099999999999999999N0000001N1+01741+01691999999ADDMA1999999101321MW1001
0024990061999991931012514004+62000-033000SAO  +00004YA  V02099999999999999999N0000001N1+01801+01691999999ADDMA1999999101191MW1001
0024990061999991931012515004+62000-033000SAO  +00004YA  V02099999999999999999N0000001N1+01911+01741999999ADDMA1999999101081MW1001
0024990061999991931012516004+62000-033000SAO  +00004YA  V02099999999999999999N0000001N1+01961+01741999999ADDMA1999999101021MW1001
0024990061999991931012517004+62000-033000SAO  +00004YA  V02099999999999999999N0000001N1+01911+01741999999ADDMA1999999101021MW1001
0024990061999991931012518004+62000-033000SAO  +00004YA  V02099999999999999999N0000001N1+01911+01741999999ADDMA1999999101051MW1001
0024990061999991931012519004+62000-033000SAO  +00004YA  V02099999999999999999N0000001N1+01911+01801999999ADDMA1999999101081MW1001
0024990061999991931012520004+62000-033000SAO  +00004YA  V02099999999999999999N0000001N1+01911+01801999999ADDMA1999999101151MW1001
0024990061999991931012521004+62000-033000SAO  +00004YA  V02099999999999999999N0000001N1+01911+01801999999ADDMA1999999101221MW1001
0024990061999991931012522004+62000-033000SAO  +00004YA  V02099999999999999999N0000001N1+01911+01801999999ADDMA1999999101221MW1001
0024990061999991931012523004+62000-033000SAO  +00004YA  V02099999999999999999N0000001N1+01911+01801999999ADDMA1999999101251MW1001
0024990061999991931012600004+62000-033000SAO  +00004YA  V02099999999999999999N0000001N1+01911+01801999999ADDMA1999999101251MW1001
0024990061999991931012601004+62000-033000SAO  +00004YA  V02099999999999999999N0000001N1+01911+01801999999ADDMA1999999101251MW1001
0024990061999991931012602004+62000-033000SAO  +00004YA  V02099999999999999999N0000001N1+01911+01801999999ADDMA1999999101561MW1001
0024990061999991931012603004+62000-033000SAO  +00004YA  V02099999999999999999N0000001N1+01911+01801999999ADDMA1999999101221MW1001
0024990061999991931012604004+62000-033000SAO  +00004YA  V02099999999999999999N0000001N1+01911+01801999999ADDMA1999999101191MW1001
0024990061999991931012605004+62000-033000SAO  +00004YA  V02099999999999999999N0000001N1+01911+01801999999ADDMA1999999101221MW1001
0024990061999991931012606004+62000-033000SAO  +00004YA  V02099999999999999999N0000001N1+01911+01801999999ADDMA1999999101221MW1001
0024990061999991931012607004+62000-033000SAO  +00004YA  V02099999999999999999N0000001N1+01911+01801999999ADDMA1999999101251MW1001
0024990061999991931012608004+62000-033000SAO  +00004YA  V02099999999999999999N0000001N1+01911+01801999999ADDMA1999999101291MW1001
0024990061999991931012609004+62000-033000SAO  +00004YA  V02099999999999999999N0000001N1+01911+01801999999ADDMA1999999101321MW1001
0024990061999991931012610004+62000-033000SAO  +00004YA  V02099999999999999999N0000001N1+01961+01851999999ADDMA1999999101391MW1001
0024990061999991931012611004+62000-033000SAO  +00004YA  V02099999999999999999N0000001N1+02071+01851999999ADDMA1999999101491MW1001
0024990061999991931012612004+62000-033000SAO  +00004YA  V02099999999999999999N0000001N1+02181+01851999999ADDMA1999999101461MW1001
0024990061999991931012613004+62000-033000SAO  +00004YA  V02099999999999999999N0000001N1+02241+01911999999ADDMA1999999101391MW1001
0024990061999991931012614004+62000-033000SAO  +00004YA  V02099999999999999999N0000001N1+02241+01961999999ADDMA1999999101251MW1001
0024990061999991931012615004+62000-033000SAO  +00004YA  V02099999999999999999N0000001N1+02241+01911999999ADDMA1999999101191MW1001
0028990061999991931012616004+62000-033000SAO  +00004YA  V02099999999999999999N0000001N1+02301+01911999999ADDMW1001EQDQ01+104503APOSP 
0024990061999991931012617004+62000-033000SAO  +00004YA  V02099999999999999999N0000001N1+02241+01911999999ADDMA1999999101151MW1001
0024990061999991931012618004+62000-033000SAO  +00004YA  V02099999999999999999N0000001N1+02241+01911999999ADDMA1999999101251MW1001
0024990061999991931012619004+62000-033000SAO  +00004YA  V02099999999999999999N0000001N1+02071+01851999999ADDMA1999999101321MW1001
0024990061999991931012620004+62000-033000SAO  +00004YA  V02099999999999999999N0000001N1+02021+01801999999ADDMA1999999101351MW1001
0024990061999991931012621004+62000-033000SAO  +00004YA  V02099999999999999999N0000001N1+02021+01801999999ADDMA1999999101461MW1001
0024990061999991931012622004+62000-033000SAO  +00004YA  V02099999999999999999N0000001N1+02021+01851999999ADDMA1999999101521MW1001
0024990061999991931012623004+62000-033000SAO  +00004YA  V02099999999999999999N0000001N1+01851+01521999999ADDMA1999999101591MW1001
0024990061999991931012700004+62000-033000SAO  +00004YA  V02099999999999999999N0000001N1+01691+01191999999ADDMA1999999101631MW1001
0024990061999991931012701004+62000-033000SAO  +00004YA  V02099999999999999999N0000001N1+01571+01071999999ADDMA1999999101761MW1001
0024990061999991931012702004+62000-033000SAO  +00004YA  V02099999999999999999N0000001N1+01351+00911999999ADDMA1999999101831MW1001
0024990061999991931012703004+62000-033000SAO  +00004YA  V02099999999999999999N0000001N1+01301+00801999999ADDMA1999999101931MW1001
0024990061999991931012704004+62000-033000SAO  +00004YA  V02099999999999999999N0000001N1+01241+99999999999ADDMA1999999101961MW1001
0024990061999991931012705004+62000-033000SAO  +00004YA  V02099999999999999999N0000001N1+01191+00741999999ADDMA1999999101961MW1001
0024990061999991931012706004+62000-033000SAO  +00004YA  V02099999999999999999N0000001N1+01131+00631999999ADDMA1999999102001MW1001
0024990061999991931012707004+62000-033000SAO  +00004YA  V02099999999999999999N0000001N1+01071+00581999999ADDMA1999999102131MW1001
0024990061999991931012708004+62000-033000SAO  +00004YA  V02099999999999999999N0000001N1+01021+00691999999ADDMA1999999102201MW1001
0024990061999991931012709004+62000-033000SAO  +00004YA  V02099999999999999999N0000001N1+00911+00581999999ADDMA1999999102301MW1001
0024990061999991931012710004+62000-033000SAO  +00004YA  V02099999999999999999N0000001N1+00961+00521999999ADDMA1999999102341MW1001
0024990061999991931012711004+62000-033000SAO  +00004YA  V02099999999999999999N0000001N1+01071+00521999999ADDMA1999999102371MW1001
0024990061999991931012712004+62000-033000SAO  +00004YA  V02099999999999999999N0000001N1+01131+00581999999ADDMA1999999102341MW1001
0024990061999991931012713004+62000-033000SAO  +00004YA  V02099999999999999999N0000001N1+01021+00581999999ADDMA1999999102301MW1001
0024990061999991931012714004+62000-033000SAO  +00004YA  V02099999999999999999N0000001N1+01021+00631999999ADDMA1999999102171MW1001
0024990061999991931012715004+62000-033000SAO  +00004YA  V02099999999999999999N0000001N1+01131+00741999999ADDMA1999999102031MW1001
0024990061999991931012716004+62000-033000SAO  +00004YA  V02099999999999999999N0000001N1+01071+00741999999ADDMA1999999102001MW1001
0024990061999991931012717004+62000-033000SAO  +00004YA  V02099999999999999999N0000001N1+01071+00691999999ADDMA1999999102001MW1001
0024990061999991931012718004+62000-033000SAO  +00004YA  V02099999999999999999N0000001N1+01071+00691999999ADDMA1999999102031MW1001
0024990061999991931012719004+62000-033000SAO  +00004YA  V02099999999999999999N0000001N1+01071+00691999999ADDMA1999999102001MW1001
0024990061999991931012720004+62000-033000SAO  +00004YA  V02099999999999999999N0000001N1+01131+00691999999ADDMA1999999102071MW1001
0024990061999991931012721004+62000-033000SAO  +00004YA  V02099999999999999999N0000001N1+01131+00741999999ADDMA1999999102101MW1001
0024990061999991931012722004+62000-033000SAO  +00004YA  V02099999999999999999N0000001N1+01131+00741999999ADDMA1999999102131MW1001
0024990061999991931012723004+62000-033000SAO  +00004YA  V02099999999999999999N0000001N1+01071+00741999999ADDMA1999999102071MW1001
0024990061999991931012800004+62000-033000SAO  +00004YA  V02099999999999999999N0000001N1+01071+00741999999ADDMA1999999102071MW1001
0024990061999991931012801004+62000-033000SAO  +00004YA  V02099999999999999999N0000001N1+01131+00741999999ADDMA1999999102031MW1001
0024990061999991931012802004+62000-033000SAO  +00004YA  V02099999999999999999N0000001N1+01191+00961999999ADDMA1999999101931MW1001
0024990061999991931012803004+62000-033000SAO  +00004YA  V02099999999999999999N0000001N1+01191+00961999999ADDMA1999999101961MW1001
0024990061999991931012804004+62000-033000SAO  +00004YA  V02099999999999999999N0000001N1+01191+00961999999ADDMA1999999101901MW1001
0024990061999991931012805004+62000-033000SAO  +00004YA  V02099999999999999999N0000001N1+01191+00961999999ADDMA1999999101791MW1001
0024990061999991931012806004+62000-033000SAO  +00004YA  V02099999999999999999N0000001N1+01241+00961999999ADDMA1999999101761MW1001
0024990061999991931012807004+62000-033000SAO  +00004YA  V02099999999999999999N0000001N1+01241+00961999999ADDMA1999999101791MW1001
0024990061999991931012808004+62000-033000SAO  +00004YA  V02099999999999999999N0000001N1+01301+00961999999ADDMA1999999101861MW1001
0024990061999991931012809004+62000-033000SAO  +00004YA  V02099999999999999999N0000001N1+01301+00961999999ADDMA1999999101831MW1001
0024990061999991931012810004+62000-033000SAO  +00004YA  V02099999999999999999N0000001N1+01351+00961999999ADDMA1999999101961MW1001
0024990061999991931012811004+62000-033000SAO  +00004YA  V02099999999999999999N0000001N1+01351+01021999999ADDMA1999999101931MW1001
0024990061999991931012812004+62000-033000SAO  +00004YA  V02099999999999999999N0000001N1+01411+01021999999ADDMA1999999101831MW1001
0024990061999991931012813004+62000-033000SAO  +00004YA  V02099999999999999999N0000001N1+01351+01071999999ADDMA1999999101791MW1001
0024990061999991931012814004+62000-033000SAO  +00004YA  V02099999999999999999N0000001N1+01351+01071999999ADDMA1999999101591MW1001
0024990061999991931012815004+62000-033000SAO  +00004YA  V02099999999999999999N0000001N1+01411+01071999999ADDMA1999999101461MW1001
0024990061999991931012816004+62000-033000SAO  +00004YA  V02099999999999999999N0000001N1+01411+01131999999ADDMA1999999101421MW1001
0024990061999991931012817004+62000-033000SAO  +00004YA  V02099999999999999999N0000001N1+01411+01131999999ADDMA1999999101391MW1001
0024990061999991931012818004+62000-033000SAO  +00004YA  V02099999999999999999N0000001N1+01411+01131999999ADDMA1999999101421MW1001
0024990061999991931012819004+62000-033000SAO  +00004YA  V02099999999999999999N0000001N1+01411+01131999999ADDMA1999999101461MW1001
0024990061999991931012820004+62000-033000SAO  +00004YA  V02099999999999999999N0000001N1+01461+01191999999ADDMA1999999101491MW1001
0024990061999991931012821004+62000-033000SAO  +00004YA  V02099999999999999999N0000001N1+01461+01191999999ADDMA1999999101461MW1001
0024990061999991931012822004+62000-033000SAO  +00004YA  V02099999999999999999N0000001N1+01521+01241999999ADDMA1999999101461MW1001
0024990061999991931012823004+62000-033000SAO  +00004YA  V02099999999999999999N0000001N1+01521+01301999999ADDMA1999999101461MW1001
0024990061999991931012900004+62000-033000SAO  +00004YA  V02099999999999999999N0000001N1+01571+01301999999ADDMA1999999101461MW1001
0024990061999991931012901004+62000-033000SAO  +00004YA  V02099999999999999999N0000001N1+01571+01351999999ADDMA1999999101421MW1001
0024990061999991931012902004+62000-033000SAO  +00004YA  V02099999999999999999N0000001N1+01571+01351999999ADDMA1999999101491MW1001
0024990061999991931012903004+62000-033000SAO  +00004YA  V02099999999999999999N0000001N1+01521+01351999999ADDMA1999999101391MW1001
0024990061999991931012904004+62000-033000SAO  +00004YA  V02099999999999999999N0000001N1+01521+01351999999ADDMA1999999101351MW1001
0024990061999991931012905004+62000-033000SAO  +00004YA  V02099999999999999999N0000001N1+01571+01411999999ADDMA1999999101321MW1001
0024990061999991931012906004+62000-033000SAO  +00004YA  V02099999999999999999N0000001N1+01571+01411999999ADDMA1999999101321MW1001
0024990061999991931012907004+62000-033000SAO  +00004YA  V02099999999999999999N0000001N1+01571+01411999999ADDMA1999999101391MW1001
0024990061999991931012908004+62000-033000SAO  +00004YA  V02099999999999999999N0000001N1+01631+01461999999ADDMA1999999101421MW1001
0024990061999991931012909004+62000-033000SAO  +00004YA  V02099999999999999999N0000001N1+01631+01461999999ADDMA1999999101491MW1001
0024990061999991931012910004+62000-033000SAO  +00004YA  V02099999999999999999N0000001N1+01631+01461999999ADDMA1999999101591MW1001
0024990061999991931012911004+62000-033000SAO  +00004YA  V02099999999999999999N0000001N1+01691+01521999999ADDMA1999999101591MW1001
0024990061999991931012912004+62000-033000SAO  +00004YA  V02099999999999999999N0000001N1+01741+01571999999ADDMA1999999101561MW1001
0024990061999991931012913004+62000-033000SAO  +00004YA  V02099999999999999999N0000001N1+01801+01571999999ADDMA1999999101491MW1001
0024990061999991931012914004+62000-033000SAO  +00004YA  V02099999999999999999N0000001N1+01911+01571999999ADDMA1999999101351MW1001
0024990061999991931012915004+62000-033000SAO  +00004YA  V02099999999999999999N0000001N1+01851+01571999999ADDMA1999999101251MW1001
0024990061999991931012916004+62000-033000SAO  +00004YA  V02099999999999999999N0000001N1+01801+01571999999ADDMA1999999101221MW1001
0024990061999991931012917004+62000-033000SAO  +00004YA  V02099999999999999999N0000001N1+01801+01631999999ADDMA1999999101221MW1001
0024990061999991931012918004+62000-033000SAO  +00004YA  V02099999999999999999N0000001N1+01741+01631999999ADDMA1999999101251MW1001
0024990061999991931012919004+62000-033000SAO  +00004YA  V02099999999999999999N0000001N1+01741+01631999999ADDMA1999999101251MW1001
0024990061999991931012920004+62000-033000SAO  +00004YA  V02099999999999999999N0000001N1+01741+01631999999ADDMA1999999101321MW1001
0024990061999991931012921004+62000-033000SAO  +00004YA  V02099999999999999999N0000001N1+01741+01631999999ADDMA1999999101421MW1001
0024990061999991931012922004+62000-033000SAO  +00004YA  V02099999999999999999N0000001N1+01741+01691999999ADDMA1999999101461MW1001
0024990061999991931012923004+62000-033000SAO  +00004YA  V02099999999999999999N0000001N1+01741+01691999999ADDMA1999999101491MW1001
0024990061999991931013000004+62000-033000SAO  +00004YA  V02099999999999999999N0000001N1+01741+01691999999ADDMA1999999101521MW1001
0024990061999991931013001004+62000-033000SAO  +00004YA  V02099999999999999999N0000001N1+01741+01691999999ADDMA1999999101491MW1001
0024990061999991931013002004+62000-033000SAO  +00004YA  V02099999999999999999N0000001N1+01801+01691999999ADDMA1999999101491MW1001
0024990061999991931013003004+62000-033000SAO  +00004YA  V02099999999999999999N0000001N1+01801+01691999999ADDMA1999999101461MW1001
0024990061999991931013004004+62000-033000SAO  +00004YA  V02099999999999999999N0000001N1+01801+01691999999ADDMA1999999101421MW1001
0024990061999991931013005004+62000-033000SAO  +00004YA  V02099999999999999999N0000001N1+01801+01691999999ADDMA1999999101421MW1001
0024990061999991931013006004+62000-033000SAO  +00004YA  V02099999999999999999N0000001N1+01801+01691999999ADDMA1999999101421MW1001
0024990061999991931013007004+62000-033000SAO  +00004YA  V02099999999999999999N0000001N1+01801+01691999999ADDMA1999999101491MW1001
0024990061999991931013008004+62000-033000SAO  +00004YA  V02099999999999999999N0000001N1+01851+01691999999ADDMA1999999101521MW1001
0024990061999991931013009004+62000-033000SAO  +00004YA  V02099999999999999999N0000001N1+01851+01691999999ADDMA1999999101631MW1001
0024990061999991931013010004+62000-033000SAO  +00004YA  V02099999999999999999N0000001N1+01911+01691999999ADDMA1999999101731MW1001
0024990061999991931013011004+62000-033000SAO  +00004YA  V02099999999999999999N0000001N1+01911+01691999999ADDMA1999999101791MW1001
0024990061999991931013012004+62000-033000SAO  +00004YA  V02099999999999999999N0000001N1+01961+01691999999ADDMA1999999101791MW1001
0024990061999991931013013004+62000-033000SAO  +00004YA  V02099999999999999999N0000001N1+02021+01691999999ADDMA1999999101731MW1001
0024990061999991931013014004+62000-033000SAO  +00004YA  V02099999999999999999N0000001N1+02021+01691999999ADDMA1999999101631MW1001
0024990061999991931013015004+62000-033000SAO  +00004YA  V02099999999999999999N0000001N1+01961+01691999999ADDMA1999999101521MW1001
0024990061999991931013016004+62000-033000SAO  +00004YA  V02099999999999999999N0000001N1+02021+01741999999ADDMA1999999101461MW1001
0024990061999991931013017004+62000-033000SAO  +00004YA  V02099999999999999999N0000001N1+01961+01741999999ADDMA1999999101461MW1001
0024990061999991931013018004+62000-033000SAO  +00004YA  V02099999999999999999N0000001N1+01911+01741999999ADDMA1999999101491MW1001
0024990061999991931013019004+62000-033000SAO  +00004YA  V02099999999999999999N0000001N1+01851+01691999999ADDMA1999999101521MW1001
0024990061999991931013020004+62000-033000SAO  +00004YA  V02099999999999999999N0000001N1+01801+01741999999ADDMA1999999101521MW1001
0024990061999991931013021004+62000-033000SAO  +00004YA  V02099999999999999999N0000001N1+01801+01741999999ADDMA1999999101591MW1001
0024990061999991931013022004+62000-033000SAO  +00004YA  V02099999999999999999N0000001N1+01851+01741999999ADDMA1999999101631MW1001
0024990061999991931013023004+62000-033000SAO  +00004YA  V02099999999999999999N0000001N1+01851+01741999999ADDMA1999999101631MW1001
0024990061999991931013100004+62000-033000SAO  +00004YA  V02099999999999999999N0000001N1+01851+01801999999ADDMA1999999101661MW1001
0024990061999991931013101004+62000-033000SAO  +00004YA  V02099999999999999999N0000001N1+01851+01801999999ADDMA1999999101661MW1001
0024990061999991931013102004+62000-033000SAO  +00004YA  V02099999999999999999N0000001N1+01911+01801999999ADDMA1999999101631MW1001
0024990061999991931013103004+62000-033000SAO  +00004YA  V02099999999999999999N0000001N1+01851+01801999999ADDMA1999999101591MW1001
0024990061999991931013104004+62000-033000SAO  +00004YA  V02099999999999999999N0000001N1+01911+01801999999ADDMA1999999101561MW1001
0024990061999991931013105004+62000-033000SAO  +00004YA  V02099999999999999999N0000001N1+01911+01801999999ADDMA1999999101521MW1001
0024990061999991931013106004+62000-033000SAO  +00004YA  V02099999999999999999N0000001N1+01911+01801999999ADDMA1999999101521MW1001
0024990061999991931013107004+62000-033000SAO  +00004YA  V02099999999999999999N0000001N1+01851+01801999999ADDMA1999999101521MW1001
0024990061999991931013108004+62000-033000SAO  +00004YA  V02099999999999999999N0000001N1+01851+01801999999ADDMA1999999101591MW1001
0024990061999991931013109004+62000-033000SAO  +00004YA  V02099999999999999999N0000001N1+01911+01851999999ADDMA1999999101631MW1001
0024990061999991931013110004+62000-033000SAO  +00004YA  V02099999999999999999N0000001N1+02021+01851999999ADDMA1999999101731MW1001
0024990061999991931013111004+62000-033000SAO  +00004YA  V02099999999999999999N0000001N1+02181+01851999999ADDMA1999999101761MW1001
0024990061999991931013112004+62000-033000SAO  +00004YA  V02099999999999999999N0000001N1+02131+01851999999ADDMA1999999101731MW1001
0024990061999991931013113004+62000-033000SAO  +00004YA  V02099999999999999999N0000001N1+02071+01851999999ADDMA1999999101691MW1001
0024990061999991931013114004+62000-033000SAO  +00004YA  V02099999999999999999N0000001N1+02131+01851999999ADDMA1999999101561MW1001
0024990061999991931013115004+62000-033000SAO  +00004YA  V02099999999999999999N0000001N1+02241+01911999999ADDMA1999999101461MW1001
0024990061999991931013116004+62000-033000SAO  +00004YA  V02099999999999999999N0000001N1+02241+01851999999ADDMA1999999101351MW1001
0024990061999991931013117004+62000-033000SAO  +00004YA  V02099999999999999999N0000001N1+02181+01911999999ADDMA1999999101391MW1001
0024990061999991931013118004+62000-033000SAO  +00004YA  V02099999999999999999N0000001N1+02071+01801999999ADDMA1999999101421MW1001
0024990061999991931013119004+62000-033000SAO  +00004YA  V02099999999999999999N0000001N1+02021+01801999999ADDMA1999999101421MW1001
0024990061999991931013120004+62000-033000SAO  +00004YA  V02099999999999999999N0000001N1+01961+01801999999ADDMA1999999101461MW1001
0024990061999991931013121004+62000-033000SAO  +00004YA  V02099999999999999999N0000001N1+01961+01851999999ADDMA1999999101491MW1001
0024990061999991931013122004+62000-033000SAO  +00004YA  V02099999999999999999N0000001N1+01911+01851999999ADDMA1999999101491MW1001
0024990061999991931013123004+62000-033000SAO  +00004YA  V02099999999999999999N0000001N1+01911+01801999999ADDMA1999999101521MW1001
0024990061999991931020100004+62000-033000SAO  +00004YA  V02099999999999999999N0000001N1+01911+01801999999ADDMA1999999101521MW1001
0024990061999991931020101004+62000-033000SAO  +00004YA  V02099999999999999999N0000001N1+01911+01851999999ADDMA1999999101491MW1001
0024990061999991931020102004+62000-033000SAO  +00004YA  V02099999999999999999N0000001N1+01851+01851999999ADDMA1999999101491MW1001
0024990061999991931020103004+62000-033000SAO  +00004YA  V02099999999999999999N0000001N1+01851+01801999999ADDMA1999999101391MW1001
0024990061999991931020104004+62000-033000SAO  +00004YA  V02099999999999999999N0000001N1+01801+01741999999ADDMA1999999101391MW1001
0024990061999991931020105004+62000-033000SAO  +00004YA  V02099999999999999999N0000001N1+01801+01741999999ADDMA1999999101391MW1001
0024990061999991931020106004+62000-033000SAO  +00004YA  V02099999999999999999N0000001N1+01851+01801999999ADDMA1999999101351MW1001
0024990061999991931020107004+62000-033000SAO  +00004YA  V02099999999999999999N0000001N1+01911+01801999999ADDMA1999999101391MW1001
0024990061999991931020108004+62000-033000SAO  +00004YA  V02099999999999999999N0000001N1+01851+01801999999ADDMA1999999101421MW1001
0024990061999991931020109004+62000-033000SAO  +00004YA  V02099999999999999999N0000001N1+01961+01851999999ADDMA1999999101491MW1001
0024990061999991931020110004+62000-033000SAO  +00004YA  V02099999999999999999N0000001N1+01911+01801999999ADDMA1999999101561MW1001
0024990061999991931020111004+62000-033000SAO  +00004YA  V02099999999999999999N0000001N1+01961+01801999999ADDMA1999999101561MW1001
0024990061999991931020112004+62000-033000SAO  +00004YA  V02099999999999999999N0000001N1+01961+01801999999ADDMA1999999101521MW1001
0024990061999991931020113004+62000-033000SAO  +00004YA  V02099999999999999999N0000001N1+01961+01851999999ADDMA1999999101421MW1001
0024990061999991931020114004+62000-033000SAO  +00004YA  V02099999999999999999N0000001N1+02021+01851999999ADDMA1999999101321MW1001
0024990061999991931020115004+62000-033000SAO  +00004YA  V02099999999999999999N0000001N1+02131+01911999999ADDMA1999999101221MW1001
0024990061999991931020116004+62000-033000SAO  +00004YA  V02099999999999999999N0000001N1+02181+01911999999ADDMA1999999101151MW1001
0024990061999991931020117004+62000-033000SAO  +00004YA  V02099999999999999999N0000001N1+02181+01911999999ADDMA1999999101121MW1001
0024990061999991931020118004+62000-033000SAO  +00004YA  V02099999999999999999N0000001N1+02181+01911999999ADDMA1999999101121MW1001
0024990061999991931020119004+62000-033000SAO  +00004YA  V02099999999999999999N0000001N1+02071+01851999999ADDMA1999999101121MW1001
0024990061999991931020120004+62000-033000SAO  +00004YA  V02099999999999999999N0000001N1+02181+01911999999ADDMA1999999101121MW1001
0024990061999991931020121004+62000-033000SAO  +00004YA  V02099999999999999999N0000001N1+02071+01911999999ADDMA1999999101151MW1001
0024990061999991931020122004+62000-033000SAO  +00004YA  V02099999999999999999N0000001N1+02131+01911999999ADDMA1999999101151MW1001
0024990061999991931020123004+62000-033000SAO  +00004YA  V02099999999999999999N0000001N1+02071+01911999999ADDMA1999999101151MW1001
0024990061999991931020200004+62000-033000SAO  +00004YA  V02099999999999999999N0000001N1+02071+01911999999ADDMA1999999101151MW1001
