0024990061999991930010100004+62000-033000SAO  +00004YA  V02099999999999999999N0000001N1+01521+01411999999ADDMA1999999101861MW1001
0024990061999991930010101004+62000-033000SAO  +00004YA  V02099999999999999999N0000001N1+01521+01351999999ADDMA1999999101831MW1001
0024990061999991930010102004+62000-033000SAO  +00004YA  V02099999999999999999N0000001N1+01571+01351999999ADDMA1999999101791MW1001
0024990061999991930010103004+62000-033000SAO  +00004YA  V02099999999999999999N0000001N1+01631+01351999999ADDMA1999999101761MW1001
0024990061999991930010104004+62000-033000SAO  +00004YA  V02099999999999999999N0000001N1+01631+01351999999ADDMA1999999101691MW1001
0024990061999991930010105004+62000-033000SAO  +00004YA  V02099999999999999999N0000001N1+01631+01351999999ADDMA1999999101661MW1001
0024990061999991930010106004+62000-033000SAO  +00004YA  V02099999999999999999N0000001N1+01631+01351999999ADDMA1999999101661MW1001
0024990061999991930010107004+62000-033000SAO  +00004YA  V02099999999999999999N0000001N1+01631+01351999999ADDMA1999999101661MW1001
0024990061999991930010108004+62000-033000SAO  +00004YA  V02099999999999999999N0000001N1+01631+01411999999ADDMA1999999101691MW1001
0024990061999991930010109004+62000-033000SAO  +00004YA  V02099999999999999999N0000001N1+01691+01411999999ADDMA1999999101761MW1001
0024990061999991930010111004+62000-033000SAO  +00004YA  V02099999999999999999N0000001N1+01801+01521999999ADDMA1999999101861MW1001
0024990061999991930010112004+62000-033000SAO  +00004YA  V02099999999999999999N0000001N1+01801+01521999999ADDMA1999999101831MW1001
0024990061999991930010113004+62000-033000SAO  +00004YA  V02099999999999999999N0000001N1+01851+01521999999ADDMA1999999101761MW1001
0024990061999991930010114004+62000-033000SAO  +00004YA  V02099999999999999999N0000001N1+01961+01521999999ADDMA1999999101591MW1001
0024990061999991930010115004+62000-033000SAO  +00004YA  V02099999999999999999N0000001N1+01961+01571999999ADDMA1999999101491MW1001
0024990061999991930010116004+62000-033000SAO  +00004YA  V02099999999999999999N0000001N1+01851+01571999999ADDMA1999999101491MW1001
0024990061999991930010117004+62000-033000SAO  +00004YA  V02099999999999999999N0000001N1+01801+01571999999ADDMA1999999101421MW1001
0024990061999991930010118004+62000-033000SAO  +00004YA  V02099999999999999999N0000001N1+01801+01631999999ADDMA1999999101461MW1001
0024990061999991930010119004+62000-033000SAO  +00004YA  V02099999999999999999N0000001N1+01801+01631999999ADDMA1999999101491MW1001
0024990061999991930010120004+62000-033000SAO  +00004YA  V02099999999999999999N0000001N1+01741+01631999999ADDMA1999999101491MW1001
0024990061999991930010121004+62000-033000SAO  +00004YA  V02099999999999999999N0000001N1+01801+01631999999ADDMA1999999101561MW1001
0024990061999991930010122004+62000-033000SAO  +00004YA  V02099999999999999999N0000001N1+01801+01631999999ADDMA1999999101591MW1001
0024990061999991930010123004+62000-033000SAO  +00004YA  V02099999999999999999N0000001N1+01801+01631999999ADDMA1999999101521MW1001
0024990061999991930010200004+62000-033000SAO  +00004YA  V02099999999999999999N0000001N1+01801+01631999999ADDMA1999999101521MW1001
0024990061999991930010201004+62000-033000SAO  +00004YA  V02099999999999999999N0000001N1+01801+01631999999ADDMA1999999101461MW1001
0024990061999991930010202004+62000-033000SAO  +00004YA  V02099999999999999999N0000001N1+01741+01691999999ADDMA1999999101421MW1001
0024990061999991930010203004+62000-033000SAO  +00004YA  V02099999999999999999N0000001N1+01741+01691999999ADDMA1999999101351MW1001
0024990061999991930010204004+62000-033000SAO  +00004YA  V02099999999999999999N0000001N1+01801+01691999999ADDMA1999999101351MW1001
0024990061999991930010205004+62000-033000SAO  +00004YA  V02099999999999999999N0000001N1+01851+01691999999ADDMA1999999101391MW1001
0024990061999991930010206004+62000-033000SAO  +00004YA  V02099999999999999999N0000001N1+01851+01691999999ADDMA1999999101421MW1001
0024990061999991930010207004+62000-033000SAO  +00004YA  V02099999999999999999N0000001N1+01851+01691999999ADDMA1999999101391MW1001
0024990061999991930010208004+62000-033000SAO  +00004YA  V02099999999999999999N0000001N1+01851+01741999999ADDMA1999999101421MW1001
0024990061999991930010209004+62000-033000SAO  +00004YA  V02099999999999999999N0000001N1+01911+01741999999ADDMA1999999101461MW1001
0024990061999991930010210004+62000-033000SAO  +00004YA  V02099999999999999999N0000001N1+02071+01801999999ADDMA1999999101461MW1001
0024990061999991930010211004+62000-033000SAO  +00004YA  V02099999999999999999N0000001N1+02131+01801999999ADDMA1999999101491MW1001
0024990061999991930010212004+62000-033000SAO  +00004YA  V02099999999999999999N0000001N1+02071+01801999999ADDMA1999999101461MW1001
0024990061999991930010213004+62000-033000SAO  +00004YA  V02099999999999999999N0000001N1+02131+01801999999ADDMA1999999101351MW1001
0024990061999991930010214004+62000-033000SAO  +00004YA  V02099999999999999999N0000001N1+02071+01801999999ADDMA1999999101251MW1001
0024990061999991930010215004+62000-033000SAO  +00004YA  V02099999999999999999N0000001N1+02181+01851999999ADDMA1999999101151MW1001
0024990061999991930010216004+62000-033000SAO  +00004YA  V02099999999999999999N0000001N1+02131+01851999999ADDMA1999999101121MW1001
0024990061999991930010217004+62000-033000SAO  +00004YA  V02099999999999999999N0000001N1+02131+01801999999ADDMA1999999101121MW1001
0024990061999991930010218004+62000-033000SAO  +00004YA  V02099999999999999999N0000001N1+02071+01801999999ADDMA1999999101121MW1001
0024990061999991930010219004+62000-033000SAO  +00004YA  V02099999999999999999N0000001N1+01961+01801999999ADDMA1999999101191MW1001
0024990061999991930010220004+62000-033000SAO  +00004YA  V02099999999999999999N0000001N1+01961+01801999999ADDMA1999999101221MW1001
0024990061999991930010221004+62000-033000SAO  +00004YA  V02099999999999999999N0000001N1+01961+01801999999ADDMA1999999101251MW1001
0024990061999991930010222004+62000-033000SAO  +00004YA  V02099999999999999999N0000001N1+01961+01851999999ADDMA1999999101291MW1001
0024990061999991930010223004+62000-033000SAO  +00004YA  V02099999999999999999N0000001N1+01911+01801999999ADDMA1999999101291MW1001
0024990061999991930010300004+62000-033000SAO  +00004YA  V02099999999999999999N0000001N1+01911+01801999999ADDMA1999999101251MW1001
0024990061999991930010301004+62000-033000SAO  +00004YA  V02099999999999999999N0000001N1+01851+01741999999ADDMA1999999101221MW1001
0024990061999991930010302004+62000-033000SAO  +00004YA  V02099999999999999999N0000001N1+01851+01741999999ADDMA1999999101221MW1001
0024990061999991930010303004+62000-033000SAO  +00004YA  V02099999999999999999N0000001N1+01851+01741999999ADDMA1999999101221MW1001
0024990061999991930010304004+62000-033000SAO  +00004YA  V02099999999999999999N0000001N1+01851+01741999999ADDMA1999999101191MW1001
0024990061999991930010305004+62000-033000SAO  +00004YA  V02099999999999999999N0000001N1+01801+01741999999ADDMA1999999101191MW1001
0024990061999991930010306004+62000-033000SAO  +00004YA  V02099999999999999999N0000001N1+01801+01741999999ADDMA1999999101191MW1001
0024990061999991930010307004+62000-033000SAO  +00004YA  V02099999999999999999N0000001N1+01851+01801999999ADDMA1999999101251MW1001
0024990061999991930010308004+62000-033000SAO  +00004YA  V02099999999999999999N0000001N1+01851+01801999999ADDMA1999999101291MW1001
0024990061999991930010309004+62000-033000SAO  +00004YA  V02099999999999999999N0000001N1+01851+01801999999ADDMA1999999101391MW1001
0024990061999991930010310004+62000-033000SAO  +00004YA  V02099999999999999999N0000001N1+01911+01801999999ADDMA1999999101421MW1001
0024990061999991930010311004+62000-033000SAO  +00004YA  V02099999999999999999N0000001N1+02021+01911999999ADDMA1999999101421MW1001
0024990061999991930010312004+62000-033000SAO  +00004YA  V02099999999999999999N0000001N1+02071+01851999999ADDMA1999999101421MW1001
0024990061999991930010313004+62000-033000SAO  +00004YA  V02099999999999999999N0000001N1+02131+01851999999ADDMA1999999101351MW1001
0024990061999991930010314004+62000-033000SAO  +00004YA  V02099999999999999999N0000001N1+02181+01801999999ADDMA1999999101221MW1001
0024990061999991930010315004+62000-033000SAO  +00004YA  V02099999999999999999N0000001N1+02131+01801999999ADDMA1999999101151MW1001
0024990061999991930010316004+62000-033000SAO  +00004YA  V02099999999999999999N0000001N1+02021+01691999999ADDMA1999999101151MW1001
0024990061999991930010317004+62000-033000SAO  +00004YA  V02099999999999999999N0000001N1+01851+01571999999ADDMA1999999101151MW1001
0024990061999991930010318004+62000-033000SAO  +00004YA  V02099999999999999999N0000001N1+01851+01571999999ADDMA1999999101191MW1001
0024990061999991930010319004+62000-033000SAO  +00004YA  V02099999999999999999N0000001N1+01741+01521999999ADDMA1999999101221MW1001
0024990061999991930010320004+62000-033000SAO  +00004YA  V02099999999999999999N0000001N1+01691+01521999999ADDMA1999999101321MW1001
0024990061999991930010321004+62000-033000SAO  +00004YA  V02099999999999999999N0000001N1+01691+01521999999ADDMA1999999101391MW1001
0024990061999991930010322004+62000-033000SAO  +00004YA  V02099999999999999999N0000001N1+01691+01461999999ADDMA1999999101421MW1001
0024990061999991930010323004+62000-033000SAO  +00004YA  V02099999999999999999N0000001N1+01691+01411999999ADDMA1999999101461MW1001
0024990061999991930010400004+62000-033000SAO  +00004YA  V02099999999999999999N0000001N1+01691+01461999999ADDMA1999999101491MW1001
0024990061999991930010401004+62000-033000SAO  +00004YA  V02099999999999999999N0000001N1+01691+01411999999ADDMA1999999101521MW1001
0024990061999991930010402004+62000-033000SAO  +00004YA  V02099999999999999999N0000001N1+01691+01521999999ADDMA1999999101561MW1001
0024990061999991930010403004+62000-033000SAO  +00004YA  V02099999999999999999N0000001N1+01631+01351999999ADDMA1999999101561MW1001
0024990061999991930010404004+62000-033000SAO  +00004YA  V02099999999999999999N0000001N1+01631+01301999999ADDMA1999999101521MW1001
0024990061999991930010405004+62000-033000SAO  +00004YA  V02099999999999999999N0000001N1+01461+01191999999ADDMA1999999101561MW1001
0024990061999991930010406004+62000-033000SAO  +00004YA  V02099999999999999999N0000001N1+01351+01071999999ADDMA1999999101591MW1001
0024990061999991930010407004+62000-033000SAO  +00004YA  V02099999999999999999N0000001N1+01411+01071999999ADDMA1999999101661MW1001
0024990061999991930010408004+62000-033000SAO  +00004YA  V02099999999999999999N0000001N1+01411+01021999999ADDMA1999999101761MW1001
0024990061999991930010409004+62000-033000SAO  +00004YA  V02099999999999999999N0000001N1+01411+01071999999ADDMA1999999101831MW1001
0024990061999991930010410004+62000-033000SAO  +00004YA  V02099999999999999999N0000001N1+01411+01021999999ADDMA1999999101931MW1001
0024990061999991930010411004+62000-033000SAO  +00004YA  V02099999999999999999N0000001N1+01411+01021999999ADDMA1999999102001MW1001
0024990061999991930010412004+62000-033000SAO  +00004YA  V02099999999999999999N0000001N1+01411+01021999999ADDMA1999999101931MW1001
0024990061999991930010413004+62000-033000SAO  +00004YA  V02099999999999999999N0000001N1+01411+01021999999ADDMA1999999101901MW1001
0024990061999991930010414004+62000-033000SAO  +00004YA  V02099999999999999999N0000001N1+01411+00961999999ADDMA1999999101831MW1001
0024990061999991930010415004+62000-033000SAO  +00004YA  V02099999999999999999N0000001N1+01411+00961999999ADDMA1999999101761MW1001
0024990061999991930010416004+62000-033000SAO  +00004YA  V02099999999999999999N0000001N1+01351+00961999999ADDMA1999999101761MW1001
0024990061999991930010417004+62000-033000SAO  +00004YA  V02099999999999999999N0000001N1+01411+00961999999ADDMA1999999101731MW1001
0024990061999991930010418004+62000-033000SAO  +00004YA  V02099999999999999999N0000001N1+01351+00961999999ADDMA1999999101731MW1001
0024990061999991930010419004+62000-033000SAO  +00004YA  V02099999999999999999N0000001N1+01351+01021999999ADDMA1999999101791MW1001
0024990061999991930010420004+62000-033000SAO  +00004YA  V02099999999999999999N0000001N1+01411+01021999999ADDMA1999999101791MW1001
0024990061999991930010421004+62000-033000SAO  +00004YA  V02099999999999999999N0000001N1+01351+01071999999ADDMA1999999101861MW1001
0024990061999991930010422004+62000-033000SAO  +00004YA  V02099999999999999999N0000001N1+01351+01071999999ADDMA1999999101931MW1001
0024990061999991930010423004+62000-033000SAO  +00004YA  V02099999999999999999N0000001N1+01301+01021999999ADDMA1999999101931MW1001
0024990061999991930010500004+62000-033000SAO  +00004YA  V02099999999999999999N0000001N1+01351+01071999999ADDMA1999999101901MW1001
0024990061999991930010501004+62000-033000SAO  +00004YA  V02099999999999999999N0000001N1+01351+01021999999ADDMA1999999101901MW1001
0024990061999991930010502004+62000-033000SAO  +00004YA  V02099999999999999999N0000001N1+01301+01021999999ADDMA1999999101931MW1001
0024990061999991930010503004+62000-033000SAO  +00004YA  V02099999999999999999N0000001N1+01301+01021999999ADDMA1999999101961MW1001
0024990061999991930010504004+62000-033000SAO  +00004YA  V02099999999999999999N0000001N1+01241+00961999999ADDMA1999999101901MW1001
0024990061999991930010505004+62000-033000SAO  +00004YA  V02099999999999999999N0000001N1+01241+00911999999ADDMA1999999101931MW1001
0024990061999991930010506004+62000-033000SAO  +00004YA  V02099999999999999999N0000001N1+01191+00851999999ADDMA1999999101931MW1001
0024990061999991930010507004+62000-033000SAO  +00004YA  V02099999999999999999N0000001N1+01131+00801999999ADDMA1999999101961MW1001
0024990061999991930010508004+62000-033000SAO  +00004YA  V02099999999999999999N0000001N1+01131+00801999999ADDMA1999999102071MW1001
0024990061999991930010509004+62000-033000SAO  +00004YA  V02099999999999999999N0000001N1+01131+00741999999ADDMA1999999102131MW1001
0024990061999991930010510004+62000-033000SAO  +00004YA  V02099999999999999999N0000001N1+01191+00741999999ADDMA1999999102201MW1001
0024990061999991930010511004+62000-033000SAO  +00004YA  V02099999999999999999N0000001N1+01131+00741999999ADDMA1999999102271MW1001
0024990061999991930010512004+62000-033000SAO  +00004YA  V02099999999999999999N0000001N1+01191+00741999999ADDMA1999999102201MW1001
0024990061999991930010513004+62000-033000SAO  +00004YA  V02099999999999999999N0000001N1+01191+00741999999ADDMA1999999102131MW1001
0024990061999991930010514004+62000-033000SAO  +00004YA  V02099999999999999999N0000001N1+01191+00801999999ADDMA1999999102031MW1001
0024990061999991930010515004+62000-033000SAO  +00004YA  V02099999999999999999N0000001N1+01131+00691999999ADDMA1999999102001MW1001
0024990061999991930010516004+62000-033000SAO  +00004YA  V02099999999999999999N0000001N1+01131+00581999999ADDMA1999999101931MW1001
0024990061999991930010517004+62000-033000SAO  +00004YA  V02099999999999999999N0000001N1+01131+00521999999ADDMA1999999101961MW1001
0024990061999991930010518004+62000-033000SAO  +00004YA  V02099999999999999999N0000001N1+01071+00461999999ADDMA1999999102031MW1001
0024990061999991930010519004+62000-033000SAO  +00004YA  V02099999999999999999N0000001N1+01021+00461999999ADDMA1999999102101MW1001
0024990061999991930010520004+62000-033000SAO  +00004YA  V02099999999999999999N0000001N1+00961+00461999999ADDMA1999999102131MW1001
0024990061999991930010521004+62000-033000SAO  +00004YA  V02099999999999999999N0000001N1+00961+00521999999ADDMA1999999102171MW1001
0024990061999991930010522004+62000-033000SAO  +00004YA  V02099999999999999999N0000001N1+00961+00521999999ADDMA1999999102201MW1001
0024990061999991930010523004+62000-033000SAO  +00004YA  V02099999999999999999N0000001N1+00961+00521999999ADDMA1999999102241MW1001
0024990061999991930010600004+62000-033000SAO  +00004YA  V02099999999999999999N0000001N1+00961+00521999999ADDMA1999999102241MW1001
0024990061999991930010601004+62000-033000SAO  +00004YA  V02099999999999999999N0000001N1+00911+00521999999ADDMA1999999102241MW1001
0024990061999991930010602004+62000-033000SAO  +00004YA  V02099999999999999999N0000001N1+00961+00461999999ADDMA1999999102241MW1001
0024990061999991930010603004+62000-033000SAO  +00004YA  V02099999999999999999N0000001N1+00961+00521999999ADDMA1999999102241MW1001
0024990061999991930010604004+62000-033000SAO  +00004YA  V02099999999999999999N0000001N1+00961+00521999999ADDMA1999999102241MW1001
0024990061999991930010605004+62000-033000SAO  +00004YA  V02099999999999999999N0000001N1+00961+00461999999ADDMA1999999102241MW1001
0024990061999991930010606004+62000-033000SAO  +00004YA  V02099999999999999999N0000001N1+00961+00521999999ADDMA1999999102271MW1001
0024990061999991930010607004+62000-033000SAO  +00004YA  V02099999999999999999N0000001N1+00911+00461999999ADDMA1999999102301MW1001
0024990061999991930010608004+62000-033000SAO  +00004YA  V02099999999999999999N0000001N1+01021+00521999999ADDMA1999999102371MW1001
0024990061999991930010609004+62000-033000SAO  +00004YA  V02099999999999999999N0000001N1+00961+00521999999ADDMA1999999102441MW1001
0024990061999991930010610004+62000-033000SAO  +00004YA  V02099999999999999999N0000001N1+01071+00521999999ADDMA1999999102471MW1001
0024990061999991930010611004+62000-033000SAO  +00004YA  V02099999999999999999N0000001N1+01191+00521999999ADDMA1999999102511MW1001
0024990061999991930010612004+62000-033000SAO  +00004YA  V02099999999999999999N0000001N1+01241+00521999999ADDMA1999999102471MW1001
0024990061999991930010613004+62000-033000SAO  +00004YA  V02099999999999999999N0000001N1+01351+00581999999ADDMA1999999102371MW1001
0024990061999991930010614004+62000-033000SAO  +00004YA  V02099999999999999999N0000001N1+01461+00631999999ADDMA1999999102271MW1001
0024990061999991930010615004+62000-033000SAO  +00004YA  V02099999999999999999N0000001N1+01521+00631999999ADDMA1999999102171MW1001
0024990061999991930010616004+62000-033000SAO  +00004YA  V02099999999999999999N0000001N1+01461+00581999999ADDMA1999999102101MW1001
0024990061999991930010617004+62000-033000SAO  +00004YA  V02099999999999999999N0000001N1+01411+00581999999ADDMA1999999102131MW1001
0024990061999991930010618004+62000-033000SAO  +00004YA  V02099999999999999999N0000001N1+01411+00581999999ADDMA1999999102171MW1001
0024990061999991930010619004+62000-033000SAO  +00004YA  V02099999999999999999N0000001N1+01351+00631999999ADDMA1999999102201MW1001
0024990061999991930010620004+62000-033000SAO  +00004YA  V02099999999999999999N0000001N1+01241+00461999999ADDMA1999999102271MW1001
0024990061999991930010621004+62000-033000SAO  +00004YA  V02099999999999999999N0000001N1+01191+00521999999ADDMA1999999102301MW1001
0024990061999991930010622004+62000-033000SAO  +00004YA  V02099999999999999999N0000001N1+01131+00461999999ADDMA1999999102371MW1001
0024990061999991930010623004+62000-033000SAO  +00004YA  V02099999999999999999N0000001N1+01021+00461999999ADDMA1999999102401MW1001
0024990061999991930010700004+62000-033000SAO  +00004YA  V02099999999999999999N0000001N1+01131+00461999999ADDMA1999999102371MW1001
0024990061999991930010701004+62000-033000SAO  +00004YA  V02099999999999999999N0000001N1+01191+00521999999ADDMA1999999102371MW1001
0024990061999991930010702004+62000-033000SAO  +00004YA  V02099999999999999999N0000001N1+01131+00581999999ADDMA1999999102401MW1001
0024990061999991930010703004+62000-033000SAO  +00004YA  V02099999999999999999N0000001N1+01131+00581999999ADDMA1999999102401MW1001
0024990061999991930010704004+62000-033000SAO  +00004YA  V02099999999999999999N0000001N1+01071+00581999999ADDMA1999999102371MW1001
0024990061999991930010705004+62000-033000SAO  +00004YA  V02099999999999999999N0000001N1+01021+00521999999ADDMA1999999102401MW1001
0024990061999991930010706004+62000-033000SAO  +00004YA  V02099999999999999999N0000001N1+01021+00521999999ADDMA1999999102441MW1001
0024990061999991930010708004+62000-033000SAO  +00004YA  V02099999999999999999N0000001N1+00961+00461999999ADDMA1999999102541MW1001
0024990061999991930010709004+62000-033000SAO  +00004YA  V02099999999999999999N0000001N1+01021+00521999999ADDMA1999999102641MW1001
0024990061999991930010710004+62000-033000SAO  +00004YA  V02099999999999999999N0000001N1+01071+00581999999ADDMA1999999102681MW1001
0024990061999991930010711004+62000-033000SAO  +00004YA  V02099999999999999999N0000001N1+01131+00581999999ADDMA1999999102711MW1001
0024990061999991930010712004+62000-033000SAO  +00004YA  V02099999999999999999N0000001N1+01191+00521999999ADDMA1999999102681MW1001
0024990061999991930010713004+62000-033000SAO  +00004YA  V02099999999999999999N0000001N1+01241+00461999999ADDMA1999999102611MW1001
0024990061999991930010714004+62000-033000SAO  +00004YA  V02099999999999999999N0000001N1+01301+00521999999ADDMA1999999102471MW1001
0024990061999991930010715004+62000-033000SAO  +00004YA  V02099999999999999999N0000001N1+01411+00521999999ADDMA1999999102371MW1001
0024990061999991930010716004+62000-033000SAO  +00004YA  V02099999999999999999N0000001N1+01411+00581999999ADDMA1999999102271MW1001
0024990061999991930010717004+62000-033000SAO  +00004YA  V02099999999999999999N0000001N1+01411+00521999999ADDMA1999999102241MW1001
0024990061999991930010718004+62000-033000SAO  +00004YA  V02099999999999999999N0000001N1+01301+00351999999ADDMA1999999102301MW1001
0024990061999991930010719004+62000-033000SAO  +00004YA  V02099999999999999999N0000001N1+01191+00301999999ADDMA1999999102371MW1001
0024990061999991930010720004+62000-033000SAO  +00004YA  V02099999999999999999N0000001N1+01071+00241999999ADDMA1999999102441MW1001
0024990061999991930010721004+62000-033000SAO  +00004YA  V02099999999999999999N0000001N1+00961+00241999999ADDMA1999999102511MW1001
0024990061999991930010722004+62000-033000SAO  +00004YA  V02099999999999999999N0000001N1+00911+00301999999ADDMA1999999102511MW1001
0024990061999991930010723004+62000-033000SAO  +00004YA  V02099999999999999999N0000001N1+00851+00241999999ADDMA1999999102511MW1001
0024990061999991930010800004+62000-033000SAO  +00004YA  V02099999999999999999N0000001N1+00911+00301999999ADDMA1999999102511MW1001
0024990061999991930010801004+62000-033000SAO  +00004YA  V02099999999999999999N0000001N1+00851+00241999999ADDMA1999999102511MW1001
0024990061999991930010802004+62000-033000SAO  +00004YA  V02099999999999999999N0000001N1+00801+00301999999ADDMA1999999102471MW1001
0024990061999991930010803004+62000-033000SAO  +00004YA  V02099999999999999999N0000001N1+00801+00301999999ADDMA1999999102471MW1001
0024990061999991930010804004+62000-033000SAO  +00004YA  V02099999999999999999N0000001N1+00741+00191999999ADDMA1999999102441MW1001
0024990061999991930010805004+62000-033000SAO  +00004YA  V02099999999999999999N0000001N1+00631+00191999999ADDMA1999999102471MW1001
0024990061999991930010806004+62000-033000SAO  +00004YA  V02099999999999999999N0000001N1+00631+00081999999ADDMA1999999102511MW1001
0024990061999991930010807004+62000-033000SAO  +00004YA  V02099999999999999999N0000001N1+00581+00131999999ADDMA1999999102571MW1001
0024990061999991930010808004+62000-033000SAO  +00004YA  V02099999999999999999N0000001N1+00521+00081999999ADDMA1999999102611MW1001
0024990061999991930010809004+62000-033000SAO  +00004YA  V02099999999999999999N0000001N1+00631+00081999999ADDMA1999999102681MW1001
0024990061999991930010810004+62000-033000SAO  +00004YA  V02099999999999999999N0000001N1+00911+00191999999ADDMA1999999102681MW1001
0024990061999991930010811004+62000-033000SAO  +00004YA  V02099999999999999999N0000001N1+00961+00191999999ADDMA1999999102641MW1001
0024990061999991930010812004+62000-033000SAO  +00004YA  V02099999999999999999N0000001N1+01191+00241999999ADDMA1999999102571MW1001
0024990061999991930010813004+62000-033000SAO  +00004YA  V02099999999999999999N0000001N1+01301+00241999999ADDMA1999999102441MW1001
0024990061999991930010814004+62000-033000SAO  +00004YA  V02099999999999999999N0000001N1+01411+00351999999ADDMA1999999102301MW1001
0024990061999991930010815004+62000-033000SAO  +00004YA  V02099999999999999999N0000001N1+01411+00241999999ADDMA1999999102201MW1001
0024990061999991930010816004+62000-033000SAO  +00004YA  V02099999999999999999N0000001N1+01411+00301999999ADDMA1999999102131MW1001
0024990061999991930010817004+62000-033000SAO  +00004YA  V02099999999999999999N0000001N1+01411+00301999999ADDMA1999999102131MW1001
0024990061999991930010818004+62000-033000SAO  +00004YA  V02099999999999999999N0000001N1+01351+00241999999ADDMA1999999102201MW1001
0024990061999991930010819004+62000-033000SAO  +00004YA  V02099999999999999999N0000001N1+01241+00191999999ADDMA1999999102241MW1001
0024990061999991930010820004+62000-033000SAO  +00004YA  V02099999999999999999N0000001N1+01131+00191999999ADDMA1999999102301MW1001
0024990061999991930010821004+62000-033000SAO  +00004YA  V02099999999999999999N0000001N1+01071+00191999999ADDMA1999999102301MW1001
0024990061999991930010822004+62000-033000SAO  +00004YA  V02099999999999999999N0000001N1+01071+00191999999ADDMA1999999102301MW1001
0024990061999991930010823004+62000-033000SAO  +00004YA  V02099999999999999999N0000001N1+01071+00191999999ADDMA1999999102341MW1001
0024990061999991930010900004+62000-033000SAO  +00004YA  V02099999999999999999N0000001N1+01071+00191999999ADDMA1999999102341MW1001
0024990061999991930010901004+62000-033000SAO  +00004YA  V02099999999999999999N0000001N1+01131+00241999999ADDMA1999999102301MW1001
0024990061999991930010902004+62000-033000SAO  +00004YA  V02099999999999999999N0000001N1+01071+00241999999ADDMA1999999102001MW1001
0024990061999991930010903004+62000-033000SAO  +00004YA  V02099999999999999999N0000001N1+00961+00301999999ADDMA1999999102301MW1001
0024990061999991930010904004+62000-033000SAO  +00004YA  V02099999999999999999N0000001N1+00851+00351999999ADDMA1999999102301MW1001
0024990061999991930010905004+62000-033000SAO  +00004YA  V02099999999999999999N0000001N1+00851+00301999999ADDMA1999999102271MW1001
0024990061999991930010906004+62000-033000SAO  +00004YA  V02099999999999999999N0000001N1+00801+00241999999ADDMA1999999102271MW1001
0024990061999991930010907004+62000-033000SAO  +00004YA  V02099999999999999999N0000001N1+00801+00131999999ADDMA1999999102341MW1001
0024990061999991930010908004+62000-033000SAO  +00004YA  V02099999999999999999N0000001N1+00801+00021999999ADDMA1999999102401MW1001
0024990061999991930010909004+62000-033000SAO  +00004YA  V02099999999999999999N0000001N1+00801+00081999999ADDMA1999999102511MW1001
0024990061999991930010910004+62000-033000SAO  +00004YA  V02099999999999999999N0000001N1+00851+00191999999ADDMA1999999102541MW1001
0024990061999991930010911004+62000-033000SAO  +00004YA  V02099999999999999999N0000001N1+00911+00241999999ADDMA1999999102571MW1001
0024990061999991930010912004+62000-033000SAO  +00004YA  V02099999999999999999N0000001N1+01021+00131999999ADDMA1999999102541MW1001
0024990061999991930010913004+62000-033000SAO  +00004YA  V02099999999999999999N0000001N1+01071+00191999999ADDMA1999999102511MW1001
0024990061999991930010914004+62000-033000SAO  +00004YA  V02099999999999999999N0000001N1+01191+00131999999ADDMA1999999102341MW1001
0024990061999991930010915004+62000-033000SAO  +00004YA  V02099999999999999999N0000001N1+01241+00131999999ADDMA1999999102201MW1001
0024990061999991930010916004+62000-033000SAO  +00004YA  V02099999999999999999N0000001N1+01131+00191999999ADDMA1999999102171MW1001
0024990061999991930010917004+62000-033000SAO  +00004YA  V02099999999999999999N0000001N1+01071+00191999999ADDMA1999999102071MW1001
0024990061999991930010918004+62000-033000SAO  +00004YA  V02099999999999999999N0000001N1+01021+00301999999ADDMA1999999102131MW1001
0024990061999991930010919004+62000-033000SAO  +00004YA  V02099999999999999999N0000001N1+01021+00301999999ADDMA1999999102171MW1001
0024990061999991930010920004+62000-033000SAO  +00004YA  V02099999999999999999N0000001N1+01021+00241999999ADDMA1999999102201MW1001
0024990061999991930010921004+62000-033000SAO  +00004YA  V02099999999999999999N0000001N1+00961+00191999999ADDMA1999999102241MW1001
0024990061999991930010922004+62000-033000SAO  +00004YA  V02099999999999999999N0000001N1+00961+00191999999ADDMA1999999102271MW1001
0024990061999991930010923004+62000-033000SAO  +00004YA  V02099999999999999999N0000001N1+00961+00191999999ADDMA1999999102301MW1001
0024990061999991930011000004+62000-033000SAO  +00004YA  V02099999999999999999N0000001N1+01021+00241999999ADDMA1999999102271MW1001
0024990061999991930011001004+62000-033000SAO  +00004YA  V02099999999999999999N0000001N1+01021+00241999999ADDMA1999999102271MW1001
0024990061999991930011002004+62000-033000SAO  +00004YA  V02099999999999999999N0000001N1+01021+00301999999ADDMA1999999102241MW1001
0024990061999991930011003004+62000-033000SAO  +00004YA  V02099999999999999999N0000001N1+01021+00301999999ADDMA1999999102201MW1001
0024990061999991930011004004+62000-033000SAO  +00004YA  V02099999999999999999N0000001N1+00961+00461999999ADDMA1999999102171MW1001
0024990061999991930011005004+62000-033000SAO  +00004YA  V02099999999999999999N0000001N1+00961+00351999999ADDMA1999999102071MW1001
0024990061999991930011006004+62000-033000SAO  +00004YA  V02099999999999999999N0000001N1+00961+00351999999ADDMA1999999102101MW1001
0024990061999991930011007004+62000-033000SAO  +00004YA  V02099999999999999999N0000001N1+00961+00351999999ADDMA1999999102101MW1001
0024990061999991930011008004+62000-033000SAO  +00004YA  V02099999999999999999N0000001N1+01021+00351999999ADDMA1999999102171MW1001
0024990061999991930011009004+62000-033000SAO  +00004YA  V02099999999999999999N0000001N1+01021+00411999999ADDMA1999999102201MW1001
0024990061999991930011010004+62000-033000SAO  +00004YA  V02099999999999999999N0000001N1+01071+00461999999ADDMA1999999102241MW1001
0024990061999991930011011004+62000-033000SAO  +00004YA  V02099999999999999999N0000001N1+01071+00411999999ADDMA1999999102271MW1001
0024990061999991930011012004+62000-033000SAO  +00004YA  V02099999999999999999N0000001N1+01071+00411999999ADDMA1999999102201MW1001
0024990061999991930011013004+62000-033000SAO  +00004YA  V02099999999999999999N0000001N1+01071+00411999999ADDMA1999999102131MW1001
0024990061999991930011014004+62000-033000SAO  +00004YA  V02099999999999999999N0000001N1+01071+00521999999ADDMA1999999102001MW1001
0024990061999991930011015004+62000-033000SAO  +00004YA  V02099999999999999999N0000001N1+01021+00581999999ADDMA1999999101931MW1001
0024990061999991930011016004+62000-033000SAO  +00004YA  V02099999999999999999N0000001N1+01021+00581999999ADDMA1999999101901MW1001
0024990061999991930011017004+62000-033000SAO  +00004YA  V02099999999999999999N0000001N1+01071+00581999999ADDMA1999999101861MW1001
0024990061999991930011018004+62000-033000SAO  +00004YA  V02099999999999999999N0000001N1+00961+00631999999ADDMA1999999101931MW1001
0024990061999991930011019004+62000-033000SAO  +00004YA  V02099999999999999999N0000001N1+01021+00741999999ADDMA1999999101961MW1001
0024990061999991930011020004+62000-033000SAO  +00004YA  V02099999999999999999N0000001N1+01021+00691999999ADDMA1999999102031MW1001
0024990061999991930011021004+62000-033000SAO  +00004YA  V02099999999999999999N0000001N1+00961+00741999999ADDMA1999999102101MW1001
0024990061999991930011022004+62000-033000SAO  +00004YA  V02099999999999999999N0000001N1+00961+00741999999ADDMA1999999102171MW1001
0024990061999991930011023004+62000-033000SAO  +00004YA  V02099999999999999999N0000001N1+00911+00691999999ADDMA1999999102171MW1001
0024990061999991930011100004+62000-033000SAO  +00004YA  V02099999999999999999N0000001N1+00961+00691999999ADDMA1999999102131MW1001
0024990061999991930011101004+62000-033000SAO  +00004YA  V02099999999999999999N0000001N1+00961+00741999999ADDMA1999999102131MW1001
0024990061999991930011102004+62000-033000SAO  +00004YA  V02099999999999999999N0000001N1+00961+00631999999ADDMA1999999102101MW1001
0024990061999991930011103004+62000-033000SAO  +00004YA  V02099999999999999999N0000001N1+01021+00691999999ADDMA1999999102101MW1001
0024990061999991930011104004+62000-033000SAO  +00004YA  V02099999999999999999N0000001N1+01021+00691999999ADDMA1999999102071MW1001
0024990061999991930011105004+62000-033000SAO  +00004YA  V02099999999999999999N0000001N1+00911+00581999999ADDMA1999999102031MW1001
0024990061999991930011106004+62000-033000SAO  +00004YA  V02099999999999999999N0000001N1+00911+00581999999ADDMA1999999102001MW1001
0024990061999991930011107004+62000-033000SAO  +00004YA  V02099999999999999999N0000001N1+00961+00521999999ADDMA1999999102031MW1001
0024990061999991930011108004+62000-033000SAO  +00004YA  V02099999999999999999N0000001N1+00961+00351999999ADDMA1999999102131MW1001
0024990061999991930011109004+62000-033000SAO  +00004YA  V02099999999999999999N0000001N1+00911+00521999999ADDMA1999999102241MW1001
0024990061999991930011110004+62000-033000SAO  +00004YA  V02099999999999999999N0000001N1+00851+00351999999ADDMA1999999102301MW1001
0024990061999991930011111004+62000-033000SAO  +00004YA  V02099999999999999999N0000001N1+00851+00411999999ADDMA1999999102341MW1001
0024990061999991930011112004+62000-033000SAO  +00004YA  V02099999999999999999N0000001N1+01021+00351999999ADDMA1999999102271MW1001
0024990061999991930011113004+62000-033000SAO  +00004YA  V02099999999999999999N0000001N1+01241+00351999999ADDMA1999999102171MW1001
0024990061999991930011114004+62000-033000SAO  +00004YA  V02099999999999999999N0000001N1+01241+00411999999ADDMA1999999102071MW1001
0024990061999991930011115004+62000-033000SAO  +00004YA  V02099999999999999999N0000001N1+01191+00461999999ADDMA1999999102001MW1001
0024990061999991930011116004+62000-033000SAO  +00004YA  V02099999999999999999N0000001N1+01191+00411999999ADDMA1999999101961MW1001
0024990061999991930011117004+62000-033000SAO  +00004YA  V02099999999999999999N0000001N1+01191+00351999999ADDMA1999999101961MW1001
0024990061999991930011118004+62000-033000SAO  +00004YA  V02099999999999999999N0000001N1+01131+00301999999ADDMA1999999102031MW1001
0024990061999991930011119004+62000-033000SAO  +00004YA  V02099999999999999999N0000001N1+01071+00241999999ADDMA1999999102031MW1001
0024990061999991930011120004+62000-033000SAO  +00004YA  V02099999999999999999N0000001N1+01071+00241999999ADDMA1999999102131MW1001
0024990061999991930011121004+62000-033000SAO  +00004YA  V02099999999999999999N0000001N1+01071+00301999999ADDMA1999999102171MW1001
0024990061999991930011122004+62000-033000SAO  +00004YA  V02099999999999999999N0000001N1+01021+00301999999ADDMA1999999102271MW1001
0024990061999991930011123004+62000-033000SAO  +00004YA  V02099999999999999999N0000001N1+00961+00351999999ADDMA1999999102341MW1001
0024990061999991930011200004+62000-033000SAO  +00004YA  V02099999999999999999N0000001N1+00911+00301999999ADDMA1999999102371MW1001
0024990061999991930011201004+62000-033000SAO  +00004YA  V02099999999999999999N0000001N1+00851+00241999999ADDMA1999999102371MW1001
0024990061999991930011202004+62000-033000SAO  +00004YA  V02099999999999999999N0000001N1+00851+00241999999ADDMA1999999102401MW1001
0024990061999991930011203004+62000-033000SAO  +00004YA  V02099999999999999999N0000001N1+00801+00241999999ADDMA1999999102371MW1001
0024990061999991930011204004+62000-033000SAO  +00004YA  V02099999999999999999N0000001N1+00801+00241999999ADDMA1999999102371MW1001
0024990061999991930011205004+62000-033000SAO  +00004YA  V02099999999999999999N0000001N1+00801+00191999999ADDMA1999999102371MW1001
0024990061999991930011206004+62000-033000SAO  +00004YA  V02099999999999999999N0000001N1+00741+00191999999ADDMA1999999102371MW1001
0024990061999991930011207004+62000-033000SAO  +00004YA  V02099999999999999999N0000001N1+00741+00191999999ADDMA1999999102441MW1001
0024990061999991930011208004+62000-033000SAO  +00004YA  V02099999999999999999N0000001N1+00801+00191999999ADDMA1999999102441MW1001
0024990061999991930011209004+62000-033000SAO  +00004YA  V02099999999999999999N0000001N1+00851+00301999999ADDMA1999999102471MW1001
0024990061999991930011210004+62000-033000SAO  +00004YA  V02099999999999999999N0000001N1+01071+00411999999ADDMA1999999102471MW1001
0024990061999991930011211004+62000-033000SAO  +00004YA  V02099999999999999999N0000001N1+01131+00461999999ADDMA1999999102541MW1001
0024990061999991930011212004+62000-033000SAO  +00004YA  V02099999999999999999N0000001N1+01191+00521999999ADDMA1999999102471MW1001
0024990061999991930011213004+62000-033000SAO  +00004YA  V02099999999999999999N0000001N1+01241+00521999999ADDMA1999999102441MW1001
0024990061999991930011214004+62000-033000SAO  +00004YA  V02099999999999999999N0000001N1+01301+00521999999ADDMA1999999102301MW1001
0024990061999991930011215004+62000-033000SAO  +00004YA  V02099999999999999999N0000001N1+01241+00411999999ADDMA1999999102271MW1001
0024990061999991930011216004+62000-033000SAO  +00004YA  V02099999999999999999N0000001N1+01131+00351999999ADDMA1999999102201MW1001
0024990061999991930011217004+62000-033000SAO  +00004YA  V02099999999999999999N0000001N1+01071+00301999999ADDMA1999999102201MW1001
0024990061999991930011218004+62000-033000SAO  +00004YA  V02099999999999999999N0000001N1+00961+00301999999ADDMA1999999102201MW1001
0024990061999991930011219004+62000-033000SAO  +00004YA  V02099999999999999999N0000001N1+00961+00351999999ADDMA1999999102241MW1001
0024990061999991930011220004+62000-033000SAO  +00004YA  V02099999999999999999N0000001N1+00961+00351999999ADDMA1999999102301MW1001
0024990061999991930011221004+62000-033000SAO  +00004YA  V02099999999999999999N0000001N1+01021+00411999999ADDMA1999999102341MW1001
0024990061999991930011222004+62000-033000SAO  +00004YA  V02099999999999999999N0000001N1+01131+00581999999ADDMA1999999102341MW1001
0024990061999991930011223004+62000-033000SAO  +00004YA  V02099999999999999999N0000001N1+01191+00631999999ADDMA1999999102341MW1001
0024990061999991930011300004+62000-033000SAO  +00004YA  V02099999999999999999N0000001N1+01131+00581999999ADDMA1999999102301MW1001
0024990061999991930011301004+62000-033000SAO  +00004YA  V02099999999999999999N0000001N1+01131+00631999999ADDMA1999999102301MW1001
0024990061999991930011302004+62000-033000SAO  +00004YA  V02099999999999999999N0000001N1+01131+00741999999ADDMA1999999102271MW1001
0024990061999991930011303004+62000-033000SAO  +00004YA  V02099999999999999999N0000001N1+01191+00741999999ADDMA1999999102201MW1001
0024990061999991930011304004+62000-033000SAO  +00004YA  V02099999999999999999N0000001N1+01131+00801999999ADDMA1999999102171MW1001
0024990061999991930011305004+62000-033000SAO  +00004YA  V02099999999999999999N0000001N1+01191+00741999999ADDMA1999999102131MW1001
0024990061999991930011306004+62000-033000SAO  +00004YA  V02099999999999999999N0000001N1+01191+00801999999ADDMA1999999102131MW1001
0024990061999991930011307004+62000-033000SAO  +00004YA  V02099999999999999999N0000001N1+01131+00691999999ADDMA1999999102101MW1001
0024990061999991930011308004+62000-033000SAO  +00004YA  V02099999999999999999N0000001N1+01071+00741999999ADDMA1999999102201MW1001
0024990061999991930011309004+62000-033000SAO  +00004YA  V02099999999999999999N0000001N1+01131+00691999999ADDMA1999999102341MW1001
0024990061999991930011310004+62000-033000SAO  +00004YA  V02099999999999999999N0000001N1+01301+00741999999ADDMA1999999102341MW1001
0024990061999991930011311004+62000-033000SAO  +00004YA  V02099999999999999999N0000001N1+01301+00741999999ADDMA1999999102341MW1001
0024990061999991930011312004+62000-033000SAO  +00004YA  V02099999999999999999N0000001N1+01411+00801999999ADDMA1999999102271MW1001
0024990061999991930011313004+62000-033000SAO  +00004YA  V02099999999999999999N0000001N1+01461+00741999999ADDMA1999999102131MW1001
0024990061999991930011314004+62000-033000SAO  +00004YA  V02099999999999999999N0000001N1+01571+00741999999ADDMA1999999102031MW1001
0024990061999991930011315004+62000-033000SAO  +00004YA  V02099999999999999999N0000001N1+01631+00801999999ADDMA1999999101931MW1001
0024990061999991930011316004+62000-033000SAO  +00004YA  V02099999999999999999N0000001N1+01631+00801999999ADDMA1999999101861MW1001
0024990061999991930011317004+62000-033000SAO  +00004YA  V02099999999999999999N0000001N1+01571+00851999999ADDMA1999999101861MW1001
0024990061999991930011318004+62000-033000SAO  +00004YA  V02099999999999999999N0000001N1+01571+00911999999ADDMA1999999101901MW1001
0024990061999991930011319004+62000-033000SAO  +00004YA  V02099999999999999999N0000001N1+01411+00961999999ADDMA1999999101901MW1001
0024990061999991930011320004+62000-033000SAO  +00004YA  V02099999999999999999N0000001N1+01411+00911999999ADDMA1999999101931MW1001
0024990061999991930011321004+62000-033000SAO  +00004YA  V02099999999999999999N0000001N1+01351+00911999999ADDMA1999999101961MW1001
0024990061999991930011322004+62000-033000SAO  +00004YA  V02099999999999999999N0000001N1+01411+00911999999ADDMA1999999102071MW1001
0024990061999991930011323004+62000-033000SAO  +00004YA  V02099999999999999999N0000001N1+01351+00911999999ADDMA1999999102101MW1001
0024990061999991930011400004+62000-033000SAO  +00004YA  V02099999999999999999N0000001N1+01301+00911999999ADDMA1999999102101MW1001
0024990061999991930011401004+62000-033000SAO  +00004YA  V02099999999999999999N0000001N1+01191+00851999999ADDMA1999999102101MW1001
0024990061999991930011402004+62000-033000SAO  +00004YA  V02099999999999999999N0000001N1+01131+00801999999ADDMA1999999102071MW1001
0024990061999991930011403004+62000-033000SAO  +00004YA  V02099999999999999999N0000001N1+01131+00801999999ADDMA1999999102031MW1001
0024990061999991930011404004+62000-033000SAO  +00004YA  V02099999999999999999N0000001N1+01131+00801999999ADDMA1999999101961MW1001
0024990061999991930011405004+62000-033000SAO  +00004YA  V02099999999999999999N0000001N1+01131+00801999999ADDMA1999999101931MW1001
0024990061999991930011406004+62000-033000SAO  +00004YA  V02099999999999999999N0000001N1+01131+00741999999ADDMA1999999101931MW1001
0024990061999991930011407004+62000-033000SAO  +00004YA  V02099999999999999999N0000001N1+01191+00741999999ADDMA1999999101931MW1001
0024990061999991930011408004+62000-033000SAO  +00004YA  V02099999999999999999N0000001N1+01191+00741999999ADDMA1999999101931MW1001
0024990061999991930011409004+62000-033000SAO  +00004YA  V02099999999999999999N0000001N1+01191+00741999999ADDMA1999999101961MW1001
0024990061999991930011410004+62000-033000SAO  +00004YA  V02099999999999999999N0000001N1+01301+00741999999ADDMA1999999102071MW1001
0024990061999991930011411004+62000-033000SAO  +00004YA  V02099999999999999999N0000001N1+01461+00851999999ADDMA1999999102071MW1001
0024990061999991930011412004+62000-033000SAO  +00004YA  V02099999999999999999N0000001N1+01461+00801999999ADDMA1999999102031MW1001
0024990061999991930011413004+62000-033000SAO  +00004YA  V02099999999999999999N0000001N1+01571+00741999999ADDMA1999999101931MW1001
0024990061999991930011414004+62000-033000SAO  +00004YA  V02099999999999999999N0000001N1+01631+00851999999ADDMA1999999101761MW1001
0024990061999991930011415004+62000-033000SAO  +00004YA  V02099999999999999999N0000001N1+01691+00851999999ADDMA1999999101691MW1001
0024990061999991930011416004+62000-033000SAO  +00004YA  V02099999999999999999N0000001N1+01571+00801999999ADDMA1999999101631MW1001
0024990061999991930011417004+62000-033000SAO  +00004YA  V02099999999999999999N0000001N1+01571+00801999999ADDMA1999999101591MW1001
0024990061999991930011418004+62000-033000SAO  +00004YA  V02099999999999999999N0000001N1+01521+00801999999ADDMA1999999101591MW1001
0024990061999991930011419004+62000-033000SAO  +00004YA  V02099999999999999999N0000001N1+01461+00961999999ADDMA1999999101631MW1001
0024990061999991930011420004+62000-033000SAO  +00004YA  V02099999999999999999N0000001N1+01411+00961999999ADDMA1999999101631MW1001
0024990061999991930011421004+62000-033000SAO  +00004YA  V02099999999999999999N0000001N1+01461+01021999999ADDMA1999999101691MW1001
0024990061999991930011422004+62000-033000SAO  +00004YA  V02099999999999999999N0000001N1+01411+00961999999ADDMA1999999101661MW1001
0024990061999991930011423004+62000-033000SAO  +00004YA  V02099999999999999999N0000001N1+01411+00961999999ADDMA1999999101691MW1001
0024990061999991930011500004+62000-033000SAO  +00004YA  V02099999999999999999N0000001N1+01411+00961999999ADDMA1999999101661MW1001
0024990061999991930011501004+62000-033000SAO  +00004YA  V02099999999999999999N0000001N1+01411+00961999999ADDMA1999999101661MW1001
0024990061999991930011502004+62000-033000SAO  +00004YA  V02099999999999999999N0000001N1+01411+00961999999ADDMA1999999101591MW1001
0024990061999991930011503004+62000-033000SAO  +00004YA  V02099999999999999999N0000001N1+01411+00961999999ADDMA1999999101561MW1001
0024990061999991930011504004+62000-033000SAO  +00004YA  V02099999999999999999N0000001N1+01461+00961999999ADDMA1999999101491MW1001
0024990061999991930011505004+62000-033000SAO  +00004YA  V02099999999999999999N0000001N1+01521+01021999999ADDMA1999999101421MW1001
0024990061999991930011506004+62000-033000SAO  +00004YA  V02099999999999999999N0000001N1+01521+01071999999ADDMA1999999101421MW1001
0024990061999991930011507004+62000-033000SAO  +00004YA  V02099999999999999999N0000001N1+01521+01071999999ADDMA1999999101421MW1001
0024990061999991930011508004+62000-033000SAO  +00004YA  V02099999999999999999N0000001N1+01461+01071999999ADDMA1999999101421MW1001
0024990061999991930011509004+62000-033000SAO  +00004YA  V02099999999999999999N0000001N1+01461+01071999999ADDMA1999999101461MW1001
0024990061999991930011510004+62000-033000SAO  +00004YA  V02099999999999999999N0000001N1+01461+01071999999ADDMA1999999101491MW1001
0024990061999991930011511004+62000-033000SAO  +00004YA  V02099999999999999999N0000001N1+01461+01131999999ADDMA1999999101561MW1001
0024990061999991930011512004+62000-033000SAO  +00004YA  V02099999999999999999N0000001N1+01461+01131999999ADDMA1999999101521MW1001
0024990061999991930011513004+62000-033000SAO  +00004YA  V02099999999999999999N0000001N1+01521+01131999999ADDMA1999999101421MW1001
0024990061999991930011514004+62000-033000SAO  +00004YA  V02099999999999999999N0000001N1+01571+01131999999ADDMA1999999101291MW1001
0024990061999991930011515004+62000-033000SAO  +00004YA  V02099999999999999999N0000001N1+01521+01131999999ADDMA1999999101191MW1001
0024990061999991930011516004+62000-033000SAO  +00004YA  V02099999999999999999N0000001N1+01521+01071999999ADDMA1999999101151MW1001
0024990061999991930011517004+62000-033000SAO  +00004YA  V02099999999999999999N0000001N1+01521+01131999999ADDMA1999999101121MW1001
0024990061999991930011518004+62000-033000SAO  +00004YA  V02099999999999999999N0000001N1+01521+01191999999ADDMA1999999101151MW1001
0024990061999991930011519004+62000-033000SAO  +00004YA  V02099999999999999999N0000001N1+01521+01191999999ADDMA1999999101151MW1001
0024990061999991930011520004+62000-033000SAO  +00004YA  V02099999999999999999N0000001N1+01521+01241999999ADDMA1999999101191MW1001
0024990061999991930011521004+62000-033000SAO  +00004YA  V02099999999999999999N0000001N1+01521+01301999999ADDMA1999999101221MW1001
0024990061999991930011522004+62000-033000SAO  +00004YA  V02099999999999999999N0000001N1+01521+01301999999ADDMA1999999101221MW1001
0024990061999991930011523004+62000-033000SAO  +00004YA  V02099999999999999999N0000001N1+01521+01351999999ADDMA1999999101221MW1001
0024990061999991930011600004+62000-033000SAO  +00004YA  V02099999999999999999N0000001N1+01521+01351999999ADDMA1999999101221MW1001
0024990061999991930011601004+62000-033000SAO  +00004YA  V02099999999999999999N0000001N1+01521+01351999999ADDMA1999999101221MW1001
0024990061999991930011602004+62000-033000SAO  +00004YA  V02099999999999999999N0000001N1+01571+01411999999ADDMA1999999101191MW1001
0024990061999991930011603004+62000-033000SAO  +00004YA  V02099999999999999999N0000001N1+01571+01411999999ADDMA1999999101191MW1001
0024990061999991930011604004+62000-033000SAO  +00004YA  V02099999999999999999N0000001N1+01571+01411999999ADDMA1999999101191MW1001
0024990061999991930011605004+62000-033000SAO  +00004YA  V02099999999999999999N0000001N1+01571+01411999999ADDMA1999999101221MW1001
0024990061999991930011606004+62000-033000SAO  +00004YA  V02099999999999999999N0000001N1+01571+01411999999ADDMA1999999101221MW1001
0024990061999991930011607004+62000-033000SAO  +00004YA  V02099999999999999999N0000001N1+01571+01461999999ADDMA1999999101291MW1001
0024990061999991930011608004+62000-033000SAO  +00004YA  V02099999999999999999N0000001N1+01631+01461999999ADDMA1999999101351MW1001
0024990061999991930011609004+62000-033000SAO  +00004YA  V02099999999999999999N0000001N1+01631+01461999999ADDMA1999999101421MW1001
0024990061999991930011610004+62000-033000SAO  +00004YA  V02099999999999999999N0000001N1+01631+01461999999ADDMA1999999101521MW1001
0024990061999991930011611004+62000-033000SAO  +00004YA  V02099999999999999999N0000001N1+01691+01461999999ADDMA1999999101591MW1001
0024990061999991930011612004+62000-033000SAO  +00004YA  V02099999999999999999N0000001N1+01801+01521999999ADDMA1999999101521MW1001
0024990061999991930011613004+62000-033000SAO  +00004YA  V02099999999999999999N0000001N1+01801+01521999999ADDMA1999999101461MW1001
0024990061999991930011614004+62000-033000SAO  +00004YA  V02099999999999999999N0000001N1+01801+01521999999ADDMA1999999101421MW1001
0024990061999991930011615004+62000-033000SAO  +00004YA  V02099999999999999999N0000001N1+01851+01521999999ADDMA1999999101321MW1001
0024990061999991930011616004+62000-033000SAO  +00004YA  V02099999999999999999N0000001N1+01851+01521999999ADDMA1999999101291MW1001
0024990061999991930011617004+62000-033000SAO  +00004YA  V02099999999999999999N0000001N1+01801+01521999999ADDMA1999999101291MW1001
0024990061999991930011618004+62000-033000SAO  +00004YA  V02099999999999999999N0000001N1+01741+01461999999ADDMA1999999101351MW1001
0024990061999991930011619004+62000-033000SAO  +00004YA  V02099999999999999999N0000001N1+01691+01461999999ADDMA1999999101391MW1001
0024990061999991930011620004+62000-033000SAO  +00004YA  V02099999999999999999N0000001N1+01691+01461999999ADDMA1999999101421MW1001
0024990061999991930011621004+62000-033000SAO  +00004YA  V02099999999999999999N0000001N1+01571+01411999999ADDMA1999999101521MW1001
0024990061999991930011622004+62000-033000SAO  +00004YA  V02099999999999999999N0000001N1+01571+01351999999ADDMA1999999101561MW1001
0024990061999991930011623004+62000-033000SAO  +00004YA  V02099999999999999999N0000001N1+01461+01301999999ADDMA1999999101561MW1001
0024990061999991930011700004+62000-033000SAO  +00004YA  V02099999999999999999N0000001N1+01411+01301999999ADDMA1999999101561MW1001
0024990061999991930011701004+62000-033000SAO  +00004YA  V02099999999999999999N0000001N1+01461+01351999999ADDMA1999999101561MW1001
0024990061999991930011702004+62000-033000SAO  +00004YA  V02099999999999999999N0000001N1+01461+01301999999ADDMA1999999101561MW1001
0024990061999991930011703004+62000-033000SAO  +00004YA  V02099999999999999999N0000001N1+01521+01301999999ADDMA1999999101561MW1001
0024990061999991930011704004+62000-033000SAO  +00004YA  V02099999999999999999N0000001N1+01461+01191999999ADDMA1999999101561MW1001
0024990061999991930011705004+62000-033000SAO  +00004YA  V02099999999999999999N0000001N1+01521+01241999999ADDMA1999999101561MW1001
0024990061999991930011706004+62000-033000SAO  +00004YA  V02099999999999999999N0000001N1+01461+01191999999ADDMA1999999101591MW1001
0024990061999991930011707004+62000-033000SAO  +00004YA  V02099999999999999999N0000001N1+01411+01131999999ADDMA1999999101661MW1001
0024990061999991930011708004+62000-033000SAO  +00004YA  V02099999999999999999N0000001N1+01411+01131999999ADDMA1999999101691MW1001
0024990061999991930011709004+62000-033000SAO  +00004YA  V02099999999999999999N0000001N1+01411+01131999999ADDMA1999999101761MW1001
0024990061999991930011710004+62000-033000SAO  +00004YA  V02099999999999999999N0000001N1+01411+01071999999ADDMA1999999101791MW1001
0024990061999991930011711004+62000-033000SAO  +00004YA  V02099999999999999999N0000001N1+01411+01131999999ADDMA1999999101861MW1001
0024990061999991930011712004+62000-033000SAO  +00004YA  V02099999999999999999N0000001N1+01411+01131999999ADDMA1999999101831MW1001
0024990061999991930011713004+62000-033000SAO  +00004YA  V02099999999999999999N0000001N1+01301+01071999999ADDMA1999999101761MW1001
0024990061999991930011714004+62000-033000SAO  +00004YA  V02099999999999999999N0000001N1+01351+01191999999ADDMA1999999101631MW1001
0024990061999991930011715004+62000-033000SAO  +00004YA  V02099999999999999999N0000001N1+01241+01131999999ADDMA1999999101591MW1001
0024990061999991930011716004+62000-033000SAO  +00004YA  V02099999999999999999N0000001N1+01241+01131999999ADDMA1999999101561MW1001
0024990061999991930011717004+62000-033000SAO  +00004YA  V02099999999999999999N0000001N1+01301+01071999999ADDMA1999999101591MW1001
0024990061999991930011718004+62000-033000SAO  +00004YA  V02099999999999999999N0000001N1+01301+01071999999ADDMA1999999101631MW1001
0024990061999991930011719004+62000-033000SAO  +00004YA  V02099999999999999999N0000001N1+01241+00911999999ADDMA1999999101631MW1001
0024990061999991930011720004+62000-033000SAO  +00004YA  V02099999999999999999N0000001N1+01191+00911999999ADDMA1999999101691MW1001
0024990061999991930011721004+62000-033000SAO  +00004YA  V02099999999999999999N0000001N1+01191+00911999999ADDMA1999999101791MW1001
0024990061999991930011722004+62000-033000SAO  +00004YA  V02099999999999999999N0000001N1+01191+00911999999ADDMA1999999101791MW1001
0024990061999991930011723004+62000-033000SAO  +00004YA  V02099999999999999999N0000001N1+01241+00911999999ADDMA1999999101791MW1001
0024990061999991930011800004+62000-033000SAO  +00004YA  V02099999999999999999N0000001N1+01191+00851999999ADDMA1999999101831MW1001
0024990061999991930011801004+62000-033000SAO  +00004YA  V02099999999999999999N0000001N1+01191+00851999999ADDMA1999999101791MW1001
0024990061999991930011802004+62000-033000SAO  +00004YA  V02099999999999999999N0000001N1+01131+00911999999ADDMA1999999101791MW1001
0024990061999991930011803004+62000-033000SAO  +00004YA  V02099999999999999999N0000001N1+01131+00911999999ADDMA1999999101761MW1001
0024990061999991930011804004+62000-033000SAO  +00004YA  V02099999999999999999N0000001N1+01131+00911999999ADDMA1999999101731MW1001
0024990061999991930011805004+62000-033000SAO  +00004YA  V02099999999999999999N0000001N1+01131+00911999999ADDMA1999999101691MW1001
0024990061999991930011806004+62000-033000SAO  +00004YA  V02099999999999999999N0000001N1+01241+00961999999ADDMA1999999101631MW1001
0024990061999991930011807004+62000-033000SAO  +00004YA  V02099999999999999999N0000001N1+01191+00961999999ADDMA1999999101691MW1001
0024990061999991930011808004+62000-033000SAO  +00004YA  V02099999999999999999N0000001N1+01131+00961999999ADDMA1999999101731MW1001
0024990061999991930011809004+62000-033000SAO  +00004YA  V02099999999999999999N0000001N1+01131+00961999999ADDMA1999999101791MW1001
0024990061999991930011810004+62000-033000SAO  +00004YA  V02099999999999999999N0000001N1+01191+00961999999ADDMA1999999101831MW1001
0024990061999991930011811004+62000-033000SAO  +00004YA  V02099999999999999999N0000001N1+01191+00961999999ADDMA1999999101931MW1001
0024990061999991930011812004+62000-033000SAO  +00004YA  V02099999999999999999N0000001N1+01191+00961999999ADDMA1999999101791MW1001
0024990061999991930011813004+62000-033000SAO  +00004YA  V02099999999999999999N0000001N1+01241+00961999999ADDMA1999999101761MW1001
0024990061999991930011814004+62000-033000SAO  +00004YA  V02099999999999999999N0000001N1+01241+01071999999ADDMA1999999101591MW1001
0024990061999991930011815004+62000-033000SAO  +00004YA  V02099999999999999999N0000001N1+01241+01071999999ADDMA1999999101561MW1001
0024990061999991930011816004+62000-033000SAO  +00004YA  V02099999999999999999N0000001N1+01241+01071999999ADDMA1999999101521MW1001
0024990061999991930011817004+62000-033000SAO  +00004YA  V02099999999999999999N0000001N1+01301+01071999999ADDMA1999999101521MW1001
0024990061999991930011818004+62000-033000SAO  +00004YA  V02099999999999999999N0000001N1+01301+01071999999ADDMA1999999101561MW1001
0024990061999991930011819004+62000-033000SAO  +00004YA  V02099999999999999999N0000001N1+01301+01071999999ADDMA1999999101631MW1001
0024990061999991930011820004+62000-033000SAO  +00004YA  V02099999999999999999N0000001N1+01301+01071999999ADDMA1999999101591MW1001
0024990061999991930011821004+62000-033000SAO  +00004YA  V02099999999999999999N0000001N1+01301+01131999999ADDMA1999999101691MW1001
0024990061999991930011822004+62000-033000SAO  +00004YA  V02099999999999999999N0000001N1+01301+01131999999ADDMA1999999101591MW1001
0024990061999991930011823004+62000-033000SAO  +00004YA  V02099999999999999999N0000001N1+01301+01071999999ADDMA1999999101661MW1001
0024990061999991930011900004+62000-033000SAO  +00004YA  V02099999999999999999N0000001N1+01301+01071999999ADDMA1999999101631MW1001
0024990061999991930011901004+62000-033000SAO  +00004YA  V02099999999999999999N0000001N1+01301+01131999999ADDMA1999999101661MW1001
0024990061999991930011902004+62000-033000SAO  +00004YA  V02099999999999999999N0000001N1+01301+01131999999ADDMA1999999101631MW1001
0024990061999991930011903004+62000-033000SAO  +00004YA  V02099999999999999999N0000001N1+01301+01131999999ADDMA1999999101521MW1001
0024990061999991930011904004+62000-033000SAO  +00004YA  V02099999999999999999N0000001N1+01301+01131999999ADDMA1999999101521MW1001
0024990061999991930011905004+62000-033000SAO  +00004YA  V02099999999999999999N0000001N1+01301+01131999999ADDMA1999999101421MW1001
0024990061999991930011906004+62000-033000SAO  +00004YA  V02099999999999999999N0000001N1+01301+01071999999ADDMA1999999101491MW1001
0024990061999991930011907004+62000-033000SAO  +00004YA  V02099999999999999999N0000001N1+01301+01071999999ADDMA1999999101591MW1001
0024990061999991930011908004+62000-033000SAO  +00004YA  V02099999999999999999N0000001N1+01301+01071999999ADDMA1999999101561MW1001
0024990061999991930011909004+62000-033000SAO  +00004YA  V02099999999999999999N0000001N1+01301+01071999999ADDMA1999999101691MW1001
0024990061999991930011910004+62000-033000SAO  +00004YA  V02099999999999999999N0000001N1+01241+01131999999ADDMA1999999101761MW1001
0024990061999991930011911004+62000-033000SAO  +00004YA  V02099999999999999999N0000001N1+01191+01071999999ADDMA1999999101791MW1001
0024990061999991930011912004+62000-033000SAO  +00004YA  V02099999999999999999N0000001N1+01191+01071999999ADDMA1999999101731MW1001
0024990061999991930011913004+62000-033000SAO  +00004YA  V02099999999999999999N0000001N1+01131+01021999999ADDMA1999999101661MW1001
0024990061999991930011914004+62000-033000SAO  +00004YA  V02099999999999999999N0000001N1+01131+01021999999ADDMA1999999101631MW1001
0024990061999991930011915004+62000-033000SAO  +00004YA  V02099999999999999999N0000001N1+01131+01021999999ADDMA1999999101521MW1001
0024990061999991930011916004+62000-033000SAO  +00004YA  V02099999999999999999N0000001N1+01071+00851999999ADDMA1999999101461MW1001
0024990061999991930011917004+62000-033000SAO  +00004YA  V02099999999999999999N0000001N1+01131+00851999999ADDMA1999999101521MW1001
0024990061999991930011918004+62000-033000SAO  +00004YA  V02099999999999999999N0000001N1+01131+00801999999ADDMA1999999101561MW1001
0024990061999991930011919004+62000-033000SAO  +00004YA  V02099999999999999999N0000001N1+01131+00801999999ADDMA1999999101591MW1001
0024990061999991930011920004+62000-033000SAO  +00004YA  V02099999999999999999N0000001N1+01131+00801999999ADDMA1999999101591MW1001
0024990061999991930011921004+62000-033000SAO  +00004YA  V02099999999999999999N0000001N1+01131+00801999999ADDMA1999999101691MW1001
0024990061999991930011922004+62000-033000SAO  +00004YA  V02099999999999999999N0000001N1+01191+00851999999ADDMA1999999101691MW1001
0024990061999991930011923004+62000-033000SAO  +00004YA  V02099999999999999999N0000001N1+01191+00851999999ADDMA1999999101691MW1001
0024990061999991930012000004+62000-033000SAO  +00004YA  V02099999999999999999N0000001N1+01191+00851999999ADDMA1999999101761MW1001
0024990061999991930012001004+62000-033000SAO  +00004YA  V02099999999999999999N0000001N1+01191+00961999999ADDMA1999999101731MW1001
0024990061999991930012002004+62000-033000SAO  +00004YA  V02099999999999999999N0000001N1+01191+00911999999ADDMA1999999101691MW1001
0024990061999991930012003004+62000-033000SAO  +00004YA  V02099999999999999999N0000001N1+01191+00911999999ADDMA1999999101691MW1001
0024990061999991930012004004+62000-033000SAO  +00004YA  V02099999999999999999N0000001N1+01131+00961999999ADDMA1999999101731MW1001
0024990061999991930012005004+62000-033000SAO  +00004YA  V02099999999999999999N0000001N1+01021+00911999999ADDMA1999999101691MW1001
0024990061999991930012006004+62000-033000SAO  +00004YA  V02099999999999999999N0000001N1+01131+00911999999ADDMA1999999101661MW1001
0024990061999991930012007004+62000-033000SAO  +00004YA  V02099999999999999999N0000001N1+01071+00851999999ADDMA1999999101691MW1001
0024990061999991930012008004+62000-033000SAO  +00004YA  V02099999999999999999N0000001N1+01071+00851999999ADDMA1999999101791MW1001
0024990061999991930012009004+62000-033000SAO  +00004YA  V02099999999999999999N0000001N1+01071+00911999999ADDMA1999999101901MW1001
0024990061999991930012010004+62000-033000SAO  +00004YA  V02099999999999999999N0000001N1+01071+00801999999ADDMA1999999101901MW1001
0024990061999991930012011004+62000-033000SAO  +00004YA  V02099999999999999999N0000001N1+01131+00741999999ADDMA1999999101961MW1001
0024990061999991930012012004+62000-033000SAO  +00004YA  V02099999999999999999N0000001N1+01191+00741999999ADDMA1999999101931MW1001
0024990061999991930012013004+62000-033000SAO  +00004YA  V02099999999999999999N0000001N1+01241+00801999999ADDMA1999999101831MW1001
0024990061999991930012014004+62000-033000SAO  +00004YA  V02099999999999999999N0000001N1+01241+00851999999ADDMA1999999101731MW1001
0024990061999991930012015004+62000-033000SAO  +00004YA  V02099999999999999999N0000001N1+01301+00851999999ADDMA1999999101661MW1001
0024990061999991930012016004+62000-033000SAO  +00004YA  V02099999999999999999N0000001N1+01241+00801999999ADDMA1999999101661MW1001
0024990061999991930012017004+62000-033000SAO  +00004YA  V02099999999999999999N0000001N1+01191+00741999999ADDMA1999999101691MW1001
0024990061999991930012018004+62000-033000SAO  +00004YA  V02099999999999999999N0000001N1+01131+00741999999ADDMA1999999101731MW1001
0024990061999991930012019004+62000-033000SAO  +00004YA  V02099999999999999999N0000001N1+01191+00801999999ADDMA1999999101791MW1001
0024990061999991930012020004+62000-033000SAO  +00004YA  V02099999999999999999N0000001N1+01131+00801999999ADDMA1999999101901MW1001
0024990061999991930012021004+62000-033000SAO  +00004YA  V02099999999999999999N0000001N1+01131+00741999999ADDMA1999999101931MW1001
0024990061999991930012022004+62000-033000SAO  +00004YA  V02099999999999999999N0000001N1+01131+00801999999ADDMA1999999101961MW1001
0024990061999991930012023004+62000-033000SAO  +00004YA  V02099999999999999999N0000001N1+01191+00801999999ADDMA1999999102031MW1001
0024990061999991930012100004+62000-033000SAO  +00004YA  V02099999999999999999N0000001N1+01241+00851999999ADDMA1999999102001MW1001
0024990061999991930012101004+62000-033000SAO  +00004YA  V02099999999999999999N0000001N1+01241+00851999999ADDMA1999999101961MW1001
0024990061999991930012102004+62000-033000SAO  +00004YA  V02099999999999999999N0000001N1+01241+00911999999ADDMA1999999101931MW1001
0024990061999991930012103004+62000-033000SAO  +00004YA  V02099999999999999999N0000001N1+01241+00911999999ADDMA1999999101901MW1001
0024990061999991930012104004+62000-033000SAO  +00004YA  V02099999999999999999N0000001N1+01241+00911999999ADDMA1999999101901MW1001
0024990061999991930012105004+62000-033000SAO  +00004YA  V02099999999999999999N0000001N1+01241+00911999999ADDMA1999999101861MW1001
0024990061999991930012106004+62000-033000SAO  +00004YA  V02099999999999999999N0000001N1+01241+00911999999ADDMA1999999101831MW1001
0024990061999991930012107004+62000-033000SAO  +00004YA  V02099999999999999999N0000001N1+01241+00911999999ADDMA1999999101901MW1001
0024990061999991930012108004+62000-033000SAO  +00004YA  V02099999999999999999N0000001N1+01241+00961999999ADDMA1999999102001MW1001
0024990061999991930012109004+62000-033000SAO  +00004YA  V02099999999999999999N0000001N1+01241+00961999999ADDMA1999999102071MW1001
0024990061999991930012110004+62000-033000SAO  +00004YA  V02099999999999999999N0000001N1+01241+00961999999ADDMA1999999102131MW1001
0024990061999991930012111004+62000-033000SAO  +00004YA  V02099999999999999999N0000001N1+01241+00911999999ADDMA1999999102201MW1001
0024990061999991930012112004+62000-033000SAO  +00004YA  V02099999999999999999N0000001N1+01241+00961999999ADDMA1999999102171MW1001
0024990061999991930012113004+62000-033000SAO  +00004YA  V02099999999999999999N0000001N1+01301+00911999999ADDMA1999999102101MW1001
0024990061999991930012114004+62000-033000SAO  +00004YA  V02099999999999999999N0000001N1+01411+00961999999ADDMA1999999101901MW1001
0024990061999991930012115004+62000-033000SAO  +00004YA  V02099999999999999999N0000001N1+01571+01021999999ADDMA1999999101791MW1001
0024990061999991930012116004+62000-033000SAO  +00004YA  V02099999999999999999N0000001N1+01461+00911999999ADDMA1999999101761MW1001
0024990061999991930012117004+62000-033000SAO  +00004YA  V02099999999999999999N0000001N1+01411+00911999999ADDMA1999999101761MW1001
0024990061999991930012118004+62000-033000SAO  +00004YA  V02099999999999999999N0000001N1+01351+00851999999ADDMA1999999101791MW1001
0024990061999991930012119004+62000-033000SAO  +00004YA  V02099999999999999999N0000001N1+01241+00801999999ADDMA1999999101831MW1001
0024990061999991930012120004+62000-033000SAO  +00004YA  V02099999999999999999N0000001N1+01191+00741999999ADDMA1999999101961MW1001
0024990061999991930012121004+62000-033000SAO  +00004YA  V02099999999999999999N0000001N1+01191+00741999999ADDMA1999999102001MW1001
0024990061999991930012122004+62000-033000SAO  +00004YA  V02099999999999999999N0000001N1+01241+00801999999ADDMA1999999102001MW1001
0024990061999991930012123004+62000-033000SAO  +00004YA  V02099999999999999999N0000001N1+01191+00741999999ADDMA1999999102031MW1001
0024990061999991930012200004+62000-033000SAO  +00004YA  V02099999999999999999N0000001N1+01131+00691999999ADDMA1999999102031MW1001
0024990061999991930012201004+62000-033000SAO  +00004YA  V02099999999999999999N0000001N1+01131+00691999999ADDMA1999999102001MW1001
0024990061999991930012202004+62000-033000SAO  +00004YA  V02099999999999999999N0000001N1+01071+00691999999ADDMA1999999102001MW1001
0024990061999991930012203004+62000-033000SAO  +00004YA  V02099999999999999999N0000001N1+01071+00741999999ADDMA1999999101961MW1001
0024990061999991930012204004+62000-033000SAO  +00004YA  V02099999999999999999N0000001N1+01021+00691999999ADDMA1999999101961MW1001
0024990061999991930012205004+62000-033000SAO  +00004YA  V02099999999999999999N0000001N1+01021+00691999999ADDMA1999999101901MW1001
0024990061999991930012206004+62000-033000SAO  +00004YA  V02099999999999999999N0000001N1+01071+00631999999ADDMA1999999101901MW1001
0024990061999991930012207004+62000-033000SAO  +00004YA  V02099999999999999999N0000001N1+01021+00691999999ADDMA1999999102001MW1001
0024990061999991930012208004+62000-033000SAO  +00004YA  V02099999999999999999N0000001N1+01021+00691999999ADDMA1999999102071MW1001
0024990061999991930012209004+62000-033000SAO  +00004YA  V02099999999999999999N0000001N1+01131+00691999999ADDMA1999999102171MW1001
0024990061999991930012210004+62000-033000SAO  +00004YA  V02099999999999999999N0000001N1+01241+00741999999ADDMA1999999102201MW1001
0024990061999991930012211004+62000-033000SAO  +00004YA  V02099999999999999999N0000001N1+01351+00801999999ADDMA1999999102271MW1001
0024990061999991930012212004+62000-033000SAO  +00004YA  V02099999999999999999N0000001N1+01411+00801999999ADDMA1999999102201MW1001
0024990061999991930012213004+62000-033000SAO  +00004YA  V02099999999999999999N0000001N1+01521+00801999999ADDMA1999999102131MW1001
0024990061999991930012214004+62000-033000SAO  +00004YA  V02099999999999999999N0000001N1+01521+00741999999ADDMA1999999101961MW1001
0024990061999991930012215004+62000-033000SAO  +00004YA  V02099999999999999999N0000001N1+01631+00691999999ADDMA1999999101861MW1001
0024990061999991930012216004+62000-033000SAO  +00004YA  V02099999999999999999N0000001N1+01521+00741999999ADDMA1999999101831MW1001
0024990061999991930012217004+62000-033000SAO  +00004YA  V02099999999999999999N0000001N1+01461+00741999999ADDMA1999999101791MW1001
0024990061999991930012218004+62000-033000SAO  +00004YA  V02099999999999999999N0000001N1+01411+00741999999ADDMA1999999101791MW1001
0024990061999991930012219004+62000-033000SAO  +00004YA  V02099999999999999999N0000001N1+01351+00801999999ADDMA1999999101901MW1001
0024990061999991930012220004+62000-033000SAO  +00004YA  V02099999999999999999N0000001N1+01351+00741999999ADDMA1999999102001MW1001
0024990061999991930012221004+62000-033000SAO  +00004YA  V02099999999999999999N0000001N1+01301+00741999999ADDMA1999999102071MW1001
0024990061999991930012222004+62000-033000SAO  +00004YA  V02099999999999999999N0000001N1+01301+00741999999ADDMA1999999102101MW1001
0024990061999991930012223004+62000-033000SAO  +00004YA  V02099999999999999999N0000001N1+01351+00741999999ADDMA1999999102131MW1001
0024990061999991930012300004+62000-033000SAO  +00004YA  V02099999999999999999N0000001N1+01301+00741999999ADDMA1999999102131MW1001
0024990061999991930012301004+62000-033000SAO  +00004YA  V02099999999999999999N0000001N1+01301+00741999999ADDMA1999999102131MW1001
0024990061999991930012302004+62000-033000SAO  +00004YA  V02099999999999999999N0000001N1+01301+00851999999ADDMA1999999102101MW1001
0024990061999991930012303004+62000-033000SAO  +00004YA  V02099999999999999999N0000001N1+01351+00911999999ADDMA1999999102071MW1001
0024990061999991930012304004+62000-033000SAO  +00004YA  V02099999999999999999N0000001N1+01301+00961999999ADDMA1999999102031MW1001
0024990061999991930012305004+62000-033000SAO  +00004YA  V02099999999999999999N0000001N1+01301+00961999999ADDMA1999999102001MW1001
0024990061999991930012306004+62000-033000SAO  +00004YA  V02099999999999999999N0000001N1+01351+00961999999ADDMA1999999101931MW1001
0024990061999991930012307004+62000-033000SAO  +00004YA  V02099999999999999999N0000001N1+01351+01071999999ADDMA1999999102001MW1001
0024990061999991930012308004+62000-033000SAO  +00004YA  V02099999999999999999N0000001N1+01351+01021999999ADDMA1999999102071MW1001
0024990061999991930012309004+62000-033000SAO  +00004YA  V02099999999999999999N0000001N1+01351+01021999999ADDMA1999999102171MW1001
0024990061999991930012310004+62000-033000SAO  +00004YA  V02099999999999999999N0000001N1+01351+01021999999ADDMA1999999102241MW1001
0024990061999991930012311004+62000-033000SAO  +00004YA  V02099999999999999999N0000001N1+01411+01021999999ADDMA1999999102301MW1001
0024990061999991930012312004+62000-033000SAO  +00004YA  V02099999999999999999N0000001N1+01461+01021999999ADDMA1999999102271MW1001
0024990061999991930012313004+62000-033000SAO  +00004YA  V02099999999999999999N0000001N1+01571+01021999999ADDMA1999999102131MW1001
0024990061999991930012314004+62000-033000SAO  +00004YA  V02099999999999999999N0000001N1+01571+00961999999ADDMA1999999102001MW1001
0024990061999991930012315004+62000-033000SAO  +00004YA  V02099999999999999999N0000001N1+01691+01071999999ADDMA1999999101861MW1001
0024990061999991930012316004+62000-033000SAO  +00004YA  V02099999999999999999N0000001N1+01741+01021999999ADDMA1999999101761MW1001
0024990061999991930012317004+62000-033000SAO  +00004YA  V02099999999999999999N0000001N1+01741+01071999999ADDMA1999999101761MW1001
0024990061999991930012318004+62000-033000SAO  +00004YA  V02099999999999999999N0000001N1+01571+01131999999ADDMA1999999101761MW1001
0024990061999991930012319004+62000-033000SAO  +00004YA  V02099999999999999999N0000001N1+01571+01191999999ADDMA1999999101791MW1001
0024990061999991930012320004+62000-033000SAO  +00004YA  V02099999999999999999N0000001N1+01571+01191999999ADDMA1999999101791MW1001
0024990061999991930012321004+62000-033000SAO  +00004YA  V02099999999999999999N0000001N1+01571+01191999999ADDMA1999999101831MW1001
0024990061999991930012322004+62000-033000SAO  +00004YA  V02099999999999999999N0000001N1+01571+01191999999ADDMA1999999101861MW1001
0024990061999991930012323004+62000-033000SAO  +00004YA  V02099999999999999999N0000001N1+01571+01131999999ADDMA1999999101861MW1001
0024990061999991930012400004+62000-033000SAO  +00004YA  V02099999999999999999N0000001N1+01521+01191999999ADDMA1999999101901MW1001
0024990061999991930012401004+62000-033000SAO  +00004YA  V02099999999999999999N0000001N1+01521+01241999999ADDMA1999999101901MW1001
0024990061999991930012402004+62000-033000SAO  +00004YA  V02099999999999999999N0000001N1+01411+01071999999ADDMA1999999101861MW1001
0024990061999991930012403004+62000-033000SAO  +00004YA  V02099999999999999999N0000001N1+01461+01071999999ADDMA1999999101831MW1001
0024990061999991930012404004+62000-033000SAO  +00004YA  V02099999999999999999N0000001N1+01521+01021999999ADDMA1999999101791MW1001
0024990061999991930012405004+62000-033000SAO  +00004YA  V02099999999999999999N0000001N1+01461+01071999999ADDMA1999999101761MW1001
0024990061999991930012406004+62000-033000SAO  +00004YA  V02099999999999999999N0000001N1+01411+01131999999ADDMA1999999101761MW1001
0024990061999991930012407004+62000-033000SAO  +00004YA  V02099999999999999999N0000001N1+01411+01071999999ADDMA1999999101731MW1001
0024990061999991930012408004+62000-033000SAO  +00004YA  V02099999999999999999N0000001N1+01411+01021999999ADDMA1999999101761MW1001
0024990061999991930012409004+62000-033000SAO  +00004YA  V02099999999999999999N0000001N1+01521+01071999999ADDMA1999999101761MW1001
0024990061999991930012410004+62000-033000SAO  +00004YA  V02099999999999999999N0000001N1+01521+01021999999ADDMA1999999101861MW1001
0024990061999991930012411004+62000-033000SAO  +00004YA  V02099999999999999999N0000001N1+01571+01131999999ADDMA1999999101901MW1001
0024990061999991930012412004+62000-033000SAO  +00004YA  V02099999999999999999N0000001N1+01631+01071999999ADDMA1999999101861MW1001
0024990061999991930012413004+62000-033000SAO  +00004YA  V02099999999999999999N0000001N1+01851+01131999999ADDMA1999999101731MW1001
0024990061999991930012414004+62000-033000SAO  +00004YA  V02099999999999999999N0000001N1+01741+01131999999ADDMA1999999101591MW1001
0024990061999991930012415004+62000-033000SAO  +00004YA  V02099999999999999999N0000001N1+01741+01131999999ADDMA1999999101461MW1001
0024990061999991930012416004+62000-033000SAO  +00004YA  V02099999999999999999N0000001N1+01741+01191999999ADDMA1999999101391MW1001
0024990061999991930012417004+62000-033000SAO  +00004YA  V02099999999999999999N0000001N1+01631+01131999999ADDMA1999999101351MW1001
0024990061999991930012418004+62000-033000SAO  +00004YA  V02099999999999999999N0000001N1+01631+01021999999ADDMA1999999101391MW1001
0024990061999991930012419004+62000-033000SAO  +00004YA  V02099999999999999999N0000001N1+01571+01131999999ADDMA1999999101421MW1001
0024990061999991930012420004+62000-033000SAO  +00004YA  V02099999999999999999N0000001N1+01631+01131999999ADDMA1999999101491MW1001
0024990061999991930012421004+62000-033000SAO  +00004YA  V02099999999999999999N0000001N1+01631+01131999999ADDMA1999999101491MW1001
0024990061999991930012422004+62000-033000SAO  +00004YA  V02099999999999999999N0000001N1+01571+01191999999ADDMA1999999101561MW1001
0024990061999991930012423004+62000-033000SAO  +00004YA  V02099999999999999999N0000001N1+01571+01191999999ADDMA1999999101591MW1001
0024990061999991930012500004+62000-033000SAO  +00004YA  V02099999999999999999N0000001N1+01521+01241999999ADDMA1999999101561MW1001
0024990061999991930012501004+62000-033000SAO  +00004YA  V02099999999999999999N0000001N1+01521+01241999999ADDMA1999999101491MW1001
0024990061999991930012502004+62000-033000SAO  +00004YA  V02099999999999999999N0000001N1+01461+01241999999ADDMA1999999101491MW1001
0024990061999991930012503004+62000-033000SAO  +00004YA  V02099999999999999999N0000001N1+01461+01301999999ADDMA1999999101421MW1001
0024990061999991930012504004+62000-033000SAO  +00004YA  V02099999999999999999N0000001N1+01461+01301999999ADDMA1999999101391MW1001
0024990061999991930012505004+62000-033000SAO  +00004YA  V02099999999999999999N0000001N1+01461+01301999999ADDMA1999999101351MW1001
0024990061999991930012506004+62000-033000SAO  +00004YA  V02099999999999999999N0000001N1+01411+01301999999ADDMA1999999101351MW1001
0024990061999991930012507004+62000-033000SAO  +00004YA  V02099999999999999999N0000001N1+01411+01351999999ADDMA1999999101391MW1001
0024990061999991930012508004+62000-033000SAO  +00004YA  V02099999999999999999N0000001N1+01411+01351999999ADDMA1999999101461MW1001
0024990061999991930012509004+62000-033000SAO  +00004YA  V02099999999999999999N0000001N1+01411+01301999999ADDMA1999999101461MW1001
0024990061999991930012510004+62000-033000SAO  +00004YA  V02099999999999999999N0000001N1+01411+01241999999ADDMA1999999101491MW1001
0024990061999991930012511004+62000-033000SAO  +00004YA  V02099999999999999999N0000001N1+01461+01241999999ADDMA1999999101521MW1001
0024990061999991930012512004+62000-033000SAO  +00004YA  V02099999999999999999N0000001N1+01461+01241999999ADDMA1999999101521MW1001
0024990061999991930012513004+62000-033000SAO  +00004YA  V02099999999999999999N0000001N1+01351+01071999999ADDMA1999999101491MW1001
0024990061999991930012514004+62000-033000SAO  +00004YA  V02099999999999999999N0000001N1+01301+01071999999ADDMA1999999101391MW1001
0024990061999991930012515004+62000-033000SAO  +00004YA  V02099999999999999999N0000001N1+01131+01021999999ADDMA1999999101251MW1001
0024990061999991930012516004+62000-033000SAO  +00004YA  V02099999999999999999N0000001N1+01131+01071999999ADDMA1999999101191MW1001
0024990061999991930012517004+62000-033000SAO  +00004YA  V02099999999999999999N0000001N1+01191+01131999999ADDMA1999999101151MW1001
0024990061999991930012518004+62000-033000SAO  +00004YA  V02099999999999999999N0000001N1+01241+01131999999ADDMA1999999101191MW1001
0024990061999991930012519004+62000-033000SAO  +00004YA  V02099999999999999999N0000001N1+01241+01131999999ADDMA1999999101291MW1001
0024990061999991930012520004+62000-033000SAO  +00004YA  V02099999999999999999N0000001N1+01191+01131999999ADDMA1999999101351MW1001
0024990061999991930012521004+62000-033000SAO  +00004YA  V02099999999999999999N0000001N1+01131+01131999999ADDMA1999999101421MW1001
0024990061999991930012522004+62000-033000SAO  +00004YA  V02099999999999999999N0000001N1+01071+01021999999ADDMA1999999101391MW1001
0024990061999991930012523004+62000-033000SAO  +00004YA  V02099999999999999999N0000001N1+01071+00961999999ADDMA1999999101421MW1001
0024990061999991930012600004+62000-033000SAO  +00004YA  V02099999999999999999N0000001N1+01131+01071999999ADDMA1999999101391MW1001
0024990061999991930012601004+62000-033000SAO  +00004YA  V02099999999999999999N0000001N1+01131+01071999999ADDMA1999999101351MW1001
0024990061999991930012602004+62000-033000SAO  +00004YA  V02099999999999999999N0000001N1+01071+00911999999ADDMA1999999101461MW1001
0024990061999991930012603004+62000-033000SAO  +00004YA  V02099999999999999999N0000001N1+01131+01021999999ADDMA1999999101421MW1001
0024990061999991930012604004+62000-033000SAO  +00004YA  V02099999999999999999N0000001N1+01131+00961999999ADDMA1999999101351MW1001
0024990061999991930012605004+62000-033000SAO  +00004YA  V02099999999999999999N0000001N1+01071+00911999999ADDMA1999999101391MW1001
0024990061999991930012606004+62000-033000SAO  +00004YA  V02099999999999999999N0000001N1+01071+00801999999ADDMA1999999101391MW1001
0024990061999991930012607004+62000-033000SAO  +00004YA  V02099999999999999999N0000001N1+01071+00851999999ADDMA1999999101461MW1001
0024990061999991930012608004+62000-033000SAO  +00004YA  V02099999999999999999N0000001N1+01021+00801999999ADDMA1999999101591MW1001
0024990061999991930012609004+62000-033000SAO  +00004YA  V02099999999999999999N0000001N1+01021+00801999999ADDMA1999999101631MW1001
0024990061999991930012610004+62000-033000SAO  +00004YA  V02099999999999999999N0000001N1+01021+00801999999ADDMA1999999101731MW1001
0024990061999991930012611004+62000-033000SAO  +00004YA  V02099999999999999999N0000001N1+01241+00801999999ADDMA1999999101731MW1001
0024990061999991930012612004+62000-033000SAO  +00004YA  V02099999999999999999N0000001N1+01301+00961999999ADDMA1999999101691MW1001
0024990061999991930012613004+62000-033000SAO  +00004YA  V02099999999999999999N0000001N1+01351+00911999999ADDMA1999999101591MW1001
0024990061999991930012614004+62000-033000SAO  +00004YA  V02099999999999999999N0000001N1+01411+00961999999ADDMA1999999101391MW1001
0024990061999991930012615004+62000-033000SAO  +00004YA  V02099999999999999999N0000001N1+01411+00911999999ADDMA1999999101351MW1001
0024990061999991930012616004+62000-033000SAO  +00004YA  V02099999999999999999N0000001N1+01241+00801999999ADDMA1999999101351MW1001
0024990061999991930012617004+62000-033000SAO  +00004YA  V02099999999999999999N0000001N1+01241+00801999999ADDMA1999999101421MW1001
0024990061999991930012618004+62000-033000SAO  +00004YA  V02099999999999999999N0000001N1+01191+00741999999ADDMA1999999101461MW1001
0024990061999991930012619004+62000-033000SAO  +00004YA  V02099999999999999999N0000001N1+01131+00691999999ADDMA1999999101461MW1001
0024990061999991930012620004+62000-033000SAO  +00004YA  V02099999999999999999N0000001N1+01131+00691999999ADDMA1999999101561MW1001
0024990061999991930012621004+62000-033000SAO  +00004YA  V02099999999999999999N0000001N1+01191+00691999999ADDMA1999999101591MW1001
0024990061999991930012622004+62000-033000SAO  +00004YA  V02099999999999999999N0000001N1+01191+00691999999ADDMA1999999101631MW1001
0024990061999991930012623004+62000-033000SAO  +00004YA  V02099999999999999999N0000001N1+01131+00691999999ADDMA1999999101631MW1001
0024990061999991930012700004+62000-033000SAO  +00004YA  V02099999999999999999N0000001N1+01071+00631999999ADDMA1999999101731MW1001
0024990061999991930012701004+62000-033000SAO  +00004YA  V02099999999999999999N0000001N1+01021+00691999999ADDMA1999999101591MW1001
0024990061999991930012702004+62000-033000SAO  +00004YA  V02099999999999999999N0000001N1+01131+00851999999ADDMA1999999101591MW1001
0024990061999991930012703004+62000-033000SAO  +00004YA  V02099999999999999999N0000001N1+01131+00801999999ADDMA1999999101631MW1001
0024990061999991930012704004+62000-033000SAO  +00004YA  V02099999999999999999N0000001N1+01021+00741999999ADDMA1999999101631MW1001
0024990061999991930012705004+62000-033000SAO  +00004YA  V02099999999999999999N0000001N1+01021+00741999999ADDMA1999999101521MW1001
0024990061999991930012706004+62000-033000SAO  +00004YA  V02099999999999999999N0000001N1+00961+00741999999ADDMA1999999101561MW1001
0024990061999991930012707004+62000-033000SAO  +00004YA  V02099999999999999999N0000001N1+00961+00691999999ADDMA1999999101631MW1001
0024990061999991930012708004+62000-033000SAO  +00004YA  V02099999999999999999N0000001N1+01021+00691999999ADDMA1999999101631MW1001
0024990061999991930012709004+62000-033000SAO  +00004YA  V02099999999999999999N0000001N1+01131+00741999999ADDMA1999999101691MW1001
0024990061999991930012710004+62000-033000SAO  +00004YA  V02099999999999999999N0000001N1+01131+00801999999ADDMA1999999101761MW1001
0024990061999991930012711004+62000-033000SAO  +00004YA  V02099999999999999999N0000001N1+01191+00851999999ADDMA1999999101831MW1001
0024990061999991930012712004+62000-033000SAO  +00004YA  V02099999999999999999N0000001N1+01241+00741999999ADDMA1999999101831MW1001
0024990061999991930012713004+62000-033000SAO  +00004YA  V02099999999999999999N0000001N1+01241+00801999999ADDMA1999999101761MW1001
0024990061999991930012714004+62000-033000SAO  +00004YA  V02099999999999999999N0000001N1+01301+00851999999ADDMA1999999101561MW1001
0024990061999991930012715004+62000-033000SAO  +00004YA  V02099999999999999999N0000001N1+01241+00801999999ADDMA1999999101521MW1001
0024990061999991930012716004+62000-033000SAO  +00004YA  V02099999999999999999N0000001N1+01191+00851999999ADDMA1999999101461MW1001
0024990061999991930012717004+62000-033000SAO  +00004YA  V02099999999999999999N0000001N1+01191+00801999999ADDMA1999999101421MW1001
0024990061999991930012718004+62000-033000SAO  +00004YA  V02099999999999999999N0000001N1+01131+00851999999ADDMA1999999101421MW1001
0024990061999991930012719004+62000-033000SAO  +00004YA  V02099999999999999999N0000001N1+01191+00911999999ADDMA1999999101461MW1001
0024990061999991930012720004+62000-033000SAO  +00004YA  V02099999999999999999N0000001N1+01191+00851999999ADDMA1999999101491MW1001
0024990061999991930012721004+62000-033000SAO  +00004YA  V02099999999999999999N0000001N1+01191+00911999999ADDMA1999999101561MW1001
0024990061999991930012722004+62000-033000SAO  +00004YA  V02099999999999999999N0000001N1+01241+00911999999ADDMA1999999101521MW1001
0024990061999991930012723004+62000-033000SAO  +00004YA  V02099999999999999999N0000001N1+01241+00961999999ADDMA1999999101631MW1001
0024990061999991930012800004+62000-033000SAO  +00004YA  V02099999999999999999N0000001N1+01241+00911999999ADDMA1999999101561MW1001
0024990061999991930012801004+62000-033000SAO  +00004YA  V02099999999999999999N0000001N1+01191+00911999999ADDMA1999999101661MW1001
0024990061999991930012802004+62000-033000SAO  +00004YA  V02099999999999999999N0000001N1+01071+00851999999ADDMA1999999101661MW1001
0024990061999991930012803004+62000-033000SAO  +00004YA  V02099999999999999999N0000001N1+00961+00801999999ADDMA1999999101691MW1001
0024990061999991930012804004+62000-033000SAO  +00004YA  V02099999999999999999N0000001N1+00911+00741999999ADDMA1999999101631MW1001
0024990061999991930012805004+62000-033000SAO  +00004YA  V02099999999999999999N0000001N1+00961+00631999999ADDMA1999999101631MW1001
0024990061999991930012806004+62000-033000SAO  +00004YA  V02099999999999999999N0000001N1+00851+00631999999ADDMA1999999101661MW1001
0024990061999991930012807004+62000-033000SAO  +00004YA  V02099999999999999999N0000001N1+00911+00631999999ADDMA1999999101691MW1001
0024990061999991930012808004+62000-033000SAO  +00004YA  V02099999999999999999N0000001N1+00961+00581999999ADDMA1999999101731MW1001
0024990061999991930012809004+62000-033000SAO  +00004YA  V02099999999999999999N0000001N1+00911+00581999999ADDMA1999999101761MW1001
0024990061999991930012810004+62000-033000SAO  +00004YA  V02099999999999999999N0000001N1+00961+00581999999ADDMA1999999101791MW1001
0024990061999991930012811004+62000-033000SAO  +00004YA  V02099999999999999999N0000001N1+00961+00581999999ADDMA1999999101861MW1001
0024990061999991930012812004+62000-033000SAO  +00004YA  V02099999999999999999N0000001N1+00961+00461999999ADDMA1999999101861MW1001
0024990061999991930012813004+62000-033000SAO  +00004YA  V02099999999999999999N0000001N1+01071+00411999999ADDMA1999999101691MW1001
0024990061999991930012814004+62000-033000SAO  +00004YA  V02099999999999999999N0000001N1+01071+00521999999ADDMA1999999101661MW1001
0024990061999991930012815004+62000-033000SAO  +00004YA  V02099999999999999999N0000001N1+01071+00581999999ADDMA1999999101631MW1001
0024990061999991930012816004+62000-033000SAO  +00004YA  V02099999999999999999N0000001N1+01071+00521999999ADDMA1999999101591MW1001
0024990061999991930012817004+62000-033000SAO  +00004YA  V02099999999999999999N0000001N1+01071+00521999999ADDMA1999999101561MW1001
0024990061999991930012818004+62000-033000SAO  +00004YA  V02099999999999999999N0000001N1+01071+00411999999ADDMA1999999101591MW1001
0024990061999991930012819004+62000-033000SAO  +00004YA  V02099999999999999999N0000001N1+01021+00411999999ADDMA1999999101661MW1001
0024990061999991930012820004+62000-033000SAO  +00004YA  V02099999999999999999N0000001N1+01021+00411999999ADDMA1999999101691MW1001
0024990061999991930012821004+62000-033000SAO  +00004YA  V02099999999999999999N0000001N1+01021+00411999999ADDMA1999999101691MW1001
0024990061999991930012822004+62000-033000SAO  +00004YA  V02099999999999999999N0000001N1+00911+00301999999ADDMA1999999101761MW1001
0024990061999991930012823004+62000-033000SAO  +00004YA  V02099999999999999999N0000001N1+00801+00241999999ADDMA1999999101761MW1001
0024990061999991930012900004+62000-033000SAO  +00004YA  V02099999999999999999N0000001N1+00801+00301999999ADDMA1999999101731MW1001
0024990061999991930012901004+62000-033000SAO  +00004YA  V02099999999999999999N0000001N1+00801+00301999999ADDMA1999999101731MW1001
0024990061999991930012902004+62000-033000SAO  +00004YA  V02099999999999999999N0000001N1+00851+00241999999ADDMA1999999101731MW1001
0024990061999991930012903004+62000-033000SAO  +00004YA  V02099999999999999999N0000001N1+00851+00241999999ADDMA1999999101691MW1001
0024990061999991930012904004+62000-033000SAO  +00004YA  V02099999999999999999N0000001N1+00801+00301999999ADDMA1999999101661MW1001
0024990061999991930012905004+62000-033000SAO  +00004YA  V02099999999999999999N0000001N1+00851+00301999999ADDMA1999999101631MW1001
0024990061999991930012906004+62000-033000SAO  +00004YA  V02099999999999999999N0000001N1+00851+00411999999ADDMA1999999101661MW1001
0024990061999991930012907004+62000-033000SAO  +00004YA  V02099999999999999999N0000001N1+00801+00411999999ADDMA1999999101691MW1001
0024990061999991930012908004+62000-033000SAO  +00004YA  V02099999999999999999N0000001N1+00801+00411999999ADDMA1999999101761MW1001
0024990061999991930012909004+62000-033000SAO  +00004YA  V02099999999999999999N0000001N1+00851+00411999999ADDMA1999999101791MW1001
0024990061999991930012910004+62000-033000SAO  +00004YA  V02099999999999999999N0000001N1+00851+00461999999ADDMA1999999101861MW1001
0024990061999991930012911004+62000-033000SAO  +00004YA  V02099999999999999999N0000001N1+00961+00521999999ADDMA1999999101861MW1001
0024990061999991930012912004+62000-033000SAO  +00004YA  V02099999999999999999N0000001N1+01071+00521999999ADDMA1999999101831MW1001
0024990061999991930012913004+62000-033000SAO  +00004YA  V02099999999999999999N0000001N1+01071+00521999999ADDMA1999999101791MW1001
0024990061999991930012914004+62000-033000SAO  +00004YA  V02099999999999999999N0000001N1+01131+00521999999ADDMA1999999101691MW1001
0024990061999991930012915004+62000-033000SAO  +00004YA  V02099999999999999999N0000001N1+01131+00581999999ADDMA1999999101631MW1001
0024990061999991930012916004+62000-033000SAO  +00004YA  V02099999999999999999N0000001N1+01071+00521999999ADDMA1999999101631MW1001
0024990061999991930012917004+62000-033000SAO  +00004YA  V02099999999999999999N0000001N1+01071+00521999999ADDMA1999999101631MW1001
0024990061999991930012918004+62000-033000SAO  +00004YA  V02099999999999999999N0000001N1+01071+00521999999ADDMA1999999101661MW1001
0024990061999991930012919004+62000-033000SAO  +00004YA  V02099999999999999999N0000001N1+01021+00461999999ADDMA1999999101661MW1001
0043990061999991930012920004+62000-033000SAO  +00004YA  V02099999999999999999N0000001N1+01021+00461999999ADDMA1999999102072MW1001EQDQ01+102073APOSP 
0024990061999991930012921004+62000-033000SAO  +00004YA  V02099999999999999999N0000001N1+01021+00461999999ADDMA1999999101761MW1001
0024990061999991930012922004+62000-033000SAO  +00004YA  V02099999999999999999N0000001N1+01021+00411999999ADDMA1999999101791MW1001
0024990061999991930012923004+62000-033000SAO  +00004YA  V02099999999999999999N0000001N1+01021+00411999999ADDMA1999999101761MW1001
0024990061999991930013000004+62000-033000SAO  +00004YA  V02099999999999999999N0000001N1+01021+00461999999ADDMA1999999101791MW1001
0024990061999991930013001004+62000-033000SAO  +00004YA  V02099999999999999999N0000001N1+01071+00521999999ADDMA1999999101831MW1001
0024990061999991930013002004+62000-033000SAO  +00004YA  V02099999999999999999N0000001N1+01021+00521999999ADDMA1999999101761MW1001
0024990061999991930013003004+62000-033000SAO  +00004YA  V02099999999999999999N0000001N1+01021+00521999999ADDMA1999999101791MW1001
0024990061999991930013004004+62000-033000SAO  +00004YA  V02099999999999999999N0000001N1+00961+00411999999ADDMA1999999101731MW1001
0024990061999991930013005004+62000-033000SAO  +00004YA  V02099999999999999999N0000001N1+00961+00411999999ADDMA1999999101691MW1001
0024990061999991930013006004+62000-033000SAO  +00004YA  V02099999999999999999N0000001N1+00961+00351999999ADDMA1999999101691MW1001
0024990061999991930013007004+62000-033000SAO  +00004YA  V02099999999999999999N0000001N1+01021+00521999999ADDMA1999999101691MW1001
0024990061999991930013008004+62000-033000SAO  +00004YA  V02099999999999999999N0000001N1+00961+00521999999ADDMA1999999101761MW1001
0024990061999991930013009004+62000-033000SAO  +00004YA  V02099999999999999999N0000001N1+01021+00461999999ADDMA1999999101831MW1001
0024990061999991930013010004+62000-033000SAO  +00004YA  V02099999999999999999N0000001N1+01021+00521999999ADDMA1999999101831MW1001
0024990061999991930013011004+62000-033000SAO  +00004YA  V02099999999999999999N0000001N1+01071+00461999999ADDMA1999999101861MW1001
0024990061999991930013012004+62000-033000SAO  +00004YA  V02099999999999999999N0000001N1+01131+00521999999ADDMA1999999101861MW1001
0024990061999991930013013004+62000-033000SAO  +00004YA  V02099999999999999999N0000001N1+01191+00461999999ADDMA1999999101761MW1001
0024990061999991930013014004+62000-033000SAO  +00004YA  V02099999999999999999N0000001N1+01131+00461999999ADDMA1999999101691MW1001
0024990061999991930013015004+62000-033000SAO  +00004YA  V02099999999999999999N0000001N1+01131+00521999999ADDMA1999999101661MW1001
0024990061999991930013016004+62000-033000SAO  +00004YA  V02099999999999999999N0000001N1+01071+00581999999ADDMA1999999101591MW1001
0024990061999991930013017004+62000-033000SAO  +00004YA  V02099999999999999999N0000001N1+01071+00521999999ADDMA1999999101631MW1001
0024990061999991930013018004+62000-033000SAO  +00004YA  V02099999999999999999N0000001N1+01071+00521999999ADDMA1999999101631MW1001
0024990061999991930013019004+62000-033000SAO  +00004YA  V02099999999999999999N0000001N1+01021+00521999999ADDMA1999999101661MW1001
0024990061999991930013020004+62000-033000SAO  +00004YA  V02099999999999999999N0000001N1+01021+00581999999ADDMA1999999101661MW1001
0024990061999991930013021004+62000-033000SAO  +00004YA  V02099999999999999999N0000001N1+01021+00461999999ADDMA1999999101731MW1001
0024990061999991930013022004+62000-033000SAO  +00004YA  V02099999999999999999N0000001N1+01021+00461999999ADDMA1999999101731MW1001
0024990061999991930013023004+62000-033000SAO  +00004YA  V02099999999999999999N0000001N1+01021+00521999999ADDMA1999999101731MW1001
0024990061999991930013100004+62000-033000SAO  +00004YA  V02099999999999999999N0000001N1+01021+00411999999ADDMA1999999101731MW1001
0024990061999991930013101004+62000-033000SAO  +00004YA  V02099999999999999999N0000001N1+01071+00461999999ADDMA1999999101761MW1001
0024990061999991930013102004+62000-033000SAO  +00004YA  V02099999999999999999N0000001N1+01071+00461999999ADDMA1999999101761MW1001
0024990061999991930013103004+62000-033000SAO  +00004YA  V02099999999999999999N0000001N1+01071+00521999999ADDMA1999999101761MW1001
0024990061999991930013104004+62000-033000SAO  +00004YA  V02099999999999999999N0000001N1+01071+00521999999ADDMA1999999101731MW1001
0024990061999991930013105004+62000-033000SAO  +00004YA  V02099999999999999999N0000001N1+01071+00461999999ADDMA1999999101691MW1001
0024990061999991930013106004+62000-033000SAO  +00004YA  V02099999999999999999N0000001N1+01021+00411999999ADDMA1999999101731MW1001
0024990061999991930013107004+62000-033000SAO  +00004YA  V02099999999999999999N0000001N1+01071+00241999999ADDMA1999999101691MW1001
0024990061999991930013108004+62000-033000SAO  +00004YA  V02099999999999999999N0000001N1+01071+00241999999ADDMA1999999101731MW1001
0024990061999991930013109004+62000-033000SAO  +00004YA  V02099999999999999999N0000001N1+01071+00301999999ADDMA1999999101791MW1001
0024990061999991930013110004+62000-033000SAO  +00004YA  V02099999999999999999N0000001N1+01131+00301999999ADDMA1999999101831MW1001
0024990061999991930013111004+62000-033000SAO  +00004YA  V02099999999999999999N0000001N1+01241+00301999999ADDMA1999999101861MW1001
0024990061999991930013112004+62000-033000SAO  +00004YA  V02099999999999999999N0000001N1+01351+00411999999ADDMA1999999101791MW1001
0024990061999991930013113004+62000-033000SAO  +00004YA  V02099999999999999999N0000001N1+01411+00521999999ADDMA1999999101761MW1001
0024990061999991930013114004+62000-033000SAO  +00004YA  V02099999999999999999N0000001N1+01521+00581999999ADDMA1999999101661MW1001
0024990061999991930013115004+62000-033000SAO  +00004YA  V02099999999999999999N0000001N1+01631+00631999999ADDMA1999999101521MW1001
0024990061999991930013116004+62000-033000SAO  +00004YA  V02099999999999999999N0000001N1+01521+00691999999ADDMA1999999101491MW1001
0024990061999991930013117004+62000-033000SAO  +00004YA  V02099999999999999999N0000001N1+01571+00631999999ADDMA1999999101491MW1001
0024990061999991930013118004+62000-033000SAO  +00004YA  V02099999999999999999N0000001N1+01461+00741999999ADDMA1999999101521MW1001
0024990061999991930013119004+62000-033000SAO  +00004YA  V02099999999999999999N0000001N1+01351+00691999999ADDMA1999999101521MW1001
0024990061999991930013120004+62000-033000SAO  +00004YA  V02099999999999999999N0000001N1+01301+00691999999ADDMA1999999101561MW1001
0024990061999991930013121004+62000-033000SAO  +00004YA  V02099999999999999999N0000001N1+01241+00631999999ADDMA1999999101631MW1001
0024990061999991930013122004+62000-033000SAO  +00004YA  V02099999999999999999N0000001N1+01241+00581999999ADDMA1999999101661MW1001
0024990061999991930013123004+62000-033000SAO  +00004YA  V02099999999999999999N0000001N1+01241+00581999999ADDMA1999999101691MW1001
0024990061999991930020100004+62000-033000SAO  +00004YA  V02099999999999999999N0000001N1+01191+00581999999ADDMA1999999101691MW1001
0024990061999991930020101004+62000-033000SAO  +00004YA  V02099999999999999999N0000001N1+01301+00131999999ADDMA1999999101691MW1001
0024990061999991930020102004+62000-033000SAO  +00004YA  V02099999999999999999N0000001N1+01241+00021999999ADDMA1999999101631MW1001
0024990061999991930020103004+62000-033000SAO  +00004YA  V02099999999999999999N0000001N1+01241+00021999999ADDMA1999999101631MW1001
0024990061999991930020104004+62000-033000SAO  +00004YA  V02099999999999999999N0000001N1+01191+00021999999ADDMA1999999101631MW1001
0024990061999991930020105004+62000-033000SAO  +00004YA  V02099999999999999999N0000001N1+01131+00131999999ADDMA1999999101661MW1001
0024990061999991930020106004+62000-033000SAO  +00004YA  V02099999999999999999N0000001N1+01071+00021999999ADDMA1999999101661MW1001
0024990061999991930020107004+62000-033000SAO  +00004YA  V02099999999999999999N0000001N1+01071+00081999999ADDMA1999999101661MW1001
0024990061999991930020108004+62000-033000SAO  +00004YA  V02099999999999999999N0000001N1+01021+00131999999ADDMA1999999101761MW1001
0024990061999991930020109004+62000-033000SAO  +00004YA  V02099999999999999999N0000001N1+01131-00151999999ADDMA1999999101831MW1001
0024990061999991930020110004+62000-033000SAO  +00004YA  V02099999999999999999N0000001N1+01351-00041999999ADDMA1999999101861MW1001
0024990061999991930020111004+62000-033000SAO  +00004YA  V02099999999999999999N0000001N1+01411-00041999999ADDMA1999999101901MW1001
0024990061999991930020112004+62000-033000SAO  +00004YA  V02099999999999999999N0000001N1+01411+00131999999ADDMA1999999101861MW1001
0024990061999991930020113004+62000-033000SAO  +00004YA  V02099999999999999999N0000001N1+01461+00301999999ADDMA1999999101791MW1001
0024990061999991930020114004+62000-033000SAO  +00004YA  V02099999999999999999N0000001N1+01571+00521999999ADDMA1999999101631MW1001
0024990061999991930020115004+62000-033000SAO  +00004YA  V02099999999999999999N0000001N1+01461+00461999999ADDMA1999999101521MW1001
0024990061999991930020116004+62000-033000SAO  +00004YA  V02099999999999999999N0000001N1+01461+00521999999ADDMA1999999101491MW1001
0024990061999991930020117004+62000-033000SAO  +00004YA  V02099999999999999999N0000001N1+01411+00581999999ADDMA1999999101461MW1001
0024990061999991930020118004+62000-033000SAO  +00004YA  V02099999999999999999N0000001N1+01351+00691999999ADDMA1999999101421MW1001
0024990061999991930020119004+62000-033000SAO  +00004YA  V02099999999999999999N0000001N1+01241+00691999999ADDMA1999999101461MW1001
0024990061999991930020120004+62000-033000SAO  +00004YA  V02099999999999999999N0000001N1+01241+00691999999ADDMA1999999101521MW1001
0024990061999991930020121004+62000-033000SAO  +00004YA  V02099999999999999999N0000001N1+01191+00741999999ADDMA1999999101591MW1001
0024990061999991930020122004+62000-033000SAO  +00004YA  V02099999999999999999N0000001N1+01131+00741999999ADDMA1999999101661MW1001
0024990061999991930020123004+62000-033000SAO  +00004YA  V02099999999999999999N0000001N1+01131+00741999999ADDMA1999999101661MW1001
0024990061999991930020200004+62000-033000SAO  +00004YA  V02099999999999999999N0000001N1+01131+00741999999ADDMA1999999101731MW1001
0024990061999991930020201004+62000-033000SAO  +00004YA  V02099999999999999999N0000001N1+01131+00801999999ADDMA1999999101661MW1001
0024990061999991930020202004+62000-033000SAO  +00004YA  V02099999999999999999N0000001N1+01191+00801999999ADDMA1999999101691MW1001
